05:45:03.943 INFO  ROOT                           - *****  UNIVERSAL ADAPTER START  *****
05:45:03.949 DEBUG startup                        - UA Start
05:45:03.978 DEBUG GRF                            - GRF CD - enableCrossDayGRF=false
05:45:03.978 DEBUG GRF                            - GRF AO - enableAdvanceOrderGRF=false
05:45:03.979 DEBUG startup                        - fixDefaultRoutePattern={TargetCompID}-{SenderCompID}
05:45:03.979 DEBUG startup                        - defExchCode=KL
05:45:03.979 DEBUG startup                        - allowDefUnsolicitedOrderRoute=false
05:45:04.331 INFO  c.n.u.d.DemultiplexerFactory   - Clear Data
05:45:04.364 WARN  c.n.u.ebcgf.EbcgfDatabase      - createConnection to 'jdbc:jtds:sqlserver://omsdb:1433/EBCGF_NOMURA;appName=UA' took 103 ms
05:45:04.369 INFO  EBCGF_NOMURA                   - CNS_DECIDE-BLP default route to BLP
05:45:04.372 DEBUG ebcgf.BLP                      - executeWhatever=false
05:45:04.372 DEBUG ebcgf.BLP                      - receiveTradingSessionStatus=true
05:45:04.376 DEBUG ebcgf.BLP                      - Replace @vbPossDupFlag=DEFAULT^@vbPossDupFlag='N'^ to @vbPossDupFlag='Y'
05:45:04.381 TRACE ebcgf.BLP                      - Reset archiveDir - BLP
05:45:04.385 INFO  conf\database.EBCGF.cfg        - Start EbcgfService - SUCCESS
05:45:04.391 DEBUG ebcgf.BLP                      - ConsumeQueueTask START [Thread[UAThreadPool-T2,5,main]]
05:45:04.395 INFO  ebcgf.BLP                      - EXECUTE
05:45:04.679 INFO  c.n.u.d.DemultiplexerFactory   - Clear data done take 347ms
05:45:04.682 INFO  c.n.u.d.DemultiplexerFactory   - Test No Data - OK
05:45:05.049 DEBUG CNS_DECIDE---BLP--             - [evt] Session FIX.4.2:CNS_DECIDE->BLP schedule is daily, 22:00:00-UTC - 16:00:00-UTC
05:45:05.049 DEBUG CNS_DECIDE---BLP--             - [evt] Session state is not current; resetting FIX.4.2:CNS_DECIDE->BLP
05:45:05.486 DEBUG CNS_DECIDE---BLP--             - [evt] Created session: FIX.4.2:CNS_DECIDE->BLP
05:45:05.491 DEBUG c.n.u.fix.UAQuickFixInitiator  - Flow control reset mode 'ONCE LOGIN'
05:45:05.492 DEBUG CNS_DECIDE-BLP                 - receiveTradingSessionStatus=false
05:45:06.151 INFO  d.q.m.i.IoSessionInitiator     - [FIX.4.2:CNS_DECIDE->BLP] [/160.43.172.4:8228]
05:45:06.372 DEBUG riskFilter                     - priceRangeStart=null,priceRangeEnd=1.00,bidSize=0.005,stkCode=null,sectorCode=null
05:45:06.386 ERROR c.n.f.j.PriceFeedManagerUA     - QCFeedService Init Error -- com.n2n.qcfeed.NoConfigurationFound: No configurators available
05:45:07.159 INFO  CNS_DECIDE---BLP--             - --->> 8=FIX.4.2|9=68|35=A|34=1|49=CNS_DECIDE|52=20211006-22:45:07.157|56=BLP|98=0|108=60|10=193|
05:45:07.163 DEBUG CNS_DECIDE---BLP--             - [evt] Initiated logon request
05:45:08.458 INFO  CNS_DECIDE---BLP--             - <<--- 8=FIX.4.2|9=0064|35=A|49=BLP|56=CNS_DECIDE|34=1|52=20211006-22:45:08|98=0|108=60|10=083|
05:45:08.459 INFO  CNS_DECIDE---BLP--             - <<--- 8=FIX.4.2|9=0080|35=1|49=BLP|56=CNS_DECIDE|34=2|52=20211006-22:45:08|112=L.0001.0003.0002.224508|10=119|
05:45:08.460 DEBUG CNS_DECIDE---BLP--             - [evt] Received logon
05:45:08.464 TRACE CNS_DECIDE-BLP                 - Reset archiveDir - CNS_DECIDE-BLP
05:45:08.467 DEBUG CNS_DECIDE-BLP                 - CNS_DECIDE-BLP flow control start
05:45:08.467 INFO  CNS_DECIDE---BLP--             - --->> 8=FIX.4.2|9=84|35=0|34=2|49=CNS_DECIDE|52=20211006-22:45:08.467|56=BLP|112=L.0001.0003.0002.224508|10=233|
05:45:08.469 DEBUG CNS_DECIDE-BLP                 - Not today message, skip
05:45:08.772 INFO  CNS_DECIDE---BLP--             - <<--- 8=FIX.4.2|9=0080|35=1|49=BLP|56=CNS_DECIDE|34=3|52=20211006-22:45:08|112=A.0004.0004.0003.224508|10=114|
05:45:08.772 INFO  CNS_DECIDE---BLP--             - --->> 8=FIX.4.2|9=84|35=0|34=3|49=CNS_DECIDE|52=20211006-22:45:08.772|56=BLP|112=A.0004.0004.0003.224508|10=227|
05:46:08.777 INFO  CNS_DECIDE---BLP--             - <<--- 8=FIX.4.2|9=0052|35=0|49=BLP|56=CNS_DECIDE|34=4|52=20211006-22:46:08|10=039|
05:46:08.778 INFO  CNS_DECIDE---BLP--             - --->> 8=FIX.4.2|9=56|35=0|34=4|49=CNS_DECIDE|52=20211006-22:46:08.778|56=BLP|10=159|
05:47:08.778 INFO  CNS_DECIDE---BLP--             - <<--- 8=FIX.4.2|9=0052|35=0|49=BLP|56=CNS_DECIDE|34=5|52=20211006-22:47:08|10=041|
05:47:08.779 INFO  CNS_DECIDE---BLP--             - --->> 8=FIX.4.2|9=56|35=0|34=5|49=CNS_DECIDE|52=20211006-22:47:08.779|56=BLP|10=162|
05:48:08.777 INFO  CNS_DECIDE---BLP--             - <<--- 8=FIX.4.2|9=0052|35=0|49=BLP|56=CNS_DECIDE|34=6|52=20211006-22:48:08|10=043|
05:48:08.779 INFO  CNS_DECIDE---BLP--             - --->> 8=FIX.4.2|9=56|35=0|34=6|49=CNS_DECIDE|52=20211006-22:48:08.779|56=BLP|10=164|
05:49:08.778 INFO  CNS_DECIDE---BLP--             - <<--- 8=FIX.4.2|9=0052|35=0|49=BLP|56=CNS_DECIDE|34=7|52=20211006-22:49:08|10=045|
05:49:08.779 INFO  CNS_DECIDE---BLP--             - --->> 8=FIX.4.2|9=56|35=0|34=7|49=CNS_DECIDE|52=20211006-22:49:08.779|56=BLP|10=166|
05:50:08.778 INFO  CNS_DECIDE---BLP--             - <<--- 8=FIX.4.2|9=0052|35=0|49=BLP|56=CNS_DECIDE|34=8|52=20211006-22:50:08|10=038|
05:50:08.779 INFO  CNS_DECIDE---BLP--             - --->> 8=FIX.4.2|9=56|35=0|34=8|49=CNS_DECIDE|52=20211006-22:50:08.779|56=BLP|10=159|
05:51:08.779 INFO  CNS_DECIDE---BLP--             - <<--- 8=FIX.4.2|9=0052|35=0|49=BLP|56=CNS_DECIDE|34=9|52=20211006-22:51:08|10=040|
05:51:08.780 INFO  CNS_DECIDE---BLP--             - --->> 8=FIX.4.2|9=56|35=0|34=9|49=CNS_DECIDE|52=20211006-22:51:08.780|56=BLP|10=153|
05:52:08.779 INFO  CNS_DECIDE---BLP--             - <<--- 8=FIX.4.2|9=0053|35=0|49=BLP|56=CNS_DECIDE|34=10|52=20211006-22:52:08|10=082|
05:52:08.780 INFO  CNS_DECIDE---BLP--             - --->> 8=FIX.4.2|9=57|35=0|34=10|49=CNS_DECIDE|52=20211006-22:52:08.780|56=BLP|10=195|
05:53:08.779 INFO  CNS_DECIDE---BLP--             - <<--- 8=FIX.4.2|9=0053|35=0|49=BLP|56=CNS_DECIDE|34=11|52=20211006-22:53:08|10=084|
05:53:08.780 INFO  CNS_DECIDE---BLP--             - --->> 8=FIX.4.2|9=57|35=0|34=11|49=CNS_DECIDE|52=20211006-22:53:08.780|56=BLP|10=197|
05:54:08.779 INFO  CNS_DECIDE---BLP--             - <<--- 8=FIX.4.2|9=0053|35=0|49=BLP|56=CNS_DECIDE|34=12|52=20211006-22:54:08|10=086|
05:54:08.780 INFO  CNS_DECIDE---BLP--             - --->> 8=FIX.4.2|9=57|35=0|34=12|49=CNS_DECIDE|52=20211006-22:54:08.780|56=BLP|10=199|
05:55:08.780 INFO  CNS_DECIDE---BLP--             - <<--- 8=FIX.4.2|9=0053|35=0|49=BLP|56=CNS_DECIDE|34=13|52=20211006-22:55:08|10=088|
05:55:08.781 INFO  CNS_DECIDE---BLP--             - --->> 8=FIX.4.2|9=57|35=0|34=13|49=CNS_DECIDE|52=20211006-22:55:08.781|56=BLP|10=202|
05:56:08.779 INFO  CNS_DECIDE---BLP--             - <<--- 8=FIX.4.2|9=0053|35=0|49=BLP|56=CNS_DECIDE|34=14|52=20211006-22:56:08|10=090|
05:56:08.781 INFO  CNS_DECIDE---BLP--             - --->> 8=FIX.4.2|9=57|35=0|34=14|49=CNS_DECIDE|52=20211006-22:56:08.780|56=BLP|10=203|
05:57:08.780 INFO  CNS_DECIDE---BLP--             - <<--- 8=FIX.4.2|9=0053|35=0|49=BLP|56=CNS_DECIDE|34=15|52=20211006-22:57:08|10=092|
05:57:08.781 INFO  CNS_DECIDE---BLP--             - --->> 8=FIX.4.2|9=57|35=0|34=15|49=CNS_DECIDE|52=20211006-22:57:08.781|56=BLP|10=206|
05:58:08.780 INFO  CNS_DECIDE---BLP--             - <<--- 8=FIX.4.2|9=0053|35=0|49=BLP|56=CNS_DECIDE|34=16|52=20211006-22:58:08|10=094|
05:58:08.781 INFO  CNS_DECIDE---BLP--             - --->> 8=FIX.4.2|9=57|35=0|34=16|49=CNS_DECIDE|52=20211006-22:58:08.781|56=BLP|10=208|
05:59:08.781 INFO  CNS_DECIDE---BLP--             - <<--- 8=FIX.4.2|9=0053|35=0|49=BLP|56=CNS_DECIDE|34=17|52=20211006-22:59:08|10=096|
05:59:08.782 INFO  CNS_DECIDE---BLP--             - --->> 8=FIX.4.2|9=57|35=0|34=17|49=CNS_DECIDE|52=20211006-22:59:08.782|56=BLP|10=211|
06:00:08.780 INFO  CNS_DECIDE---BLP--             - <<--- 8=FIX.4.2|9=0053|35=0|49=BLP|56=CNS_DECIDE|34=18|52=20211006-23:00:08|10=084|
06:00:08.781 INFO  CNS_DECIDE---BLP--             - --->> 8=FIX.4.2|9=57|35=0|34=18|49=CNS_DECIDE|52=20211006-23:00:08.781|56=BLP|10=198|
06:01:08.779 INFO  CNS_DECIDE---BLP--             - <<--- 8=FIX.4.2|9=0053|35=0|49=BLP|56=CNS_DECIDE|34=19|52=20211006-23:01:08|10=086|
06:01:08.780 INFO  CNS_DECIDE---BLP--             - --->> 8=FIX.4.2|9=57|35=0|34=19|49=CNS_DECIDE|52=20211006-23:01:08.780|56=BLP|10=199|
06:02:08.780 INFO  CNS_DECIDE---BLP--             - <<--- 8=FIX.4.2|9=0053|35=0|49=BLP|56=CNS_DECIDE|34=20|52=20211006-23:02:08|10=079|
06:02:08.781 INFO  CNS_DECIDE---BLP--             - --->> 8=FIX.4.2|9=57|35=0|34=20|49=CNS_DECIDE|52=20211006-23:02:08.781|56=BLP|10=193|
06:03:08.782 INFO  CNS_DECIDE---BLP--             - <<--- 8=FIX.4.2|9=0053|35=0|49=BLP|56=CNS_DECIDE|34=21|52=20211006-23:03:08|10=081|
06:03:08.783 INFO  CNS_DECIDE---BLP--             - --->> 8=FIX.4.2|9=57|35=0|34=21|49=CNS_DECIDE|52=20211006-23:03:08.783|56=BLP|10=197|
06:04:08.782 INFO  CNS_DECIDE---BLP--             - <<--- 8=FIX.4.2|9=0053|35=0|49=BLP|56=CNS_DECIDE|34=22|52=20211006-23:04:08|10=083|
06:04:08.783 INFO  CNS_DECIDE---BLP--             - --->> 8=FIX.4.2|9=57|35=0|34=22|49=CNS_DECIDE|52=20211006-23:04:08.783|56=BLP|10=199|
06:05:08.785 INFO  CNS_DECIDE---BLP--             - <<--- 8=FIX.4.2|9=0053|35=0|49=BLP|56=CNS_DECIDE|34=23|52=20211006-23:05:08|10=085|
06:05:08.786 INFO  CNS_DECIDE---BLP--             - --->> 8=FIX.4.2|9=57|35=0|34=23|49=CNS_DECIDE|52=20211006-23:05:08.786|56=BLP|10=204|
06:06:08.784 INFO  CNS_DECIDE---BLP--             - <<--- 8=FIX.4.2|9=0053|35=0|49=BLP|56=CNS_DECIDE|34=24|52=20211006-23:06:08|10=087|
06:06:08.785 INFO  CNS_DECIDE---BLP--             - --->> 8=FIX.4.2|9=57|35=0|34=24|49=CNS_DECIDE|52=20211006-23:06:08.785|56=BLP|10=205|
06:07:08.785 INFO  CNS_DECIDE---BLP--             - <<--- 8=FIX.4.2|9=0053|35=0|49=BLP|56=CNS_DECIDE|34=25|52=20211006-23:07:08|10=089|
06:07:08.786 INFO  CNS_DECIDE---BLP--             - --->> 8=FIX.4.2|9=57|35=0|34=25|49=CNS_DECIDE|52=20211006-23:07:08.786|56=BLP|10=208|
06:08:08.785 INFO  CNS_DECIDE---BLP--             - <<--- 8=FIX.4.2|9=0053|35=0|49=BLP|56=CNS_DECIDE|34=26|52=20211006-23:08:08|10=091|
06:08:08.786 INFO  CNS_DECIDE---BLP--             - --->> 8=FIX.4.2|9=57|35=0|34=26|49=CNS_DECIDE|52=20211006-23:08:08.786|56=BLP|10=210|
06:09:08.785 INFO  CNS_DECIDE---BLP--             - <<--- 8=FIX.4.2|9=0053|35=0|49=BLP|56=CNS_DECIDE|34=27|52=20211006-23:09:08|10=093|
06:09:08.786 INFO  CNS_DECIDE---BLP--             - --->> 8=FIX.4.2|9=57|35=0|34=27|49=CNS_DECIDE|52=20211006-23:09:08.786|56=BLP|10=212|
06:10:08.785 INFO  CNS_DECIDE---BLP--             - <<--- 8=FIX.4.2|9=0053|35=0|49=BLP|56=CNS_DECIDE|34=28|52=20211006-23:10:08|10=086|
06:10:08.786 INFO  CNS_DECIDE---BLP--             - --->> 8=FIX.4.2|9=57|35=0|34=28|49=CNS_DECIDE|52=20211006-23:10:08.786|56=BLP|10=205|
06:11:08.786 INFO  CNS_DECIDE---BLP--             - <<--- 8=FIX.4.2|9=0053|35=0|49=BLP|56=CNS_DECIDE|34=29|52=20211006-23:11:08|10=088|
06:11:08.787 INFO  CNS_DECIDE---BLP--             - --->> 8=FIX.4.2|9=57|35=0|34=29|49=CNS_DECIDE|52=20211006-23:11:08.787|56=BLP|10=208|
06:12:08.786 INFO  CNS_DECIDE---BLP--             - <<--- 8=FIX.4.2|9=0053|35=0|49=BLP|56=CNS_DECIDE|34=30|52=20211006-23:12:08|10=081|
06:12:08.787 INFO  CNS_DECIDE---BLP--             - --->> 8=FIX.4.2|9=57|35=0|34=30|49=CNS_DECIDE|52=20211006-23:12:08.787|56=BLP|10=201|
06:13:08.787 INFO  CNS_DECIDE---BLP--             - <<--- 8=FIX.4.2|9=0053|35=0|49=BLP|56=CNS_DECIDE|34=31|52=20211006-23:13:08|10=083|
06:13:08.788 INFO  CNS_DECIDE---BLP--             - --->> 8=FIX.4.2|9=57|35=0|34=31|49=CNS_DECIDE|52=20211006-23:13:08.788|56=BLP|10=204|
06:14:08.787 INFO  CNS_DECIDE---BLP--             - <<--- 8=FIX.4.2|9=0053|35=0|49=BLP|56=CNS_DECIDE|34=32|52=20211006-23:14:08|10=085|
06:14:08.788 INFO  CNS_DECIDE---BLP--             - --->> 8=FIX.4.2|9=57|35=0|34=32|49=CNS_DECIDE|52=20211006-23:14:08.788|56=BLP|10=206|
06:15:08.791 INFO  CNS_DECIDE---BLP--             - <<--- 8=FIX.4.2|9=0053|35=0|49=BLP|56=CNS_DECIDE|34=33|52=20211006-23:15:08|10=087|
06:15:08.792 INFO  CNS_DECIDE---BLP--             - --->> 8=FIX.4.2|9=57|35=0|34=33|49=CNS_DECIDE|52=20211006-23:15:08.792|56=BLP|10=203|
06:16:08.791 INFO  CNS_DECIDE---BLP--             - <<--- 8=FIX.4.2|9=0053|35=0|49=BLP|56=CNS_DECIDE|34=34|52=20211006-23:16:08|10=089|
06:16:08.792 INFO  CNS_DECIDE---BLP--             - --->> 8=FIX.4.2|9=57|35=0|34=34|49=CNS_DECIDE|52=20211006-23:16:08.792|56=BLP|10=205|
06:17:08.791 INFO  CNS_DECIDE---BLP--             - <<--- 8=FIX.4.2|9=0053|35=0|49=BLP|56=CNS_DECIDE|34=35|52=20211006-23:17:08|10=091|
06:17:08.792 INFO  CNS_DECIDE---BLP--             - --->> 8=FIX.4.2|9=57|35=0|34=35|49=CNS_DECIDE|52=20211006-23:17:08.792|56=BLP|10=207|
06:18:08.781 INFO  CNS_DECIDE---BLP--             - <<--- 8=FIX.4.2|9=0053|35=0|49=BLP|56=CNS_DECIDE|34=36|52=20211006-23:18:08|10=093|
06:18:09.182 INFO  CNS_DECIDE---BLP--             - --->> 8=FIX.4.2|9=57|35=0|34=36|49=CNS_DECIDE|52=20211006-23:18:09.182|56=BLP|10=203|
06:19:08.781 INFO  CNS_DECIDE---BLP--             - <<--- 8=FIX.4.2|9=0053|35=0|49=BLP|56=CNS_DECIDE|34=37|52=20211006-23:19:08|10=095|
06:19:09.185 INFO  CNS_DECIDE---BLP--             - --->> 8=FIX.4.2|9=57|35=0|34=37|49=CNS_DECIDE|52=20211006-23:19:09.185|56=BLP|10=208|
06:20:08.781 INFO  CNS_DECIDE---BLP--             - <<--- 8=FIX.4.2|9=0053|35=0|49=BLP|56=CNS_DECIDE|34=38|52=20211006-23:20:08|10=088|
06:20:09.184 INFO  CNS_DECIDE---BLP--             - --->> 8=FIX.4.2|9=57|35=0|34=38|49=CNS_DECIDE|52=20211006-23:20:09.184|56=BLP|10=200|
06:21:08.783 INFO  CNS_DECIDE---BLP--             - <<--- 8=FIX.4.2|9=0053|35=0|49=BLP|56=CNS_DECIDE|34=39|52=20211006-23:21:08|10=090|
06:21:09.185 INFO  CNS_DECIDE---BLP--             - --->> 8=FIX.4.2|9=57|35=0|34=39|49=CNS_DECIDE|52=20211006-23:21:09.185|56=BLP|10=203|
06:22:08.783 INFO  CNS_DECIDE---BLP--             - <<--- 8=FIX.4.2|9=0053|35=0|49=BLP|56=CNS_DECIDE|34=40|52=20211006-23:22:08|10=083|
06:22:09.186 INFO  CNS_DECIDE---BLP--             - --->> 8=FIX.4.2|9=57|35=0|34=40|49=CNS_DECIDE|52=20211006-23:22:09.186|56=BLP|10=197|
06:23:08.783 INFO  CNS_DECIDE---BLP--             - <<--- 8=FIX.4.2|9=0053|35=0|49=BLP|56=CNS_DECIDE|34=41|52=20211006-23:23:08|10=085|
06:23:09.186 INFO  CNS_DECIDE---BLP--             - --->> 8=FIX.4.2|9=57|35=0|34=41|49=CNS_DECIDE|52=20211006-23:23:09.186|56=BLP|10=199|
06:24:08.783 INFO  CNS_DECIDE---BLP--             - <<--- 8=FIX.4.2|9=0053|35=0|49=BLP|56=CNS_DECIDE|34=42|52=20211006-23:24:08|10=087|
06:24:09.187 INFO  CNS_DECIDE---BLP--             - --->> 8=FIX.4.2|9=57|35=0|34=42|49=CNS_DECIDE|52=20211006-23:24:09.187|56=BLP|10=202|
06:25:08.782 INFO  CNS_DECIDE---BLP--             - <<--- 8=FIX.4.2|9=0053|35=0|49=BLP|56=CNS_DECIDE|34=43|52=20211006-23:25:08|10=089|
06:25:09.188 INFO  CNS_DECIDE---BLP--             - --->> 8=FIX.4.2|9=57|35=0|34=43|49=CNS_DECIDE|52=20211006-23:25:09.188|56=BLP|10=205|
06:26:08.781 INFO  CNS_DECIDE---BLP--             - <<--- 8=FIX.4.2|9=0053|35=0|49=BLP|56=CNS_DECIDE|34=44|52=20211006-23:26:08|10=091|
06:26:09.189 INFO  CNS_DECIDE---BLP--             - --->> 8=FIX.4.2|9=57|35=0|34=44|49=CNS_DECIDE|52=20211006-23:26:09.189|56=BLP|10=208|
06:27:08.782 INFO  CNS_DECIDE---BLP--             - <<--- 8=FIX.4.2|9=0053|35=0|49=BLP|56=CNS_DECIDE|34=45|52=20211006-23:27:08|10=093|
06:27:09.190 INFO  CNS_DECIDE---BLP--             - --->> 8=FIX.4.2|9=57|35=0|34=45|49=CNS_DECIDE|52=20211006-23:27:09.190|56=BLP|10=202|
06:28:08.782 INFO  CNS_DECIDE---BLP--             - <<--- 8=FIX.4.2|9=0053|35=0|49=BLP|56=CNS_DECIDE|34=46|52=20211006-23:28:08|10=095|
06:28:09.191 INFO  CNS_DECIDE---BLP--             - --->> 8=FIX.4.2|9=57|35=0|34=46|49=CNS_DECIDE|52=20211006-23:28:09.191|56=BLP|10=205|
06:29:08.782 INFO  CNS_DECIDE---BLP--             - <<--- 8=FIX.4.2|9=0053|35=0|49=BLP|56=CNS_DECIDE|34=47|52=20211006-23:29:08|10=097|
06:29:09.193 INFO  CNS_DECIDE---BLP--             - --->> 8=FIX.4.2|9=57|35=0|34=47|49=CNS_DECIDE|52=20211006-23:29:09.193|56=BLP|10=209|
06:30:08.783 INFO  CNS_DECIDE---BLP--             - <<--- 8=FIX.4.2|9=0053|35=0|49=BLP|56=CNS_DECIDE|34=48|52=20211006-23:30:08|10=090|
06:30:09.193 INFO  CNS_DECIDE---BLP--             - --->> 8=FIX.4.2|9=57|35=0|34=48|49=CNS_DECIDE|52=20211006-23:30:09.193|56=BLP|10=202|
06:31:08.784 INFO  CNS_DECIDE---BLP--             - <<--- 8=FIX.4.2|9=0053|35=0|49=BLP|56=CNS_DECIDE|34=49|52=20211006-23:31:08|10=092|
06:31:09.193 INFO  CNS_DECIDE---BLP--             - --->> 8=FIX.4.2|9=57|35=0|34=49|49=CNS_DECIDE|52=20211006-23:31:09.193|56=BLP|10=204|
06:32:08.783 INFO  CNS_DECIDE---BLP--             - <<--- 8=FIX.4.2|9=0053|35=0|49=BLP|56=CNS_DECIDE|34=50|52=20211006-23:32:08|10=085|
06:32:09.194 INFO  CNS_DECIDE---BLP--             - --->> 8=FIX.4.2|9=57|35=0|34=50|49=CNS_DECIDE|52=20211006-23:32:09.194|56=BLP|10=198|
06:33:08.784 INFO  CNS_DECIDE---BLP--             - <<--- 8=FIX.4.2|9=0053|35=0|49=BLP|56=CNS_DECIDE|34=51|52=20211006-23:33:08|10=087|
06:33:09.196 INFO  CNS_DECIDE---BLP--             - --->> 8=FIX.4.2|9=57|35=0|34=51|49=CNS_DECIDE|52=20211006-23:33:09.196|56=BLP|10=202|
06:34:08.784 INFO  CNS_DECIDE---BLP--             - <<--- 8=FIX.4.2|9=0053|35=0|49=BLP|56=CNS_DECIDE|34=52|52=20211006-23:34:08|10=089|
06:34:09.197 INFO  CNS_DECIDE---BLP--             - --->> 8=FIX.4.2|9=57|35=0|34=52|49=CNS_DECIDE|52=20211006-23:34:09.197|56=BLP|10=205|
06:35:08.785 INFO  CNS_DECIDE---BLP--             - <<--- 8=FIX.4.2|9=0053|35=0|49=BLP|56=CNS_DECIDE|34=53|52=20211006-23:35:08|10=091|
06:35:09.197 INFO  CNS_DECIDE---BLP--             - --->> 8=FIX.4.2|9=57|35=0|34=53|49=CNS_DECIDE|52=20211006-23:35:09.197|56=BLP|10=207|
06:36:08.785 INFO  CNS_DECIDE---BLP--             - <<--- 8=FIX.4.2|9=0053|35=0|49=BLP|56=CNS_DECIDE|34=54|52=20211006-23:36:08|10=093|
06:36:09.199 INFO  CNS_DECIDE---BLP--             - --->> 8=FIX.4.2|9=57|35=0|34=54|49=CNS_DECIDE|52=20211006-23:36:09.199|56=BLP|10=211|
06:37:08.784 INFO  CNS_DECIDE---BLP--             - <<--- 8=FIX.4.2|9=0053|35=0|49=BLP|56=CNS_DECIDE|34=55|52=20211006-23:37:08|10=095|
06:37:09.200 INFO  CNS_DECIDE---BLP--             - --->> 8=FIX.4.2|9=57|35=0|34=55|49=CNS_DECIDE|52=20211006-23:37:09.200|56=BLP|10=196|
06:38:08.784 INFO  CNS_DECIDE---BLP--             - <<--- 8=FIX.4.2|9=0053|35=0|49=BLP|56=CNS_DECIDE|34=56|52=20211006-23:38:08|10=097|
06:38:09.200 INFO  CNS_DECIDE---BLP--             - --->> 8=FIX.4.2|9=57|35=0|34=56|49=CNS_DECIDE|52=20211006-23:38:09.200|56=BLP|10=198|
06:39:08.785 INFO  CNS_DECIDE---BLP--             - <<--- 8=FIX.4.2|9=0053|35=0|49=BLP|56=CNS_DECIDE|34=57|52=20211006-23:39:08|10=099|
06:39:09.200 INFO  CNS_DECIDE---BLP--             - --->> 8=FIX.4.2|9=57|35=0|34=57|49=CNS_DECIDE|52=20211006-23:39:09.200|56=BLP|10=200|
06:40:08.786 INFO  CNS_DECIDE---BLP--             - <<--- 8=FIX.4.2|9=0053|35=0|49=BLP|56=CNS_DECIDE|34=58|52=20211006-23:40:08|10=092|
06:40:09.201 INFO  CNS_DECIDE---BLP--             - --->> 8=FIX.4.2|9=57|35=0|34=58|49=CNS_DECIDE|52=20211006-23:40:09.201|56=BLP|10=194|
06:41:08.786 INFO  CNS_DECIDE---BLP--             - <<--- 8=FIX.4.2|9=0053|35=0|49=BLP|56=CNS_DECIDE|34=59|52=20211006-23:41:08|10=094|
06:41:09.203 INFO  CNS_DECIDE---BLP--             - --->> 8=FIX.4.2|9=57|35=0|34=59|49=CNS_DECIDE|52=20211006-23:41:09.203|56=BLP|10=198|
06:42:08.785 INFO  CNS_DECIDE---BLP--             - <<--- 8=FIX.4.2|9=0053|35=0|49=BLP|56=CNS_DECIDE|34=60|52=20211006-23:42:08|10=087|
06:42:09.204 INFO  CNS_DECIDE---BLP--             - --->> 8=FIX.4.2|9=57|35=0|34=60|49=CNS_DECIDE|52=20211006-23:42:09.204|56=BLP|10=192|
06:43:08.787 INFO  CNS_DECIDE---BLP--             - <<--- 8=FIX.4.2|9=0053|35=0|49=BLP|56=CNS_DECIDE|34=61|52=20211006-23:43:08|10=089|
06:43:09.206 INFO  CNS_DECIDE---BLP--             - --->> 8=FIX.4.2|9=57|35=0|34=61|49=CNS_DECIDE|52=20211006-23:43:09.206|56=BLP|10=196|
06:44:08.786 INFO  CNS_DECIDE---BLP--             - <<--- 8=FIX.4.2|9=0053|35=0|49=BLP|56=CNS_DECIDE|34=62|52=20211006-23:44:08|10=091|
06:44:09.205 INFO  CNS_DECIDE---BLP--             - --->> 8=FIX.4.2|9=57|35=0|34=62|49=CNS_DECIDE|52=20211006-23:44:09.205|56=BLP|10=197|
06:45:08.787 INFO  CNS_DECIDE---BLP--             - <<--- 8=FIX.4.2|9=0053|35=0|49=BLP|56=CNS_DECIDE|34=63|52=20211006-23:45:08|10=093|
06:45:09.206 INFO  CNS_DECIDE---BLP--             - --->> 8=FIX.4.2|9=57|35=0|34=63|49=CNS_DECIDE|52=20211006-23:45:09.206|56=BLP|10=200|
06:46:08.789 INFO  CNS_DECIDE---BLP--             - <<--- 8=FIX.4.2|9=0053|35=0|49=BLP|56=CNS_DECIDE|34=64|52=20211006-23:46:08|10=095|
06:46:09.208 INFO  CNS_DECIDE---BLP--             - --->> 8=FIX.4.2|9=57|35=0|34=64|49=CNS_DECIDE|52=20211006-23:46:09.208|56=BLP|10=204|
06:47:08.787 INFO  CNS_DECIDE---BLP--             - <<--- 8=FIX.4.2|9=0053|35=0|49=BLP|56=CNS_DECIDE|34=65|52=20211006-23:47:08|10=097|
06:47:09.208 INFO  CNS_DECIDE---BLP--             - --->> 8=FIX.4.2|9=57|35=0|34=65|49=CNS_DECIDE|52=20211006-23:47:09.208|56=BLP|10=206|
06:48:08.789 INFO  CNS_DECIDE---BLP--             - <<--- 8=FIX.4.2|9=0053|35=0|49=BLP|56=CNS_DECIDE|34=66|52=20211006-23:48:08|10=099|
06:48:09.212 INFO  CNS_DECIDE---BLP--             - --->> 8=FIX.4.2|9=57|35=0|34=66|49=CNS_DECIDE|52=20211006-23:48:09.212|56=BLP|10=203|
06:49:08.790 INFO  CNS_DECIDE---BLP--             - <<--- 8=FIX.4.2|9=0053|35=0|49=BLP|56=CNS_DECIDE|34=67|52=20211006-23:49:08|10=101|
06:49:09.213 INFO  CNS_DECIDE---BLP--             - --->> 8=FIX.4.2|9=57|35=0|34=67|49=CNS_DECIDE|52=20211006-23:49:09.213|56=BLP|10=206|
06:50:08.791 INFO  CNS_DECIDE---BLP--             - <<--- 8=FIX.4.2|9=0053|35=0|49=BLP|56=CNS_DECIDE|34=68|52=20211006-23:50:08|10=094|
06:50:09.213 INFO  CNS_DECIDE---BLP--             - --->> 8=FIX.4.2|9=57|35=0|34=68|49=CNS_DECIDE|52=20211006-23:50:09.213|56=BLP|10=199|
06:51:08.791 INFO  CNS_DECIDE---BLP--             - <<--- 8=FIX.4.2|9=0053|35=0|49=BLP|56=CNS_DECIDE|34=69|52=20211006-23:51:08|10=096|
06:51:09.214 INFO  CNS_DECIDE---BLP--             - --->> 8=FIX.4.2|9=57|35=0|34=69|49=CNS_DECIDE|52=20211006-23:51:09.214|56=BLP|10=202|
06:52:08.791 INFO  CNS_DECIDE---BLP--             - <<--- 8=FIX.4.2|9=0053|35=0|49=BLP|56=CNS_DECIDE|34=70|52=20211006-23:52:08|10=089|
06:52:09.215 INFO  CNS_DECIDE---BLP--             - --->> 8=FIX.4.2|9=57|35=0|34=70|49=CNS_DECIDE|52=20211006-23:52:09.215|56=BLP|10=196|
06:53:08.791 INFO  CNS_DECIDE---BLP--             - <<--- 8=FIX.4.2|9=0053|35=0|49=BLP|56=CNS_DECIDE|34=71|52=20211006-23:53:08|10=091|
06:53:09.215 INFO  CNS_DECIDE---BLP--             - --->> 8=FIX.4.2|9=57|35=0|34=71|49=CNS_DECIDE|52=20211006-23:53:09.215|56=BLP|10=198|
06:54:08.792 INFO  CNS_DECIDE---BLP--             - <<--- 8=FIX.4.2|9=0053|35=0|49=BLP|56=CNS_DECIDE|34=72|52=20211006-23:54:08|10=093|
06:54:09.217 INFO  CNS_DECIDE---BLP--             - --->> 8=FIX.4.2|9=57|35=0|34=72|49=CNS_DECIDE|52=20211006-23:54:09.217|56=BLP|10=202|
06:55:08.784 INFO  CNS_DECIDE---BLP--             - <<--- 8=FIX.4.2|9=0053|35=0|49=BLP|56=CNS_DECIDE|34=73|52=20211006-23:55:08|10=095|
06:55:09.218 INFO  CNS_DECIDE---BLP--             - --->> 8=FIX.4.2|9=57|35=0|34=73|49=CNS_DECIDE|52=20211006-23:55:09.218|56=BLP|10=205|
06:56:08.785 INFO  CNS_DECIDE---BLP--             - <<--- 8=FIX.4.2|9=0053|35=0|49=BLP|56=CNS_DECIDE|34=74|52=20211006-23:56:08|10=097|
06:56:09.218 INFO  CNS_DECIDE---BLP--             - --->> 8=FIX.4.2|9=57|35=0|34=74|49=CNS_DECIDE|52=20211006-23:56:09.218|56=BLP|10=207|
06:57:08.785 INFO  CNS_DECIDE---BLP--             - <<--- 8=FIX.4.2|9=0053|35=0|49=BLP|56=CNS_DECIDE|34=75|52=20211006-23:57:08|10=099|
06:57:09.219 INFO  CNS_DECIDE---BLP--             - --->> 8=FIX.4.2|9=57|35=0|34=75|49=CNS_DECIDE|52=20211006-23:57:09.219|56=BLP|10=210|
06:58:08.785 INFO  CNS_DECIDE---BLP--             - <<--- 8=FIX.4.2|9=0053|35=0|49=BLP|56=CNS_DECIDE|34=76|52=20211006-23:58:08|10=101|
06:58:09.220 INFO  CNS_DECIDE---BLP--             - --->> 8=FIX.4.2|9=57|35=0|34=76|49=CNS_DECIDE|52=20211006-23:58:09.220|56=BLP|10=204|
06:59:08.786 INFO  CNS_DECIDE---BLP--             - <<--- 8=FIX.4.2|9=0053|35=0|49=BLP|56=CNS_DECIDE|34=77|52=20211006-23:59:08|10=103|
06:59:09.221 INFO  CNS_DECIDE---BLP--             - --->> 8=FIX.4.2|9=57|35=0|34=77|49=CNS_DECIDE|52=20211006-23:59:09.221|56=BLP|10=207|
07:00:08.786 INFO  CNS_DECIDE---BLP--             - <<--- 8=FIX.4.2|9=0053|35=0|49=BLP|56=CNS_DECIDE|34=78|52=20211007-00:00:08|10=086|
07:00:09.222 INFO  CNS_DECIDE---BLP--             - --->> 8=FIX.4.2|9=57|35=0|34=78|49=CNS_DECIDE|52=20211007-00:00:09.222|56=BLP|10=191|
07:01:08.786 INFO  CNS_DECIDE---BLP--             - <<--- 8=FIX.4.2|9=0053|35=0|49=BLP|56=CNS_DECIDE|34=79|52=20211007-00:01:08|10=088|
07:01:09.223 INFO  CNS_DECIDE---BLP--             - --->> 8=FIX.4.2|9=57|35=0|34=79|49=CNS_DECIDE|52=20211007-00:01:09.223|56=BLP|10=194|
07:02:08.786 INFO  CNS_DECIDE---BLP--             - <<--- 8=FIX.4.2|9=0053|35=0|49=BLP|56=CNS_DECIDE|34=80|52=20211007-00:02:08|10=081|
07:02:09.223 INFO  CNS_DECIDE---BLP--             - --->> 8=FIX.4.2|9=57|35=0|34=80|49=CNS_DECIDE|52=20211007-00:02:09.223|56=BLP|10=187|
07:03:08.787 INFO  CNS_DECIDE---BLP--             - <<--- 8=FIX.4.2|9=0053|35=0|49=BLP|56=CNS_DECIDE|34=81|52=20211007-00:03:08|10=083|
07:03:09.225 INFO  CNS_DECIDE---BLP--             - --->> 8=FIX.4.2|9=57|35=0|34=81|49=CNS_DECIDE|52=20211007-00:03:09.225|56=BLP|10=191|
07:04:08.786 INFO  CNS_DECIDE---BLP--             - <<--- 8=FIX.4.2|9=0053|35=0|49=BLP|56=CNS_DECIDE|34=82|52=20211007-00:04:08|10=085|
07:04:09.225 INFO  CNS_DECIDE---BLP--             - --->> 8=FIX.4.2|9=57|35=0|34=82|49=CNS_DECIDE|52=20211007-00:04:09.225|56=BLP|10=193|
07:05:08.788 INFO  CNS_DECIDE---BLP--             - <<--- 8=FIX.4.2|9=0053|35=0|49=BLP|56=CNS_DECIDE|34=83|52=20211007-00:05:08|10=087|
07:05:09.227 INFO  CNS_DECIDE---BLP--             - --->> 8=FIX.4.2|9=57|35=0|34=83|49=CNS_DECIDE|52=20211007-00:05:09.227|56=BLP|10=197|
07:06:08.789 INFO  CNS_DECIDE---BLP--             - <<--- 8=FIX.4.2|9=0053|35=0|49=BLP|56=CNS_DECIDE|34=84|52=20211007-00:06:08|10=089|
07:06:09.227 INFO  CNS_DECIDE---BLP--             - --->> 8=FIX.4.2|9=57|35=0|34=84|49=CNS_DECIDE|52=20211007-00:06:09.227|56=BLP|10=199|
07:07:08.787 INFO  CNS_DECIDE---BLP--             - <<--- 8=FIX.4.2|9=0053|35=0|49=BLP|56=CNS_DECIDE|34=85|52=20211007-00:07:08|10=091|
07:07:09.226 INFO  CNS_DECIDE---BLP--             - --->> 8=FIX.4.2|9=57|35=0|34=85|49=CNS_DECIDE|52=20211007-00:07:09.226|56=BLP|10=200|
07:08:08.787 INFO  CNS_DECIDE---BLP--             - <<--- 8=FIX.4.2|9=0053|35=0|49=BLP|56=CNS_DECIDE|34=86|52=20211007-00:08:08|10=093|
07:08:09.227 INFO  CNS_DECIDE---BLP--             - --->> 8=FIX.4.2|9=57|35=0|34=86|49=CNS_DECIDE|52=20211007-00:08:09.227|56=BLP|10=203|
07:09:08.787 INFO  CNS_DECIDE---BLP--             - <<--- 8=FIX.4.2|9=0053|35=0|49=BLP|56=CNS_DECIDE|34=87|52=20211007-00:09:08|10=095|
07:09:09.228 INFO  CNS_DECIDE---BLP--             - --->> 8=FIX.4.2|9=57|35=0|34=87|49=CNS_DECIDE|52=20211007-00:09:09.228|56=BLP|10=206|
07:10:08.787 INFO  CNS_DECIDE---BLP--             - <<--- 8=FIX.4.2|9=0053|35=0|49=BLP|56=CNS_DECIDE|34=88|52=20211007-00:10:08|10=088|
07:10:09.230 INFO  CNS_DECIDE---BLP--             - --->> 8=FIX.4.2|9=57|35=0|34=88|49=CNS_DECIDE|52=20211007-00:10:09.230|56=BLP|10=192|
07:11:08.787 INFO  CNS_DECIDE---BLP--             - <<--- 8=FIX.4.2|9=0053|35=0|49=BLP|56=CNS_DECIDE|34=89|52=20211007-00:11:08|10=090|
07:11:09.229 INFO  CNS_DECIDE---BLP--             - --->> 8=FIX.4.2|9=57|35=0|34=89|49=CNS_DECIDE|52=20211007-00:11:09.229|56=BLP|10=202|
07:12:08.788 INFO  CNS_DECIDE---BLP--             - <<--- 8=FIX.4.2|9=0053|35=0|49=BLP|56=CNS_DECIDE|34=90|52=20211007-00:12:08|10=083|
07:12:09.231 INFO  CNS_DECIDE---BLP--             - --->> 8=FIX.4.2|9=57|35=0|34=90|49=CNS_DECIDE|52=20211007-00:12:09.231|56=BLP|10=188|
07:13:08.789 INFO  CNS_DECIDE---BLP--             - <<--- 8=FIX.4.2|9=0053|35=0|49=BLP|56=CNS_DECIDE|34=91|52=20211007-00:13:08|10=085|
07:13:09.231 INFO  CNS_DECIDE---BLP--             - --->> 8=FIX.4.2|9=57|35=0|34=91|49=CNS_DECIDE|52=20211007-00:13:09.231|56=BLP|10=190|
07:14:08.789 INFO  CNS_DECIDE---BLP--             - <<--- 8=FIX.4.2|9=0053|35=0|49=BLP|56=CNS_DECIDE|34=92|52=20211007-00:14:08|10=087|
07:14:09.232 INFO  CNS_DECIDE---BLP--             - --->> 8=FIX.4.2|9=57|35=0|34=92|49=CNS_DECIDE|52=20211007-00:14:09.232|56=BLP|10=193|
07:15:08.782 INFO  CNS_DECIDE---BLP--             - <<--- 8=FIX.4.2|9=0053|35=0|49=BLP|56=CNS_DECIDE|34=93|52=20211007-00:15:08|10=089|
07:15:09.233 INFO  CNS_DECIDE---BLP--             - --->> 8=FIX.4.2|9=57|35=0|34=93|49=CNS_DECIDE|52=20211007-00:15:09.233|56=BLP|10=196|
07:16:08.782 INFO  CNS_DECIDE---BLP--             - <<--- 8=FIX.4.2|9=0053|35=0|49=BLP|56=CNS_DECIDE|34=94|52=20211007-00:16:08|10=091|
07:16:09.234 INFO  CNS_DECIDE---BLP--             - --->> 8=FIX.4.2|9=57|35=0|34=94|49=CNS_DECIDE|52=20211007-00:16:09.234|56=BLP|10=199|
07:17:08.783 INFO  CNS_DECIDE---BLP--             - <<--- 8=FIX.4.2|9=0053|35=0|49=BLP|56=CNS_DECIDE|34=95|52=20211007-00:17:08|10=093|
07:17:09.236 INFO  CNS_DECIDE---BLP--             - --->> 8=FIX.4.2|9=57|35=0|34=95|49=CNS_DECIDE|52=20211007-00:17:09.236|56=BLP|10=203|
07:18:08.782 INFO  CNS_DECIDE---BLP--             - <<--- 8=FIX.4.2|9=0053|35=0|49=BLP|56=CNS_DECIDE|34=96|52=20211007-00:18:08|10=095|
07:18:09.236 INFO  CNS_DECIDE---BLP--             - --->> 8=FIX.4.2|9=57|35=0|34=96|49=CNS_DECIDE|52=20211007-00:18:09.236|56=BLP|10=205|
07:19:08.784 INFO  CNS_DECIDE---BLP--             - <<--- 8=FIX.4.2|9=0053|35=0|49=BLP|56=CNS_DECIDE|34=97|52=20211007-00:19:08|10=097|
07:19:09.236 INFO  CNS_DECIDE---BLP--             - --->> 8=FIX.4.2|9=57|35=0|34=97|49=CNS_DECIDE|52=20211007-00:19:09.236|56=BLP|10=207|
07:20:08.783 INFO  CNS_DECIDE---BLP--             - <<--- 8=FIX.4.2|9=0053|35=0|49=BLP|56=CNS_DECIDE|34=98|52=20211007-00:20:08|10=090|
07:20:09.237 INFO  CNS_DECIDE---BLP--             - --->> 8=FIX.4.2|9=57|35=0|34=98|49=CNS_DECIDE|52=20211007-00:20:09.237|56=BLP|10=201|
07:21:08.783 INFO  CNS_DECIDE---BLP--             - <<--- 8=FIX.4.2|9=0053|35=0|49=BLP|56=CNS_DECIDE|34=99|52=20211007-00:21:08|10=092|
07:21:09.238 INFO  CNS_DECIDE---BLP--             - --->> 8=FIX.4.2|9=57|35=0|34=99|49=CNS_DECIDE|52=20211007-00:21:09.238|56=BLP|10=204|
07:22:08.783 INFO  CNS_DECIDE---BLP--             - <<--- 8=FIX.4.2|9=0054|35=0|49=BLP|56=CNS_DECIDE|34=100|52=20211007-00:22:08|10=125|
07:22:09.239 INFO  CNS_DECIDE---BLP--             - --->> 8=FIX.4.2|9=58|35=0|34=100|49=CNS_DECIDE|52=20211007-00:22:09.239|56=BLP|10=238|
07:23:08.798 INFO  CNS_DECIDE---BLP--             - <<--- 8=FIX.4.2|9=0054|35=0|49=BLP|56=CNS_DECIDE|34=101|52=20211007-00:23:08|10=127|
07:23:09.241 INFO  CNS_DECIDE---BLP--             - --->> 8=FIX.4.2|9=58|35=0|34=101|49=CNS_DECIDE|52=20211007-00:23:09.241|56=BLP|10=233|
07:24:08.784 INFO  CNS_DECIDE---BLP--             - <<--- 8=FIX.4.2|9=0054|35=0|49=BLP|56=CNS_DECIDE|34=102|52=20211007-00:24:08|10=129|
07:24:09.241 INFO  CNS_DECIDE---BLP--             - --->> 8=FIX.4.2|9=58|35=0|34=102|49=CNS_DECIDE|52=20211007-00:24:09.241|56=BLP|10=235|
07:25:08.786 INFO  CNS_DECIDE---BLP--             - <<--- 8=FIX.4.2|9=0054|35=0|49=BLP|56=CNS_DECIDE|34=103|52=20211007-00:25:08|10=131|
07:25:09.242 INFO  CNS_DECIDE---BLP--             - --->> 8=FIX.4.2|9=58|35=0|34=103|49=CNS_DECIDE|52=20211007-00:25:09.242|56=BLP|10=238|
07:26:08.786 INFO  CNS_DECIDE---BLP--             - <<--- 8=FIX.4.2|9=0054|35=0|49=BLP|56=CNS_DECIDE|34=104|52=20211007-00:26:08|10=133|
07:26:09.244 INFO  CNS_DECIDE---BLP--             - --->> 8=FIX.4.2|9=58|35=0|34=104|49=CNS_DECIDE|52=20211007-00:26:09.244|56=BLP|10=242|
07:27:08.787 INFO  CNS_DECIDE---BLP--             - <<--- 8=FIX.4.2|9=0054|35=0|49=BLP|56=CNS_DECIDE|34=105|52=20211007-00:27:08|10=135|
07:27:09.244 INFO  CNS_DECIDE---BLP--             - --->> 8=FIX.4.2|9=58|35=0|34=105|49=CNS_DECIDE|52=20211007-00:27:09.244|56=BLP|10=244|
07:28:08.787 INFO  CNS_DECIDE---BLP--             - <<--- 8=FIX.4.2|9=0054|35=0|49=BLP|56=CNS_DECIDE|34=106|52=20211007-00:28:08|10=137|
07:28:09.244 INFO  CNS_DECIDE---BLP--             - --->> 8=FIX.4.2|9=58|35=0|34=106|49=CNS_DECIDE|52=20211007-00:28:09.244|56=BLP|10=246|
07:29:08.788 INFO  CNS_DECIDE---BLP--             - <<--- 8=FIX.4.2|9=0054|35=0|49=BLP|56=CNS_DECIDE|34=107|52=20211007-00:29:08|10=139|
07:29:09.245 INFO  CNS_DECIDE---BLP--             - --->> 8=FIX.4.2|9=58|35=0|34=107|49=CNS_DECIDE|52=20211007-00:29:09.245|56=BLP|10=249|
07:30:08.788 INFO  CNS_DECIDE---BLP--             - <<--- 8=FIX.4.2|9=0054|35=0|49=BLP|56=CNS_DECIDE|34=108|52=20211007-00:30:08|10=132|
07:30:09.246 INFO  CNS_DECIDE---BLP--             - --->> 8=FIX.4.2|9=58|35=0|34=108|49=CNS_DECIDE|52=20211007-00:30:09.246|56=BLP|10=243|
07:31:08.791 INFO  CNS_DECIDE---BLP--             - <<--- 8=FIX.4.2|9=0054|35=0|49=BLP|56=CNS_DECIDE|34=109|52=20211007-00:31:08|10=134|
07:31:09.250 INFO  CNS_DECIDE---BLP--             - --->> 8=FIX.4.2|9=58|35=0|34=109|49=CNS_DECIDE|52=20211007-00:31:09.250|56=BLP|10=240|
07:32:08.791 INFO  CNS_DECIDE---BLP--             - <<--- 8=FIX.4.2|9=0054|35=0|49=BLP|56=CNS_DECIDE|34=110|52=20211007-00:32:08|10=127|
07:32:09.251 INFO  CNS_DECIDE---BLP--             - --->> 8=FIX.4.2|9=58|35=0|34=110|49=CNS_DECIDE|52=20211007-00:32:09.251|56=BLP|10=234|
07:33:08.791 INFO  CNS_DECIDE---BLP--             - <<--- 8=FIX.4.2|9=0054|35=0|49=BLP|56=CNS_DECIDE|34=111|52=20211007-00:33:08|10=129|
07:33:09.251 INFO  CNS_DECIDE---BLP--             - --->> 8=FIX.4.2|9=58|35=0|34=111|49=CNS_DECIDE|52=20211007-00:33:09.251|56=BLP|10=236|
07:34:08.792 INFO  CNS_DECIDE---BLP--             - <<--- 8=FIX.4.2|9=0054|35=0|49=BLP|56=CNS_DECIDE|34=112|52=20211007-00:34:08|10=131|
07:34:09.252 INFO  CNS_DECIDE---BLP--             - --->> 8=FIX.4.2|9=58|35=0|34=112|49=CNS_DECIDE|52=20211007-00:34:09.252|56=BLP|10=239|
07:35:08.792 INFO  CNS_DECIDE---BLP--             - <<--- 8=FIX.4.2|9=0054|35=0|49=BLP|56=CNS_DECIDE|34=113|52=20211007-00:35:08|10=133|
07:35:09.255 INFO  CNS_DECIDE---BLP--             - --->> 8=FIX.4.2|9=58|35=0|34=113|49=CNS_DECIDE|52=20211007-00:35:09.255|56=BLP|10=244|
07:36:08.792 INFO  CNS_DECIDE---BLP--             - <<--- 8=FIX.4.2|9=0054|35=0|49=BLP|56=CNS_DECIDE|34=114|52=20211007-00:36:08|10=135|
07:36:09.254 INFO  CNS_DECIDE---BLP--             - --->> 8=FIX.4.2|9=58|35=0|34=114|49=CNS_DECIDE|52=20211007-00:36:09.254|56=BLP|10=245|
07:37:08.793 INFO  CNS_DECIDE---BLP--             - <<--- 8=FIX.4.2|9=0054|35=0|49=BLP|56=CNS_DECIDE|34=115|52=20211007-00:37:08|10=137|
07:37:09.256 INFO  CNS_DECIDE---BLP--             - --->> 8=FIX.4.2|9=58|35=0|34=115|49=CNS_DECIDE|52=20211007-00:37:09.256|56=BLP|10=249|
07:38:08.792 INFO  CNS_DECIDE---BLP--             - <<--- 8=FIX.4.2|9=0054|35=0|49=BLP|56=CNS_DECIDE|34=116|52=20211007-00:38:08|10=139|
07:38:09.256 INFO  CNS_DECIDE---BLP--             - --->> 8=FIX.4.2|9=58|35=0|34=116|49=CNS_DECIDE|52=20211007-00:38:09.256|56=BLP|10=251|
07:39:08.793 INFO  CNS_DECIDE---BLP--             - <<--- 8=FIX.4.2|9=0054|35=0|49=BLP|56=CNS_DECIDE|34=117|52=20211007-00:39:08|10=141|
07:39:09.256 INFO  CNS_DECIDE---BLP--             - --->> 8=FIX.4.2|9=58|35=0|34=117|49=CNS_DECIDE|52=20211007-00:39:09.256|56=BLP|10=253|
07:40:08.794 INFO  CNS_DECIDE---BLP--             - <<--- 8=FIX.4.2|9=0054|35=0|49=BLP|56=CNS_DECIDE|34=118|52=20211007-00:40:08|10=134|
07:40:09.258 INFO  CNS_DECIDE---BLP--             - --->> 8=FIX.4.2|9=58|35=0|34=118|49=CNS_DECIDE|52=20211007-00:40:09.258|56=BLP|10=248|
07:41:08.795 INFO  CNS_DECIDE---BLP--             - <<--- 8=FIX.4.2|9=0054|35=0|49=BLP|56=CNS_DECIDE|34=119|52=20211007-00:41:08|10=136|
07:41:09.258 INFO  CNS_DECIDE---BLP--             - --->> 8=FIX.4.2|9=58|35=0|34=119|49=CNS_DECIDE|52=20211007-00:41:09.258|56=BLP|10=250|
07:42:08.794 INFO  CNS_DECIDE---BLP--             - <<--- 8=FIX.4.2|9=0054|35=0|49=BLP|56=CNS_DECIDE|34=120|52=20211007-00:42:08|10=129|
07:42:09.261 INFO  CNS_DECIDE---BLP--             - --->> 8=FIX.4.2|9=58|35=0|34=120|49=CNS_DECIDE|52=20211007-00:42:09.261|56=BLP|10=237|
07:43:08.794 INFO  CNS_DECIDE---BLP--             - <<--- 8=FIX.4.2|9=0054|35=0|49=BLP|56=CNS_DECIDE|34=121|52=20211007-00:43:08|10=131|
07:43:09.260 INFO  CNS_DECIDE---BLP--             - --->> 8=FIX.4.2|9=58|35=0|34=121|49=CNS_DECIDE|52=20211007-00:43:09.260|56=BLP|10=238|
07:44:08.794 INFO  CNS_DECIDE---BLP--             - <<--- 8=FIX.4.2|9=0054|35=0|49=BLP|56=CNS_DECIDE|34=122|52=20211007-00:44:08|10=133|
07:44:09.262 INFO  CNS_DECIDE---BLP--             - --->> 8=FIX.4.2|9=58|35=0|34=122|49=CNS_DECIDE|52=20211007-00:44:09.262|56=BLP|10=242|
07:45:08.793 INFO  CNS_DECIDE---BLP--             - <<--- 8=FIX.4.2|9=0054|35=0|49=BLP|56=CNS_DECIDE|34=123|52=20211007-00:45:08|10=135|
07:45:09.262 INFO  CNS_DECIDE---BLP--             - --->> 8=FIX.4.2|9=58|35=0|34=123|49=CNS_DECIDE|52=20211007-00:45:09.262|56=BLP|10=244|
07:46:08.794 INFO  CNS_DECIDE---BLP--             - <<--- 8=FIX.4.2|9=0054|35=0|49=BLP|56=CNS_DECIDE|34=124|52=20211007-00:46:08|10=137|
07:46:09.263 INFO  CNS_DECIDE---BLP--             - --->> 8=FIX.4.2|9=58|35=0|34=124|49=CNS_DECIDE|52=20211007-00:46:09.263|56=BLP|10=247|
07:47:08.794 INFO  CNS_DECIDE---BLP--             - <<--- 8=FIX.4.2|9=0054|35=0|49=BLP|56=CNS_DECIDE|34=125|52=20211007-00:47:08|10=139|
07:47:09.264 INFO  CNS_DECIDE---BLP--             - --->> 8=FIX.4.2|9=58|35=0|34=125|49=CNS_DECIDE|52=20211007-00:47:09.264|56=BLP|10=250|
07:48:08.794 INFO  CNS_DECIDE---BLP--             - <<--- 8=FIX.4.2|9=0054|35=0|49=BLP|56=CNS_DECIDE|34=126|52=20211007-00:48:08|10=141|
07:48:09.266 INFO  CNS_DECIDE---BLP--             - --->> 8=FIX.4.2|9=58|35=0|34=126|49=CNS_DECIDE|52=20211007-00:48:09.266|56=BLP|10=254|
07:49:08.795 INFO  CNS_DECIDE---BLP--             - <<--- 8=FIX.4.2|9=0054|35=0|49=BLP|56=CNS_DECIDE|34=127|52=20211007-00:49:08|10=143|
07:49:09.265 INFO  CNS_DECIDE---BLP--             - --->> 8=FIX.4.2|9=58|35=0|34=127|49=CNS_DECIDE|52=20211007-00:49:09.265|56=BLP|10=255|
07:50:08.795 INFO  CNS_DECIDE---BLP--             - <<--- 8=FIX.4.2|9=0054|35=0|49=BLP|56=CNS_DECIDE|34=128|52=20211007-00:50:08|10=136|
07:50:09.268 INFO  CNS_DECIDE---BLP--             - --->> 8=FIX.4.2|9=58|35=0|34=128|49=CNS_DECIDE|52=20211007-00:50:09.268|56=BLP|10=251|
07:51:08.796 INFO  CNS_DECIDE---BLP--             - <<--- 8=FIX.4.2|9=0054|35=0|49=BLP|56=CNS_DECIDE|34=129|52=20211007-00:51:08|10=138|
07:51:09.269 INFO  CNS_DECIDE---BLP--             - --->> 8=FIX.4.2|9=58|35=0|34=129|49=CNS_DECIDE|52=20211007-00:51:09.269|56=BLP|10=254|
07:52:08.795 INFO  CNS_DECIDE---BLP--             - <<--- 8=FIX.4.2|9=0054|35=0|49=BLP|56=CNS_DECIDE|34=130|52=20211007-00:52:08|10=131|
07:52:09.269 INFO  CNS_DECIDE---BLP--             - --->> 8=FIX.4.2|9=58|35=0|34=130|49=CNS_DECIDE|52=20211007-00:52:09.269|56=BLP|10=247|
07:53:08.796 INFO  CNS_DECIDE---BLP--             - <<--- 8=FIX.4.2|9=0054|35=0|49=BLP|56=CNS_DECIDE|34=131|52=20211007-00:53:08|10=133|
07:53:09.270 INFO  CNS_DECIDE---BLP--             - --->> 8=FIX.4.2|9=58|35=0|34=131|49=CNS_DECIDE|52=20211007-00:53:09.270|56=BLP|10=241|
07:54:08.796 INFO  CNS_DECIDE---BLP--             - <<--- 8=FIX.4.2|9=0054|35=0|49=BLP|56=CNS_DECIDE|34=132|52=20211007-00:54:08|10=135|
07:54:09.270 INFO  CNS_DECIDE---BLP--             - --->> 8=FIX.4.2|9=58|35=0|34=132|49=CNS_DECIDE|52=20211007-00:54:09.270|56=BLP|10=243|
07:55:08.796 INFO  CNS_DECIDE---BLP--             - <<--- 8=FIX.4.2|9=0054|35=0|49=BLP|56=CNS_DECIDE|34=133|52=20211007-00:55:08|10=137|
07:55:09.272 INFO  CNS_DECIDE---BLP--             - --->> 8=FIX.4.2|9=58|35=0|34=133|49=CNS_DECIDE|52=20211007-00:55:09.272|56=BLP|10=247|
07:56:08.796 INFO  CNS_DECIDE---BLP--             - <<--- 8=FIX.4.2|9=0054|35=0|49=BLP|56=CNS_DECIDE|34=134|52=20211007-00:56:08|10=139|
07:56:09.271 INFO  CNS_DECIDE---BLP--             - --->> 8=FIX.4.2|9=58|35=0|34=134|49=CNS_DECIDE|52=20211007-00:56:09.271|56=BLP|10=248|
07:57:08.797 INFO  CNS_DECIDE---BLP--             - <<--- 8=FIX.4.2|9=0054|35=0|49=BLP|56=CNS_DECIDE|34=135|52=20211007-00:57:08|10=141|
07:57:09.273 INFO  CNS_DECIDE---BLP--             - --->> 8=FIX.4.2|9=58|35=0|34=135|49=CNS_DECIDE|52=20211007-00:57:09.273|56=BLP|10=252|
07:58:08.796 INFO  CNS_DECIDE---BLP--             - <<--- 8=FIX.4.2|9=0054|35=0|49=BLP|56=CNS_DECIDE|34=136|52=20211007-00:58:08|10=143|
07:58:09.275 INFO  CNS_DECIDE---BLP--             - --->> 8=FIX.4.2|9=58|35=0|34=136|49=CNS_DECIDE|52=20211007-00:58:09.275|56=BLP|10=000|
07:59:08.797 INFO  CNS_DECIDE---BLP--             - <<--- 8=FIX.4.2|9=0054|35=0|49=BLP|56=CNS_DECIDE|34=137|52=20211007-00:59:08|10=145|
07:59:09.276 INFO  CNS_DECIDE---BLP--             - --->> 8=FIX.4.2|9=58|35=0|34=137|49=CNS_DECIDE|52=20211007-00:59:09.276|56=BLP|10=003|
08:00:08.797 INFO  CNS_DECIDE---BLP--             - <<--- 8=FIX.4.2|9=0054|35=0|49=BLP|56=CNS_DECIDE|34=138|52=20211007-01:00:08|10=133|
08:00:09.277 INFO  CNS_DECIDE---BLP--             - --->> 8=FIX.4.2|9=58|35=0|34=138|49=CNS_DECIDE|52=20211007-01:00:09.277|56=BLP|10=248|
08:01:08.798 INFO  CNS_DECIDE---BLP--             - <<--- 8=FIX.4.2|9=0054|35=0|49=BLP|56=CNS_DECIDE|34=139|52=20211007-01:01:08|10=135|
08:01:09.276 INFO  CNS_DECIDE---BLP--             - --->> 8=FIX.4.2|9=58|35=0|34=139|49=CNS_DECIDE|52=20211007-01:01:09.276|56=BLP|10=249|
08:02:08.798 INFO  CNS_DECIDE---BLP--             - <<--- 8=FIX.4.2|9=0054|35=0|49=BLP|56=CNS_DECIDE|34=140|52=20211007-01:02:08|10=128|
08:02:09.277 INFO  CNS_DECIDE---BLP--             - --->> 8=FIX.4.2|9=58|35=0|34=140|49=CNS_DECIDE|52=20211007-01:02:09.277|56=BLP|10=243|
08:03:08.799 INFO  CNS_DECIDE---BLP--             - <<--- 8=FIX.4.2|9=0054|35=0|49=BLP|56=CNS_DECIDE|34=141|52=20211007-01:03:08|10=130|
08:03:09.280 INFO  CNS_DECIDE---BLP--             - --->> 8=FIX.4.2|9=58|35=0|34=141|49=CNS_DECIDE|52=20211007-01:03:09.280|56=BLP|10=239|
08:04:08.798 INFO  CNS_DECIDE---BLP--             - <<--- 8=FIX.4.2|9=0054|35=0|49=BLP|56=CNS_DECIDE|34=142|52=20211007-01:04:08|10=132|
08:04:09.279 INFO  CNS_DECIDE---BLP--             - --->> 8=FIX.4.2|9=58|35=0|34=142|49=CNS_DECIDE|52=20211007-01:04:09.279|56=BLP|10=249|
08:05:08.800 INFO  CNS_DECIDE---BLP--             - <<--- 8=FIX.4.2|9=0054|35=0|49=BLP|56=CNS_DECIDE|34=143|52=20211007-01:05:08|10=134|
08:05:09.280 INFO  CNS_DECIDE---BLP--             - --->> 8=FIX.4.2|9=58|35=0|34=143|49=CNS_DECIDE|52=20211007-01:05:09.280|56=BLP|10=243|
08:06:08.800 INFO  CNS_DECIDE---BLP--             - <<--- 8=FIX.4.2|9=0054|35=0|49=BLP|56=CNS_DECIDE|34=144|52=20211007-01:06:08|10=136|
08:06:09.282 INFO  CNS_DECIDE---BLP--             - --->> 8=FIX.4.2|9=58|35=0|34=144|49=CNS_DECIDE|52=20211007-01:06:09.282|56=BLP|10=247|
08:07:08.801 INFO  CNS_DECIDE---BLP--             - <<--- 8=FIX.4.2|9=0054|35=0|49=BLP|56=CNS_DECIDE|34=145|52=20211007-01:07:08|10=138|
08:07:09.283 INFO  CNS_DECIDE---BLP--             - --->> 8=FIX.4.2|9=58|35=0|34=145|49=CNS_DECIDE|52=20211007-01:07:09.283|56=BLP|10=250|
08:08:08.803 INFO  CNS_DECIDE---BLP--             - <<--- 8=FIX.4.2|9=0054|35=0|49=BLP|56=CNS_DECIDE|34=146|52=20211007-01:08:08|10=140|
08:08:09.283 INFO  CNS_DECIDE---BLP--             - --->> 8=FIX.4.2|9=58|35=0|34=146|49=CNS_DECIDE|52=20211007-01:08:09.283|56=BLP|10=252|
08:09:08.801 INFO  CNS_DECIDE---BLP--             - <<--- 8=FIX.4.2|9=0054|35=0|49=BLP|56=CNS_DECIDE|34=147|52=20211007-01:09:08|10=142|
08:09:09.283 INFO  CNS_DECIDE---BLP--             - --->> 8=FIX.4.2|9=58|35=0|34=147|49=CNS_DECIDE|52=20211007-01:09:09.283|56=BLP|10=254|
08:10:08.800 INFO  CNS_DECIDE---BLP--             - <<--- 8=FIX.4.2|9=0054|35=0|49=BLP|56=CNS_DECIDE|34=148|52=20211007-01:10:08|10=135|
08:10:09.283 INFO  CNS_DECIDE---BLP--             - --->> 8=FIX.4.2|9=58|35=0|34=148|49=CNS_DECIDE|52=20211007-01:10:09.283|56=BLP|10=247|
08:11:08.799 INFO  CNS_DECIDE---BLP--             - <<--- 8=FIX.4.2|9=0054|35=0|49=BLP|56=CNS_DECIDE|34=149|52=20211007-01:11:08|10=137|
08:11:09.283 INFO  CNS_DECIDE---BLP--             - --->> 8=FIX.4.2|9=58|35=0|34=149|49=CNS_DECIDE|52=20211007-01:11:09.283|56=BLP|10=249|
08:12:08.799 INFO  CNS_DECIDE---BLP--             - <<--- 8=FIX.4.2|9=0054|35=0|49=BLP|56=CNS_DECIDE|34=150|52=20211007-01:12:08|10=130|
08:12:09.284 INFO  CNS_DECIDE---BLP--             - --->> 8=FIX.4.2|9=58|35=0|34=150|49=CNS_DECIDE|52=20211007-01:12:09.284|56=BLP|10=243|
08:13:08.800 INFO  CNS_DECIDE---BLP--             - <<--- 8=FIX.4.2|9=0054|35=0|49=BLP|56=CNS_DECIDE|34=151|52=20211007-01:13:08|10=132|
08:13:09.286 INFO  CNS_DECIDE---BLP--             - --->> 8=FIX.4.2|9=58|35=0|34=151|49=CNS_DECIDE|52=20211007-01:13:09.286|56=BLP|10=247|
08:14:08.800 INFO  CNS_DECIDE---BLP--             - <<--- 8=FIX.4.2|9=0054|35=0|49=BLP|56=CNS_DECIDE|34=152|52=20211007-01:14:08|10=134|
08:14:09.285 INFO  CNS_DECIDE---BLP--             - --->> 8=FIX.4.2|9=58|35=0|34=152|49=CNS_DECIDE|52=20211007-01:14:09.285|56=BLP|10=248|
08:15:08.809 INFO  CNS_DECIDE---BLP--             - <<--- 8=FIX.4.2|9=0054|35=0|49=BLP|56=CNS_DECIDE|34=153|52=20211007-01:15:08|10=136|
08:15:09.286 INFO  CNS_DECIDE---BLP--             - --->> 8=FIX.4.2|9=58|35=0|34=153|49=CNS_DECIDE|52=20211007-01:15:09.286|56=BLP|10=251|
08:16:08.810 INFO  CNS_DECIDE---BLP--             - <<--- 8=FIX.4.2|9=0054|35=0|49=BLP|56=CNS_DECIDE|34=154|52=20211007-01:16:08|10=138|
08:16:09.290 INFO  CNS_DECIDE---BLP--             - --->> 8=FIX.4.2|9=58|35=0|34=154|49=CNS_DECIDE|52=20211007-01:16:09.290|56=BLP|10=248|
08:17:08.810 INFO  CNS_DECIDE---BLP--             - <<--- 8=FIX.4.2|9=0054|35=0|49=BLP|56=CNS_DECIDE|34=155|52=20211007-01:17:08|10=140|
08:17:09.291 INFO  CNS_DECIDE---BLP--             - --->> 8=FIX.4.2|9=58|35=0|34=155|49=CNS_DECIDE|52=20211007-01:17:09.291|56=BLP|10=251|
08:18:08.811 INFO  CNS_DECIDE---BLP--             - <<--- 8=FIX.4.2|9=0054|35=0|49=BLP|56=CNS_DECIDE|34=156|52=20211007-01:18:08|10=142|
08:18:09.292 INFO  CNS_DECIDE---BLP--             - --->> 8=FIX.4.2|9=58|35=0|34=156|49=CNS_DECIDE|52=20211007-01:18:09.292|56=BLP|10=254|
08:19:08.810 INFO  CNS_DECIDE---BLP--             - <<--- 8=FIX.4.2|9=0054|35=0|49=BLP|56=CNS_DECIDE|34=157|52=20211007-01:19:08|10=144|
08:19:09.293 INFO  CNS_DECIDE---BLP--             - --->> 8=FIX.4.2|9=58|35=0|34=157|49=CNS_DECIDE|52=20211007-01:19:09.293|56=BLP|10=001|
08:20:08.811 INFO  CNS_DECIDE---BLP--             - <<--- 8=FIX.4.2|9=0054|35=0|49=BLP|56=CNS_DECIDE|34=158|52=20211007-01:20:08|10=137|
08:20:09.295 INFO  CNS_DECIDE---BLP--             - --->> 8=FIX.4.2|9=58|35=0|34=158|49=CNS_DECIDE|52=20211007-01:20:09.295|56=BLP|10=252|
08:21:08.812 INFO  CNS_DECIDE---BLP--             - <<--- 8=FIX.4.2|9=0054|35=0|49=BLP|56=CNS_DECIDE|34=159|52=20211007-01:21:08|10=139|
08:21:09.295 INFO  CNS_DECIDE---BLP--             - --->> 8=FIX.4.2|9=58|35=0|34=159|49=CNS_DECIDE|52=20211007-01:21:09.295|56=BLP|10=254|
08:22:08.812 INFO  CNS_DECIDE---BLP--             - <<--- 8=FIX.4.2|9=0054|35=0|49=BLP|56=CNS_DECIDE|34=160|52=20211007-01:22:08|10=132|
08:22:09.297 INFO  CNS_DECIDE---BLP--             - --->> 8=FIX.4.2|9=58|35=0|34=160|49=CNS_DECIDE|52=20211007-01:22:09.297|56=BLP|10=249|
08:23:08.812 INFO  CNS_DECIDE---BLP--             - <<--- 8=FIX.4.2|9=0054|35=0|49=BLP|56=CNS_DECIDE|34=161|52=20211007-01:23:08|10=134|
08:23:09.296 INFO  CNS_DECIDE---BLP--             - --->> 8=FIX.4.2|9=58|35=0|34=161|49=CNS_DECIDE|52=20211007-01:23:09.296|56=BLP|10=250|
08:24:08.813 INFO  CNS_DECIDE---BLP--             - <<--- 8=FIX.4.2|9=0054|35=0|49=BLP|56=CNS_DECIDE|34=162|52=20211007-01:24:08|10=136|
08:24:09.297 INFO  CNS_DECIDE---BLP--             - --->> 8=FIX.4.2|9=58|35=0|34=162|49=CNS_DECIDE|52=20211007-01:24:09.297|56=BLP|10=253|
08:25:08.813 INFO  CNS_DECIDE---BLP--             - <<--- 8=FIX.4.2|9=0054|35=0|49=BLP|56=CNS_DECIDE|34=163|52=20211007-01:25:08|10=138|
08:25:09.298 INFO  CNS_DECIDE---BLP--             - --->> 8=FIX.4.2|9=58|35=0|34=163|49=CNS_DECIDE|52=20211007-01:25:09.298|56=BLP|10=000|
08:26:08.813 INFO  CNS_DECIDE---BLP--             - <<--- 8=FIX.4.2|9=0054|35=0|49=BLP|56=CNS_DECIDE|34=164|52=20211007-01:26:08|10=140|
08:26:09.299 INFO  CNS_DECIDE---BLP--             - --->> 8=FIX.4.2|9=58|35=0|34=164|49=CNS_DECIDE|52=20211007-01:26:09.299|56=BLP|10=003|
08:27:08.813 INFO  CNS_DECIDE---BLP--             - <<--- 8=FIX.4.2|9=0054|35=0|49=BLP|56=CNS_DECIDE|34=165|52=20211007-01:27:08|10=142|
08:27:09.300 INFO  CNS_DECIDE---BLP--             - --->> 8=FIX.4.2|9=58|35=0|34=165|49=CNS_DECIDE|52=20211007-01:27:09.300|56=BLP|10=244|
08:28:08.814 INFO  CNS_DECIDE---BLP--             - <<--- 8=FIX.4.2|9=0054|35=0|49=BLP|56=CNS_DECIDE|34=166|52=20211007-01:28:08|10=144|
08:28:09.302 INFO  CNS_DECIDE---BLP--             - --->> 8=FIX.4.2|9=58|35=0|34=166|49=CNS_DECIDE|52=20211007-01:28:09.302|56=BLP|10=248|
08:29:08.815 INFO  CNS_DECIDE---BLP--             - <<--- 8=FIX.4.2|9=0054|35=0|49=BLP|56=CNS_DECIDE|34=167|52=20211007-01:29:08|10=146|
08:29:09.302 INFO  CNS_DECIDE---BLP--             - --->> 8=FIX.4.2|9=58|35=0|34=167|49=CNS_DECIDE|52=20211007-01:29:09.302|56=BLP|10=250|
08:30:08.814 INFO  CNS_DECIDE---BLP--             - <<--- 8=FIX.4.2|9=0054|35=0|49=BLP|56=CNS_DECIDE|34=168|52=20211007-01:30:08|10=139|
08:30:09.303 INFO  CNS_DECIDE---BLP--             - --->> 8=FIX.4.2|9=58|35=0|34=168|49=CNS_DECIDE|52=20211007-01:30:09.303|56=BLP|10=244|
08:31:08.815 INFO  CNS_DECIDE---BLP--             - <<--- 8=FIX.4.2|9=0054|35=0|49=BLP|56=CNS_DECIDE|34=169|52=20211007-01:31:08|10=141|
08:31:09.303 INFO  CNS_DECIDE---BLP--             - --->> 8=FIX.4.2|9=58|35=0|34=169|49=CNS_DECIDE|52=20211007-01:31:09.303|56=BLP|10=246|
08:32:08.816 INFO  CNS_DECIDE---BLP--             - <<--- 8=FIX.4.2|9=0054|35=0|49=BLP|56=CNS_DECIDE|34=170|52=20211007-01:32:08|10=134|
08:32:09.305 INFO  CNS_DECIDE---BLP--             - --->> 8=FIX.4.2|9=58|35=0|34=170|49=CNS_DECIDE|52=20211007-01:32:09.305|56=BLP|10=241|
08:33:08.816 INFO  CNS_DECIDE---BLP--             - <<--- 8=FIX.4.2|9=0054|35=0|49=BLP|56=CNS_DECIDE|34=171|52=20211007-01:33:08|10=136|
08:33:09.306 INFO  CNS_DECIDE---BLP--             - --->> 8=FIX.4.2|9=58|35=0|34=171|49=CNS_DECIDE|52=20211007-01:33:09.306|56=BLP|10=244|
08:34:08.816 INFO  CNS_DECIDE---BLP--             - <<--- 8=FIX.4.2|9=0054|35=0|49=BLP|56=CNS_DECIDE|34=172|52=20211007-01:34:08|10=138|
08:34:09.306 INFO  CNS_DECIDE---BLP--             - --->> 8=FIX.4.2|9=58|35=0|34=172|49=CNS_DECIDE|52=20211007-01:34:09.306|56=BLP|10=246|
08:35:08.819 INFO  CNS_DECIDE---BLP--             - <<--- 8=FIX.4.2|9=0054|35=0|49=BLP|56=CNS_DECIDE|34=173|52=20211007-01:35:08|10=140|
08:35:09.306 INFO  CNS_DECIDE---BLP--             - --->> 8=FIX.4.2|9=58|35=0|34=173|49=CNS_DECIDE|52=20211007-01:35:09.306|56=BLP|10=248|
08:36:08.815 INFO  CNS_DECIDE---BLP--             - <<--- 8=FIX.4.2|9=0054|35=0|49=BLP|56=CNS_DECIDE|34=174|52=20211007-01:36:08|10=142|
08:36:09.308 INFO  CNS_DECIDE---BLP--             - --->> 8=FIX.4.2|9=58|35=0|34=174|49=CNS_DECIDE|52=20211007-01:36:09.308|56=BLP|10=252|
08:37:08.815 INFO  CNS_DECIDE---BLP--             - <<--- 8=FIX.4.2|9=0054|35=0|49=BLP|56=CNS_DECIDE|34=175|52=20211007-01:37:08|10=144|
08:37:09.309 INFO  CNS_DECIDE---BLP--             - --->> 8=FIX.4.2|9=58|35=0|34=175|49=CNS_DECIDE|52=20211007-01:37:09.309|56=BLP|10=255|
08:38:08.815 INFO  CNS_DECIDE---BLP--             - <<--- 8=FIX.4.2|9=0054|35=0|49=BLP|56=CNS_DECIDE|34=176|52=20211007-01:38:08|10=146|
08:38:09.309 INFO  CNS_DECIDE---BLP--             - --->> 8=FIX.4.2|9=58|35=0|34=176|49=CNS_DECIDE|52=20211007-01:38:09.309|56=BLP|10=001|
08:39:08.816 INFO  CNS_DECIDE---BLP--             - <<--- 8=FIX.4.2|9=0054|35=0|49=BLP|56=CNS_DECIDE|34=177|52=20211007-01:39:08|10=148|
08:39:09.311 INFO  CNS_DECIDE---BLP--             - --->> 8=FIX.4.2|9=58|35=0|34=177|49=CNS_DECIDE|52=20211007-01:39:09.311|56=BLP|10=252|
08:40:08.816 INFO  CNS_DECIDE---BLP--             - <<--- 8=FIX.4.2|9=0054|35=0|49=BLP|56=CNS_DECIDE|34=178|52=20211007-01:40:08|10=141|
08:40:09.312 INFO  CNS_DECIDE---BLP--             - --->> 8=FIX.4.2|9=58|35=0|34=178|49=CNS_DECIDE|52=20211007-01:40:09.312|56=BLP|10=246|
08:41:08.816 INFO  CNS_DECIDE---BLP--             - <<--- 8=FIX.4.2|9=0054|35=0|49=BLP|56=CNS_DECIDE|34=179|52=20211007-01:41:08|10=143|
08:41:09.312 INFO  CNS_DECIDE---BLP--             - --->> 8=FIX.4.2|9=58|35=0|34=179|49=CNS_DECIDE|52=20211007-01:41:09.312|56=BLP|10=248|
08:42:08.816 INFO  CNS_DECIDE---BLP--             - <<--- 8=FIX.4.2|9=0054|35=0|49=BLP|56=CNS_DECIDE|34=180|52=20211007-01:42:08|10=136|
08:42:09.313 INFO  CNS_DECIDE---BLP--             - --->> 8=FIX.4.2|9=58|35=0|34=180|49=CNS_DECIDE|52=20211007-01:42:09.313|56=BLP|10=242|
08:43:08.817 INFO  CNS_DECIDE---BLP--             - <<--- 8=FIX.4.2|9=0054|35=0|49=BLP|56=CNS_DECIDE|34=181|52=20211007-01:43:08|10=138|
08:43:09.314 INFO  CNS_DECIDE---BLP--             - --->> 8=FIX.4.2|9=58|35=0|34=181|49=CNS_DECIDE|52=20211007-01:43:09.314|56=BLP|10=245|
08:44:08.817 INFO  CNS_DECIDE---BLP--             - <<--- 8=FIX.4.2|9=0054|35=0|49=BLP|56=CNS_DECIDE|34=182|52=20211007-01:44:08|10=140|
08:44:09.315 INFO  CNS_DECIDE---BLP--             - --->> 8=FIX.4.2|9=58|35=0|34=182|49=CNS_DECIDE|52=20211007-01:44:09.315|56=BLP|10=248|
08:45:08.812 INFO  CNS_DECIDE---BLP--             - <<--- 8=FIX.4.2|9=0054|35=0|49=BLP|56=CNS_DECIDE|34=183|52=20211007-01:45:08|10=142|
08:45:09.316 INFO  CNS_DECIDE---BLP--             - --->> 8=FIX.4.2|9=58|35=0|34=183|49=CNS_DECIDE|52=20211007-01:45:09.316|56=BLP|10=251|
08:46:08.812 INFO  CNS_DECIDE---BLP--             - <<--- 8=FIX.4.2|9=0054|35=0|49=BLP|56=CNS_DECIDE|34=184|52=20211007-01:46:08|10=144|
08:46:09.316 INFO  CNS_DECIDE---BLP--             - --->> 8=FIX.4.2|9=58|35=0|34=184|49=CNS_DECIDE|52=20211007-01:46:09.316|56=BLP|10=253|
08:47:08.813 INFO  CNS_DECIDE---BLP--             - <<--- 8=FIX.4.2|9=0054|35=0|49=BLP|56=CNS_DECIDE|34=185|52=20211007-01:47:08|10=146|
08:47:09.318 INFO  CNS_DECIDE---BLP--             - --->> 8=FIX.4.2|9=58|35=0|34=185|49=CNS_DECIDE|52=20211007-01:47:09.318|56=BLP|10=001|
08:48:08.813 INFO  CNS_DECIDE---BLP--             - <<--- 8=FIX.4.2|9=0054|35=0|49=BLP|56=CNS_DECIDE|34=186|52=20211007-01:48:08|10=148|
08:48:09.318 INFO  CNS_DECIDE---BLP--             - --->> 8=FIX.4.2|9=58|35=0|34=186|49=CNS_DECIDE|52=20211007-01:48:09.318|56=BLP|10=003|
08:49:08.814 INFO  CNS_DECIDE---BLP--             - <<--- 8=FIX.4.2|9=0054|35=0|49=BLP|56=CNS_DECIDE|34=187|52=20211007-01:49:08|10=150|
08:49:09.319 INFO  CNS_DECIDE---BLP--             - --->> 8=FIX.4.2|9=58|35=0|34=187|49=CNS_DECIDE|52=20211007-01:49:09.319|56=BLP|10=006|
08:50:08.813 INFO  CNS_DECIDE---BLP--             - <<--- 8=FIX.4.2|9=0054|35=0|49=BLP|56=CNS_DECIDE|34=188|52=20211007-01:50:08|10=143|
08:50:09.320 INFO  CNS_DECIDE---BLP--             - --->> 8=FIX.4.2|9=58|35=0|34=188|49=CNS_DECIDE|52=20211007-01:50:09.320|56=BLP|10=247|
08:51:08.814 INFO  CNS_DECIDE---BLP--             - <<--- 8=FIX.4.2|9=0054|35=0|49=BLP|56=CNS_DECIDE|34=189|52=20211007-01:51:08|10=145|
08:51:09.322 INFO  CNS_DECIDE---BLP--             - --->> 8=FIX.4.2|9=58|35=0|34=189|49=CNS_DECIDE|52=20211007-01:51:09.322|56=BLP|10=251|
08:52:08.815 INFO  CNS_DECIDE---BLP--             - <<--- 8=FIX.4.2|9=0054|35=0|49=BLP|56=CNS_DECIDE|34=190|52=20211007-01:52:08|10=138|
08:52:09.323 INFO  CNS_DECIDE---BLP--             - --->> 8=FIX.4.2|9=58|35=0|34=190|49=CNS_DECIDE|52=20211007-01:52:09.323|56=BLP|10=245|
08:53:08.814 INFO  CNS_DECIDE---BLP--             - <<--- 8=FIX.4.2|9=0054|35=0|49=BLP|56=CNS_DECIDE|34=191|52=20211007-01:53:08|10=140|
08:53:09.322 INFO  CNS_DECIDE---BLP--             - --->> 8=FIX.4.2|9=58|35=0|34=191|49=CNS_DECIDE|52=20211007-01:53:09.322|56=BLP|10=246|
08:54:08.815 INFO  CNS_DECIDE---BLP--             - <<--- 8=FIX.4.2|9=0054|35=0|49=BLP|56=CNS_DECIDE|34=192|52=20211007-01:54:08|10=142|
08:54:09.324 INFO  CNS_DECIDE---BLP--             - --->> 8=FIX.4.2|9=58|35=0|34=192|49=CNS_DECIDE|52=20211007-01:54:09.324|56=BLP|10=250|
08:55:08.812 INFO  CNS_DECIDE---BLP--             - <<--- 8=FIX.4.2|9=0054|35=0|49=BLP|56=CNS_DECIDE|34=193|52=20211007-01:55:08|10=144|
08:55:09.324 INFO  CNS_DECIDE---BLP--             - --->> 8=FIX.4.2|9=58|35=0|34=193|49=CNS_DECIDE|52=20211007-01:55:09.324|56=BLP|10=252|
08:56:08.812 INFO  CNS_DECIDE---BLP--             - <<--- 8=FIX.4.2|9=0054|35=0|49=BLP|56=CNS_DECIDE|34=194|52=20211007-01:56:08|10=146|
08:56:09.325 INFO  CNS_DECIDE---BLP--             - --->> 8=FIX.4.2|9=58|35=0|34=194|49=CNS_DECIDE|52=20211007-01:56:09.325|56=BLP|10=255|
08:57:08.812 INFO  CNS_DECIDE---BLP--             - <<--- 8=FIX.4.2|9=0054|35=0|49=BLP|56=CNS_DECIDE|34=195|52=20211007-01:57:08|10=148|
08:57:09.327 INFO  CNS_DECIDE---BLP--             - --->> 8=FIX.4.2|9=58|35=0|34=195|49=CNS_DECIDE|52=20211007-01:57:09.327|56=BLP|10=003|
08:58:08.813 INFO  CNS_DECIDE---BLP--             - <<--- 8=FIX.4.2|9=0054|35=0|49=BLP|56=CNS_DECIDE|34=196|52=20211007-01:58:08|10=150|
08:58:09.327 INFO  CNS_DECIDE---BLP--             - --->> 8=FIX.4.2|9=58|35=0|34=196|49=CNS_DECIDE|52=20211007-01:58:09.327|56=BLP|10=005|
08:59:08.815 INFO  CNS_DECIDE---BLP--             - <<--- 8=FIX.4.2|9=0054|35=0|49=BLP|56=CNS_DECIDE|34=197|52=20211007-01:59:08|10=152|
08:59:09.331 INFO  CNS_DECIDE---BLP--             - --->> 8=FIX.4.2|9=58|35=0|34=197|49=CNS_DECIDE|52=20211007-01:59:09.331|56=BLP|10=002|
09:00:08.816 INFO  CNS_DECIDE---BLP--             - <<--- 8=FIX.4.2|9=0054|35=0|49=BLP|56=CNS_DECIDE|34=198|52=20211007-02:00:08|10=140|
09:00:09.331 INFO  CNS_DECIDE---BLP--             - --->> 8=FIX.4.2|9=58|35=0|34=198|49=CNS_DECIDE|52=20211007-02:00:09.331|56=BLP|10=246|
09:01:08.816 INFO  CNS_DECIDE---BLP--             - <<--- 8=FIX.4.2|9=0054|35=0|49=BLP|56=CNS_DECIDE|34=199|52=20211007-02:01:08|10=142|
09:01:09.333 INFO  CNS_DECIDE---BLP--             - --->> 8=FIX.4.2|9=58|35=0|34=199|49=CNS_DECIDE|52=20211007-02:01:09.333|56=BLP|10=250|
09:02:08.817 INFO  CNS_DECIDE---BLP--             - <<--- 8=FIX.4.2|9=0054|35=0|49=BLP|56=CNS_DECIDE|34=200|52=20211007-02:02:08|10=126|
09:02:09.333 INFO  CNS_DECIDE---BLP--             - --->> 8=FIX.4.2|9=58|35=0|34=200|49=CNS_DECIDE|52=20211007-02:02:09.333|56=BLP|10=234|
09:03:08.817 INFO  CNS_DECIDE---BLP--             - <<--- 8=FIX.4.2|9=0054|35=0|49=BLP|56=CNS_DECIDE|34=201|52=20211007-02:03:08|10=128|
09:03:09.335 INFO  CNS_DECIDE---BLP--             - --->> 8=FIX.4.2|9=58|35=0|34=201|49=CNS_DECIDE|52=20211007-02:03:09.335|56=BLP|10=238|
09:04:08.817 INFO  CNS_DECIDE---BLP--             - <<--- 8=FIX.4.2|9=0054|35=0|49=BLP|56=CNS_DECIDE|34=202|52=20211007-02:04:08|10=130|
09:04:09.335 INFO  CNS_DECIDE---BLP--             - --->> 8=FIX.4.2|9=58|35=0|34=202|49=CNS_DECIDE|52=20211007-02:04:09.335|56=BLP|10=240|
09:05:08.813 INFO  CNS_DECIDE---BLP--             - <<--- 8=FIX.4.2|9=0054|35=0|49=BLP|56=CNS_DECIDE|34=203|52=20211007-02:05:08|10=132|
09:05:09.336 INFO  CNS_DECIDE---BLP--             - --->> 8=FIX.4.2|9=58|35=0|34=203|49=CNS_DECIDE|52=20211007-02:05:09.336|56=BLP|10=243|
09:06:08.813 INFO  CNS_DECIDE---BLP--             - <<--- 8=FIX.4.2|9=0054|35=0|49=BLP|56=CNS_DECIDE|34=204|52=20211007-02:06:08|10=134|
09:06:09.338 INFO  CNS_DECIDE---BLP--             - --->> 8=FIX.4.2|9=58|35=0|34=204|49=CNS_DECIDE|52=20211007-02:06:09.338|56=BLP|10=247|
09:07:08.813 INFO  CNS_DECIDE---BLP--             - <<--- 8=FIX.4.2|9=0054|35=0|49=BLP|56=CNS_DECIDE|34=205|52=20211007-02:07:08|10=136|
09:07:09.338 INFO  CNS_DECIDE---BLP--             - --->> 8=FIX.4.2|9=58|35=0|34=205|49=CNS_DECIDE|52=20211007-02:07:09.338|56=BLP|10=249|
09:08:08.813 INFO  CNS_DECIDE---BLP--             - <<--- 8=FIX.4.2|9=0054|35=0|49=BLP|56=CNS_DECIDE|34=206|52=20211007-02:08:08|10=138|
09:08:09.340 INFO  CNS_DECIDE---BLP--             - --->> 8=FIX.4.2|9=58|35=0|34=206|49=CNS_DECIDE|52=20211007-02:08:09.340|56=BLP|10=244|
09:09:08.814 INFO  CNS_DECIDE---BLP--             - <<--- 8=FIX.4.2|9=0054|35=0|49=BLP|56=CNS_DECIDE|34=207|52=20211007-02:09:08|10=140|
09:09:09.341 INFO  CNS_DECIDE---BLP--             - --->> 8=FIX.4.2|9=58|35=0|34=207|49=CNS_DECIDE|52=20211007-02:09:09.341|56=BLP|10=247|
09:10:08.815 INFO  CNS_DECIDE---BLP--             - <<--- 8=FIX.4.2|9=0054|35=0|49=BLP|56=CNS_DECIDE|34=208|52=20211007-02:10:08|10=133|
09:10:09.340 INFO  CNS_DECIDE---BLP--             - --->> 8=FIX.4.2|9=58|35=0|34=208|49=CNS_DECIDE|52=20211007-02:10:09.340|56=BLP|10=239|
09:11:08.814 INFO  CNS_DECIDE---BLP--             - <<--- 8=FIX.4.2|9=0054|35=0|49=BLP|56=CNS_DECIDE|34=209|52=20211007-02:11:08|10=135|
09:11:09.342 INFO  CNS_DECIDE---BLP--             - --->> 8=FIX.4.2|9=58|35=0|34=209|49=CNS_DECIDE|52=20211007-02:11:09.342|56=BLP|10=243|
09:12:08.815 INFO  CNS_DECIDE---BLP--             - <<--- 8=FIX.4.2|9=0054|35=0|49=BLP|56=CNS_DECIDE|34=210|52=20211007-02:12:08|10=128|
09:12:09.343 INFO  CNS_DECIDE---BLP--             - --->> 8=FIX.4.2|9=58|35=0|34=210|49=CNS_DECIDE|52=20211007-02:12:09.343|56=BLP|10=237|
09:13:08.816 INFO  CNS_DECIDE---BLP--             - <<--- 8=FIX.4.2|9=0054|35=0|49=BLP|56=CNS_DECIDE|34=211|52=20211007-02:13:08|10=130|
09:13:09.343 INFO  CNS_DECIDE---BLP--             - --->> 8=FIX.4.2|9=58|35=0|34=211|49=CNS_DECIDE|52=20211007-02:13:09.343|56=BLP|10=239|
09:14:08.814 INFO  CNS_DECIDE---BLP--             - <<--- 8=FIX.4.2|9=0054|35=0|49=BLP|56=CNS_DECIDE|34=212|52=20211007-02:14:08|10=132|
09:14:09.342 INFO  CNS_DECIDE---BLP--             - --->> 8=FIX.4.2|9=58|35=0|34=212|49=CNS_DECIDE|52=20211007-02:14:09.342|56=BLP|10=240|
09:15:08.817 INFO  CNS_DECIDE---BLP--             - <<--- 8=FIX.4.2|9=0054|35=0|49=BLP|56=CNS_DECIDE|34=213|52=20211007-02:15:08|10=134|
09:15:09.343 INFO  CNS_DECIDE---BLP--             - --->> 8=FIX.4.2|9=58|35=0|34=213|49=CNS_DECIDE|52=20211007-02:15:09.343|56=BLP|10=243|
09:16:08.817 INFO  CNS_DECIDE---BLP--             - <<--- 8=FIX.4.2|9=0054|35=0|49=BLP|56=CNS_DECIDE|34=214|52=20211007-02:16:08|10=136|
09:16:09.345 INFO  CNS_DECIDE---BLP--             - --->> 8=FIX.4.2|9=58|35=0|34=214|49=CNS_DECIDE|52=20211007-02:16:09.345|56=BLP|10=247|
09:17:08.817 INFO  CNS_DECIDE---BLP--             - <<--- 8=FIX.4.2|9=0054|35=0|49=BLP|56=CNS_DECIDE|34=215|52=20211007-02:17:08|10=138|
09:17:09.346 INFO  CNS_DECIDE---BLP--             - --->> 8=FIX.4.2|9=58|35=0|34=215|49=CNS_DECIDE|52=20211007-02:17:09.346|56=BLP|10=250|
09:18:08.817 INFO  CNS_DECIDE---BLP--             - <<--- 8=FIX.4.2|9=0054|35=0|49=BLP|56=CNS_DECIDE|34=216|52=20211007-02:18:08|10=140|
09:18:09.346 INFO  CNS_DECIDE---BLP--             - --->> 8=FIX.4.2|9=58|35=0|34=216|49=CNS_DECIDE|52=20211007-02:18:09.346|56=BLP|10=252|
09:19:08.818 INFO  CNS_DECIDE---BLP--             - <<--- 8=FIX.4.2|9=0054|35=0|49=BLP|56=CNS_DECIDE|34=217|52=20211007-02:19:08|10=142|
09:19:09.346 INFO  CNS_DECIDE---BLP--             - --->> 8=FIX.4.2|9=58|35=0|34=217|49=CNS_DECIDE|52=20211007-02:19:09.346|56=BLP|10=254|
09:20:08.818 INFO  CNS_DECIDE---BLP--             - <<--- 8=FIX.4.2|9=0054|35=0|49=BLP|56=CNS_DECIDE|34=218|52=20211007-02:20:08|10=135|
09:20:09.347 INFO  CNS_DECIDE---BLP--             - --->> 8=FIX.4.2|9=58|35=0|34=218|49=CNS_DECIDE|52=20211007-02:20:09.347|56=BLP|10=248|
09:21:08.819 INFO  CNS_DECIDE---BLP--             - <<--- 8=FIX.4.2|9=0054|35=0|49=BLP|56=CNS_DECIDE|34=219|52=20211007-02:21:08|10=137|
09:21:09.348 INFO  CNS_DECIDE---BLP--             - --->> 8=FIX.4.2|9=58|35=0|34=219|49=CNS_DECIDE|52=20211007-02:21:09.348|56=BLP|10=251|
09:22:08.818 INFO  CNS_DECIDE---BLP--             - <<--- 8=FIX.4.2|9=0054|35=0|49=BLP|56=CNS_DECIDE|34=220|52=20211007-02:22:08|10=130|
09:22:09.350 INFO  CNS_DECIDE---BLP--             - --->> 8=FIX.4.2|9=58|35=0|34=220|49=CNS_DECIDE|52=20211007-02:22:09.350|56=BLP|10=237|
09:23:08.819 INFO  CNS_DECIDE---BLP--             - <<--- 8=FIX.4.2|9=0054|35=0|49=BLP|56=CNS_DECIDE|34=221|52=20211007-02:23:08|10=132|
09:23:09.350 INFO  CNS_DECIDE---BLP--             - --->> 8=FIX.4.2|9=58|35=0|34=221|49=CNS_DECIDE|52=20211007-02:23:09.350|56=BLP|10=239|
09:24:08.819 INFO  CNS_DECIDE---BLP--             - <<--- 8=FIX.4.2|9=0054|35=0|49=BLP|56=CNS_DECIDE|34=222|52=20211007-02:24:08|10=134|
09:24:09.351 INFO  CNS_DECIDE---BLP--             - --->> 8=FIX.4.2|9=58|35=0|34=222|49=CNS_DECIDE|52=20211007-02:24:09.351|56=BLP|10=242|
09:25:08.814 INFO  CNS_DECIDE---BLP--             - <<--- 8=FIX.4.2|9=0054|35=0|49=BLP|56=CNS_DECIDE|34=223|52=20211007-02:25:08|10=136|
09:25:09.352 INFO  CNS_DECIDE---BLP--             - --->> 8=FIX.4.2|9=58|35=0|34=223|49=CNS_DECIDE|52=20211007-02:25:09.352|56=BLP|10=245|
09:26:08.814 INFO  CNS_DECIDE---BLP--             - <<--- 8=FIX.4.2|9=0054|35=0|49=BLP|56=CNS_DECIDE|34=224|52=20211007-02:26:08|10=138|
09:26:09.353 INFO  CNS_DECIDE---BLP--             - --->> 8=FIX.4.2|9=58|35=0|34=224|49=CNS_DECIDE|52=20211007-02:26:09.353|56=BLP|10=248|
09:27:08.814 INFO  CNS_DECIDE---BLP--             - <<--- 8=FIX.4.2|9=0054|35=0|49=BLP|56=CNS_DECIDE|34=225|52=20211007-02:27:08|10=140|
09:27:09.353 INFO  CNS_DECIDE---BLP--             - --->> 8=FIX.4.2|9=58|35=0|34=225|49=CNS_DECIDE|52=20211007-02:27:09.353|56=BLP|10=250|
09:28:08.814 INFO  CNS_DECIDE---BLP--             - <<--- 8=FIX.4.2|9=0054|35=0|49=BLP|56=CNS_DECIDE|34=226|52=20211007-02:28:08|10=142|
09:28:09.354 INFO  CNS_DECIDE---BLP--             - --->> 8=FIX.4.2|9=58|35=0|34=226|49=CNS_DECIDE|52=20211007-02:28:09.354|56=BLP|10=253|
09:29:08.815 INFO  CNS_DECIDE---BLP--             - <<--- 8=FIX.4.2|9=0054|35=0|49=BLP|56=CNS_DECIDE|34=227|52=20211007-02:29:08|10=144|
09:29:09.356 INFO  CNS_DECIDE---BLP--             - --->> 8=FIX.4.2|9=58|35=0|34=227|49=CNS_DECIDE|52=20211007-02:29:09.356|56=BLP|10=001|
09:30:08.815 INFO  CNS_DECIDE---BLP--             - <<--- 8=FIX.4.2|9=0054|35=0|49=BLP|56=CNS_DECIDE|34=228|52=20211007-02:30:08|10=137|
09:30:09.356 INFO  CNS_DECIDE---BLP--             - --->> 8=FIX.4.2|9=58|35=0|34=228|49=CNS_DECIDE|52=20211007-02:30:09.356|56=BLP|10=250|
09:31:08.815 INFO  CNS_DECIDE---BLP--             - <<--- 8=FIX.4.2|9=0054|35=0|49=BLP|56=CNS_DECIDE|34=229|52=20211007-02:31:08|10=139|
09:31:09.357 INFO  CNS_DECIDE---BLP--             - --->> 8=FIX.4.2|9=58|35=0|34=229|49=CNS_DECIDE|52=20211007-02:31:09.357|56=BLP|10=253|
09:32:08.816 INFO  CNS_DECIDE---BLP--             - <<--- 8=FIX.4.2|9=0054|35=0|49=BLP|56=CNS_DECIDE|34=230|52=20211007-02:32:08|10=132|
09:32:09.358 INFO  CNS_DECIDE---BLP--             - --->> 8=FIX.4.2|9=58|35=0|34=230|49=CNS_DECIDE|52=20211007-02:32:09.358|56=BLP|10=247|
09:33:08.817 INFO  CNS_DECIDE---BLP--             - <<--- 8=FIX.4.2|9=0054|35=0|49=BLP|56=CNS_DECIDE|34=231|52=20211007-02:33:08|10=134|
09:33:09.359 INFO  CNS_DECIDE---BLP--             - --->> 8=FIX.4.2|9=58|35=0|34=231|49=CNS_DECIDE|52=20211007-02:33:09.359|56=BLP|10=250|
09:34:08.816 INFO  CNS_DECIDE---BLP--             - <<--- 8=FIX.4.2|9=0054|35=0|49=BLP|56=CNS_DECIDE|34=232|52=20211007-02:34:08|10=136|
09:34:09.360 INFO  CNS_DECIDE---BLP--             - --->> 8=FIX.4.2|9=58|35=0|34=232|49=CNS_DECIDE|52=20211007-02:34:09.360|56=BLP|10=244|
09:35:08.810 INFO  CNS_DECIDE---BLP--             - <<--- 8=FIX.4.2|9=0054|35=0|49=BLP|56=CNS_DECIDE|34=233|52=20211007-02:35:08|10=138|
09:35:09.360 INFO  CNS_DECIDE---BLP--             - --->> 8=FIX.4.2|9=58|35=0|34=233|49=CNS_DECIDE|52=20211007-02:35:09.360|56=BLP|10=246|
09:36:08.810 INFO  CNS_DECIDE---BLP--             - <<--- 8=FIX.4.2|9=0054|35=0|49=BLP|56=CNS_DECIDE|34=234|52=20211007-02:36:08|10=140|
09:36:09.363 INFO  CNS_DECIDE---BLP--             - --->> 8=FIX.4.2|9=58|35=0|34=234|49=CNS_DECIDE|52=20211007-02:36:09.363|56=BLP|10=251|
09:37:08.811 INFO  CNS_DECIDE---BLP--             - <<--- 8=FIX.4.2|9=0054|35=0|49=BLP|56=CNS_DECIDE|34=235|52=20211007-02:37:08|10=142|
09:37:09.362 INFO  CNS_DECIDE---BLP--             - --->> 8=FIX.4.2|9=58|35=0|34=235|49=CNS_DECIDE|52=20211007-02:37:09.362|56=BLP|10=252|
09:38:08.810 INFO  CNS_DECIDE---BLP--             - <<--- 8=FIX.4.2|9=0054|35=0|49=BLP|56=CNS_DECIDE|34=236|52=20211007-02:38:08|10=144|
09:38:09.364 INFO  CNS_DECIDE---BLP--             - --->> 8=FIX.4.2|9=58|35=0|34=236|49=CNS_DECIDE|52=20211007-02:38:09.364|56=BLP|10=000|
09:39:08.811 INFO  CNS_DECIDE---BLP--             - <<--- 8=FIX.4.2|9=0054|35=0|49=BLP|56=CNS_DECIDE|34=237|52=20211007-02:39:08|10=146|
09:39:09.364 INFO  CNS_DECIDE---BLP--             - --->> 8=FIX.4.2|9=58|35=0|34=237|49=CNS_DECIDE|52=20211007-02:39:09.364|56=BLP|10=002|
09:40:08.811 INFO  CNS_DECIDE---BLP--             - <<--- 8=FIX.4.2|9=0054|35=0|49=BLP|56=CNS_DECIDE|34=238|52=20211007-02:40:08|10=139|
09:40:09.364 INFO  CNS_DECIDE---BLP--             - --->> 8=FIX.4.2|9=58|35=0|34=238|49=CNS_DECIDE|52=20211007-02:40:09.364|56=BLP|10=251|
09:41:08.811 INFO  CNS_DECIDE---BLP--             - <<--- 8=FIX.4.2|9=0054|35=0|49=BLP|56=CNS_DECIDE|34=239|52=20211007-02:41:08|10=141|
09:41:09.366 INFO  CNS_DECIDE---BLP--             - --->> 8=FIX.4.2|9=58|35=0|34=239|49=CNS_DECIDE|52=20211007-02:41:09.366|56=BLP|10=255|
09:42:08.812 INFO  CNS_DECIDE---BLP--             - <<--- 8=FIX.4.2|9=0054|35=0|49=BLP|56=CNS_DECIDE|34=240|52=20211007-02:42:08|10=134|
09:42:09.367 INFO  CNS_DECIDE---BLP--             - --->> 8=FIX.4.2|9=58|35=0|34=240|49=CNS_DECIDE|52=20211007-02:42:09.367|56=BLP|10=249|
09:43:08.814 INFO  CNS_DECIDE---BLP--             - <<--- 8=FIX.4.2|9=0054|35=0|49=BLP|56=CNS_DECIDE|34=241|52=20211007-02:43:08|10=136|
09:43:09.368 INFO  CNS_DECIDE---BLP--             - --->> 8=FIX.4.2|9=58|35=0|34=241|49=CNS_DECIDE|52=20211007-02:43:09.368|56=BLP|10=252|
09:44:08.815 INFO  CNS_DECIDE---BLP--             - <<--- 8=FIX.4.2|9=0054|35=0|49=BLP|56=CNS_DECIDE|34=242|52=20211007-02:44:08|10=138|
09:44:09.372 INFO  CNS_DECIDE---BLP--             - --->> 8=FIX.4.2|9=58|35=0|34=242|49=CNS_DECIDE|52=20211007-02:44:09.372|56=BLP|10=249|
09:45:08.814 INFO  CNS_DECIDE---BLP--             - <<--- 8=FIX.4.2|9=0054|35=0|49=BLP|56=CNS_DECIDE|34=243|52=20211007-02:45:08|10=140|
09:45:09.372 INFO  CNS_DECIDE---BLP--             - --->> 8=FIX.4.2|9=58|35=0|34=243|49=CNS_DECIDE|52=20211007-02:45:09.372|56=BLP|10=251|
09:46:08.815 INFO  CNS_DECIDE---BLP--             - <<--- 8=FIX.4.2|9=0054|35=0|49=BLP|56=CNS_DECIDE|34=244|52=20211007-02:46:08|10=142|
09:46:09.373 INFO  CNS_DECIDE---BLP--             - --->> 8=FIX.4.2|9=58|35=0|34=244|49=CNS_DECIDE|52=20211007-02:46:09.373|56=BLP|10=254|
09:47:08.815 INFO  CNS_DECIDE---BLP--             - <<--- 8=FIX.4.2|9=0054|35=0|49=BLP|56=CNS_DECIDE|34=245|52=20211007-02:47:08|10=144|
09:47:09.375 INFO  CNS_DECIDE---BLP--             - --->> 8=FIX.4.2|9=58|35=0|34=245|49=CNS_DECIDE|52=20211007-02:47:09.375|56=BLP|10=002|
09:48:08.815 INFO  CNS_DECIDE---BLP--             - <<--- 8=FIX.4.2|9=0054|35=0|49=BLP|56=CNS_DECIDE|34=246|52=20211007-02:48:08|10=146|
09:48:09.375 INFO  CNS_DECIDE---BLP--             - --->> 8=FIX.4.2|9=58|35=0|34=246|49=CNS_DECIDE|52=20211007-02:48:09.375|56=BLP|10=004|
09:49:08.816 INFO  CNS_DECIDE---BLP--             - <<--- 8=FIX.4.2|9=0054|35=0|49=BLP|56=CNS_DECIDE|34=247|52=20211007-02:49:08|10=148|
09:49:09.375 INFO  CNS_DECIDE---BLP--             - --->> 8=FIX.4.2|9=58|35=0|34=247|49=CNS_DECIDE|52=20211007-02:49:09.375|56=BLP|10=006|
09:50:08.816 INFO  CNS_DECIDE---BLP--             - <<--- 8=FIX.4.2|9=0054|35=0|49=BLP|56=CNS_DECIDE|34=248|52=20211007-02:50:08|10=141|
09:50:09.376 INFO  CNS_DECIDE---BLP--             - --->> 8=FIX.4.2|9=58|35=0|34=248|49=CNS_DECIDE|52=20211007-02:50:09.376|56=BLP|10=000|
09:51:08.817 INFO  CNS_DECIDE---BLP--             - <<--- 8=FIX.4.2|9=0054|35=0|49=BLP|56=CNS_DECIDE|34=249|52=20211007-02:51:08|10=143|
09:51:09.378 INFO  CNS_DECIDE---BLP--             - --->> 8=FIX.4.2|9=58|35=0|34=249|49=CNS_DECIDE|52=20211007-02:51:09.378|56=BLP|10=004|
09:52:08.816 INFO  CNS_DECIDE---BLP--             - <<--- 8=FIX.4.2|9=0054|35=0|49=BLP|56=CNS_DECIDE|34=250|52=20211007-02:52:08|10=136|
09:52:09.378 INFO  CNS_DECIDE---BLP--             - --->> 8=FIX.4.2|9=58|35=0|34=250|49=CNS_DECIDE|52=20211007-02:52:09.378|56=BLP|10=253|
09:53:08.817 INFO  CNS_DECIDE---BLP--             - <<--- 8=FIX.4.2|9=0054|35=0|49=BLP|56=CNS_DECIDE|34=251|52=20211007-02:53:08|10=138|
09:53:09.379 INFO  CNS_DECIDE---BLP--             - --->> 8=FIX.4.2|9=58|35=0|34=251|49=CNS_DECIDE|52=20211007-02:53:09.379|56=BLP|10=000|
09:54:08.817 INFO  CNS_DECIDE---BLP--             - <<--- 8=FIX.4.2|9=0054|35=0|49=BLP|56=CNS_DECIDE|34=252|52=20211007-02:54:08|10=140|
09:54:09.380 INFO  CNS_DECIDE---BLP--             - --->> 8=FIX.4.2|9=58|35=0|34=252|49=CNS_DECIDE|52=20211007-02:54:09.380|56=BLP|10=250|
09:55:08.814 INFO  CNS_DECIDE---BLP--             - <<--- 8=FIX.4.2|9=0054|35=0|49=BLP|56=CNS_DECIDE|34=253|52=20211007-02:55:08|10=142|
09:55:09.380 INFO  CNS_DECIDE---BLP--             - --->> 8=FIX.4.2|9=58|35=0|34=253|49=CNS_DECIDE|52=20211007-02:55:09.380|56=BLP|10=252|
09:56:08.814 INFO  CNS_DECIDE---BLP--             - <<--- 8=FIX.4.2|9=0054|35=0|49=BLP|56=CNS_DECIDE|34=254|52=20211007-02:56:08|10=144|
09:56:09.381 INFO  CNS_DECIDE---BLP--             - --->> 8=FIX.4.2|9=58|35=0|34=254|49=CNS_DECIDE|52=20211007-02:56:09.381|56=BLP|10=255|
09:57:08.815 INFO  CNS_DECIDE---BLP--             - <<--- 8=FIX.4.2|9=0054|35=0|49=BLP|56=CNS_DECIDE|34=255|52=20211007-02:57:08|10=146|
09:57:09.383 INFO  CNS_DECIDE---BLP--             - --->> 8=FIX.4.2|9=58|35=0|34=255|49=CNS_DECIDE|52=20211007-02:57:09.383|56=BLP|10=003|
09:58:08.814 INFO  CNS_DECIDE---BLP--             - <<--- 8=FIX.4.2|9=0054|35=0|49=BLP|56=CNS_DECIDE|34=256|52=20211007-02:58:08|10=148|
09:58:09.384 INFO  CNS_DECIDE---BLP--             - --->> 8=FIX.4.2|9=58|35=0|34=256|49=CNS_DECIDE|52=20211007-02:58:09.384|56=BLP|10=006|
09:59:08.815 INFO  CNS_DECIDE---BLP--             - <<--- 8=FIX.4.2|9=0054|35=0|49=BLP|56=CNS_DECIDE|34=257|52=20211007-02:59:08|10=150|
09:59:09.384 INFO  CNS_DECIDE---BLP--             - --->> 8=FIX.4.2|9=58|35=0|34=257|49=CNS_DECIDE|52=20211007-02:59:09.384|56=BLP|10=008|
10:00:08.815 INFO  CNS_DECIDE---BLP--             - <<--- 8=FIX.4.2|9=0054|35=0|49=BLP|56=CNS_DECIDE|34=258|52=20211007-03:00:08|10=138|
10:00:09.386 INFO  CNS_DECIDE---BLP--             - --->> 8=FIX.4.2|9=58|35=0|34=258|49=CNS_DECIDE|52=20211007-03:00:09.386|56=BLP|10=254|
10:01:08.816 INFO  CNS_DECIDE---BLP--             - <<--- 8=FIX.4.2|9=0054|35=0|49=BLP|56=CNS_DECIDE|34=259|52=20211007-03:01:08|10=140|
10:01:09.386 INFO  CNS_DECIDE---BLP--             - --->> 8=FIX.4.2|9=58|35=0|34=259|49=CNS_DECIDE|52=20211007-03:01:09.386|56=BLP|10=000|
10:02:08.816 INFO  CNS_DECIDE---BLP--             - <<--- 8=FIX.4.2|9=0054|35=0|49=BLP|56=CNS_DECIDE|34=260|52=20211007-03:02:08|10=133|
10:02:09.387 INFO  CNS_DECIDE---BLP--             - --->> 8=FIX.4.2|9=58|35=0|34=260|49=CNS_DECIDE|52=20211007-03:02:09.387|56=BLP|10=250|
10:03:08.817 INFO  CNS_DECIDE---BLP--             - <<--- 8=FIX.4.2|9=0054|35=0|49=BLP|56=CNS_DECIDE|34=261|52=20211007-03:03:08|10=135|
10:03:09.388 INFO  CNS_DECIDE---BLP--             - --->> 8=FIX.4.2|9=58|35=0|34=261|49=CNS_DECIDE|52=20211007-03:03:09.388|56=BLP|10=253|
10:04:08.816 INFO  CNS_DECIDE---BLP--             - <<--- 8=FIX.4.2|9=0054|35=0|49=BLP|56=CNS_DECIDE|34=262|52=20211007-03:04:08|10=137|
10:04:09.389 INFO  CNS_DECIDE---BLP--             - --->> 8=FIX.4.2|9=58|35=0|34=262|49=CNS_DECIDE|52=20211007-03:04:09.389|56=BLP|10=000|
10:05:08.821 INFO  CNS_DECIDE---BLP--             - <<--- 8=FIX.4.2|9=0054|35=0|49=BLP|56=CNS_DECIDE|34=263|52=20211007-03:05:08|10=139|
10:05:09.391 INFO  CNS_DECIDE---BLP--             - --->> 8=FIX.4.2|9=58|35=0|34=263|49=CNS_DECIDE|52=20211007-03:05:09.391|56=BLP|10=251|
10:06:08.811 INFO  CNS_DECIDE---BLP--             - <<--- 8=FIX.4.2|9=0054|35=0|49=BLP|56=CNS_DECIDE|34=264|52=20211007-03:06:08|10=141|
10:06:09.391 INFO  CNS_DECIDE---BLP--             - --->> 8=FIX.4.2|9=58|35=0|34=264|49=CNS_DECIDE|52=20211007-03:06:09.391|56=BLP|10=253|
10:07:08.812 INFO  CNS_DECIDE---BLP--             - <<--- 8=FIX.4.2|9=0054|35=0|49=BLP|56=CNS_DECIDE|34=265|52=20211007-03:07:08|10=143|
10:07:09.392 INFO  CNS_DECIDE---BLP--             - --->> 8=FIX.4.2|9=58|35=0|34=265|49=CNS_DECIDE|52=20211007-03:07:09.392|56=BLP|10=000|
10:08:08.812 INFO  CNS_DECIDE---BLP--             - <<--- 8=FIX.4.2|9=0054|35=0|49=BLP|56=CNS_DECIDE|34=266|52=20211007-03:08:08|10=145|
10:08:09.392 INFO  CNS_DECIDE---BLP--             - --->> 8=FIX.4.2|9=58|35=0|34=266|49=CNS_DECIDE|52=20211007-03:08:09.392|56=BLP|10=002|
10:09:08.812 INFO  CNS_DECIDE---BLP--             - <<--- 8=FIX.4.2|9=0054|35=0|49=BLP|56=CNS_DECIDE|34=267|52=20211007-03:09:08|10=147|
10:09:09.393 INFO  CNS_DECIDE---BLP--             - --->> 8=FIX.4.2|9=58|35=0|34=267|49=CNS_DECIDE|52=20211007-03:09:09.393|56=BLP|10=005|
10:10:08.813 INFO  CNS_DECIDE---BLP--             - <<--- 8=FIX.4.2|9=0054|35=0|49=BLP|56=CNS_DECIDE|34=268|52=20211007-03:10:08|10=140|
10:10:09.395 INFO  CNS_DECIDE---BLP--             - --->> 8=FIX.4.2|9=58|35=0|34=268|49=CNS_DECIDE|52=20211007-03:10:09.395|56=BLP|10=000|
10:11:08.814 INFO  CNS_DECIDE---BLP--             - <<--- 8=FIX.4.2|9=0054|35=0|49=BLP|56=CNS_DECIDE|34=269|52=20211007-03:11:08|10=142|
10:11:09.394 INFO  CNS_DECIDE---BLP--             - --->> 8=FIX.4.2|9=58|35=0|34=269|49=CNS_DECIDE|52=20211007-03:11:09.394|56=BLP|10=001|
10:12:08.813 INFO  CNS_DECIDE---BLP--             - <<--- 8=FIX.4.2|9=0054|35=0|49=BLP|56=CNS_DECIDE|34=270|52=20211007-03:12:08|10=135|
10:12:09.396 INFO  CNS_DECIDE---BLP--             - --->> 8=FIX.4.2|9=58|35=0|34=270|49=CNS_DECIDE|52=20211007-03:12:09.396|56=BLP|10=252|
10:13:08.814 INFO  CNS_DECIDE---BLP--             - <<--- 8=FIX.4.2|9=0054|35=0|49=BLP|56=CNS_DECIDE|34=271|52=20211007-03:13:08|10=137|
10:13:09.398 INFO  CNS_DECIDE---BLP--             - --->> 8=FIX.4.2|9=58|35=0|34=271|49=CNS_DECIDE|52=20211007-03:13:09.398|56=BLP|10=000|
10:14:08.814 INFO  CNS_DECIDE---BLP--             - <<--- 8=FIX.4.2|9=0054|35=0|49=BLP|56=CNS_DECIDE|34=272|52=20211007-03:14:08|10=139|
10:14:09.398 INFO  CNS_DECIDE---BLP--             - --->> 8=FIX.4.2|9=58|35=0|34=272|49=CNS_DECIDE|52=20211007-03:14:09.398|56=BLP|10=002|
10:15:08.813 INFO  CNS_DECIDE---BLP--             - <<--- 8=FIX.4.2|9=0054|35=0|49=BLP|56=CNS_DECIDE|34=273|52=20211007-03:15:08|10=141|
10:15:09.400 INFO  CNS_DECIDE---BLP--             - --->> 8=FIX.4.2|9=58|35=0|34=273|49=CNS_DECIDE|52=20211007-03:15:09.400|56=BLP|10=244|
10:16:08.813 INFO  CNS_DECIDE---BLP--             - <<--- 8=FIX.4.2|9=0054|35=0|49=BLP|56=CNS_DECIDE|34=274|52=20211007-03:16:08|10=143|
10:16:09.399 INFO  CNS_DECIDE---BLP--             - --->> 8=FIX.4.2|9=58|35=0|34=274|49=CNS_DECIDE|52=20211007-03:16:09.399|56=BLP|10=007|
10:17:08.813 INFO  CNS_DECIDE---BLP--             - <<--- 8=FIX.4.2|9=0054|35=0|49=BLP|56=CNS_DECIDE|34=275|52=20211007-03:17:08|10=145|
10:17:09.399 INFO  CNS_DECIDE---BLP--             - --->> 8=FIX.4.2|9=58|35=0|34=275|49=CNS_DECIDE|52=20211007-03:17:09.399|56=BLP|10=009|
10:18:08.813 INFO  CNS_DECIDE---BLP--             - <<--- 8=FIX.4.2|9=0054|35=0|49=BLP|56=CNS_DECIDE|34=276|52=20211007-03:18:08|10=147|
10:18:09.400 INFO  CNS_DECIDE---BLP--             - --->> 8=FIX.4.2|9=58|35=0|34=276|49=CNS_DECIDE|52=20211007-03:18:09.400|56=BLP|10=250|
10:19:08.812 INFO  CNS_DECIDE---BLP--             - <<--- 8=FIX.4.2|9=0054|35=0|49=BLP|56=CNS_DECIDE|34=277|52=20211007-03:19:08|10=149|
10:19:09.399 INFO  CNS_DECIDE---BLP--             - --->> 8=FIX.4.2|9=58|35=0|34=277|49=CNS_DECIDE|52=20211007-03:19:09.399|56=BLP|10=013|
10:20:08.812 INFO  CNS_DECIDE---BLP--             - <<--- 8=FIX.4.2|9=0054|35=0|49=BLP|56=CNS_DECIDE|34=278|52=20211007-03:20:08|10=142|
10:20:09.401 INFO  CNS_DECIDE---BLP--             - --->> 8=FIX.4.2|9=58|35=0|34=278|49=CNS_DECIDE|52=20211007-03:20:09.401|56=BLP|10=246|
10:21:08.813 INFO  CNS_DECIDE---BLP--             - <<--- 8=FIX.4.2|9=0054|35=0|49=BLP|56=CNS_DECIDE|34=279|52=20211007-03:21:08|10=144|
10:21:09.401 INFO  CNS_DECIDE---BLP--             - --->> 8=FIX.4.2|9=58|35=0|34=279|49=CNS_DECIDE|52=20211007-03:21:09.401|56=BLP|10=248|
10:22:08.813 INFO  CNS_DECIDE---BLP--             - <<--- 8=FIX.4.2|9=0054|35=0|49=BLP|56=CNS_DECIDE|34=280|52=20211007-03:22:08|10=137|
10:22:09.404 INFO  CNS_DECIDE---BLP--             - --->> 8=FIX.4.2|9=58|35=0|34=280|49=CNS_DECIDE|52=20211007-03:22:09.404|56=BLP|10=244|
10:23:08.814 INFO  CNS_DECIDE---BLP--             - <<--- 8=FIX.4.2|9=0054|35=0|49=BLP|56=CNS_DECIDE|34=281|52=20211007-03:23:08|10=139|
10:23:09.403 INFO  CNS_DECIDE---BLP--             - --->> 8=FIX.4.2|9=58|35=0|34=281|49=CNS_DECIDE|52=20211007-03:23:09.403|56=BLP|10=245|
10:24:08.814 INFO  CNS_DECIDE---BLP--             - <<--- 8=FIX.4.2|9=0054|35=0|49=BLP|56=CNS_DECIDE|34=282|52=20211007-03:24:08|10=141|
10:24:09.405 INFO  CNS_DECIDE---BLP--             - --->> 8=FIX.4.2|9=58|35=0|34=282|49=CNS_DECIDE|52=20211007-03:24:09.405|56=BLP|10=249|
10:25:08.812 INFO  CNS_DECIDE---BLP--             - <<--- 8=FIX.4.2|9=0054|35=0|49=BLP|56=CNS_DECIDE|34=283|52=20211007-03:25:08|10=143|
10:25:09.406 INFO  CNS_DECIDE---BLP--             - --->> 8=FIX.4.2|9=58|35=0|34=283|49=CNS_DECIDE|52=20211007-03:25:09.406|56=BLP|10=252|
10:26:08.812 INFO  CNS_DECIDE---BLP--             - <<--- 8=FIX.4.2|9=0054|35=0|49=BLP|56=CNS_DECIDE|34=284|52=20211007-03:26:08|10=145|
10:26:09.406 INFO  CNS_DECIDE---BLP--             - --->> 8=FIX.4.2|9=58|35=0|34=284|49=CNS_DECIDE|52=20211007-03:26:09.406|56=BLP|10=254|
10:27:08.815 INFO  CNS_DECIDE---BLP--             - <<--- 8=FIX.4.2|9=0054|35=0|49=BLP|56=CNS_DECIDE|34=285|52=20211007-03:27:08|10=147|
10:27:09.411 INFO  CNS_DECIDE---BLP--             - --->> 8=FIX.4.2|9=58|35=0|34=285|49=CNS_DECIDE|52=20211007-03:27:09.411|56=BLP|10=252|
10:28:08.815 INFO  CNS_DECIDE---BLP--             - <<--- 8=FIX.4.2|9=0054|35=0|49=BLP|56=CNS_DECIDE|34=286|52=20211007-03:28:08|10=149|
10:28:09.410 INFO  CNS_DECIDE---BLP--             - --->> 8=FIX.4.2|9=58|35=0|34=286|49=CNS_DECIDE|52=20211007-03:28:09.410|56=BLP|10=253|
10:29:08.816 INFO  CNS_DECIDE---BLP--             - <<--- 8=FIX.4.2|9=0054|35=0|49=BLP|56=CNS_DECIDE|34=287|52=20211007-03:29:08|10=151|
10:29:09.412 INFO  CNS_DECIDE---BLP--             - --->> 8=FIX.4.2|9=58|35=0|34=287|49=CNS_DECIDE|52=20211007-03:29:09.412|56=BLP|10=001|
10:30:08.816 INFO  CNS_DECIDE---BLP--             - <<--- 8=FIX.4.2|9=0054|35=0|49=BLP|56=CNS_DECIDE|34=288|52=20211007-03:30:08|10=144|
10:30:09.412 INFO  CNS_DECIDE---BLP--             - --->> 8=FIX.4.2|9=58|35=0|34=288|49=CNS_DECIDE|52=20211007-03:30:09.412|56=BLP|10=250|
10:31:08.816 INFO  CNS_DECIDE---BLP--             - <<--- 8=FIX.4.2|9=0054|35=0|49=BLP|56=CNS_DECIDE|34=289|52=20211007-03:31:08|10=146|
10:31:09.414 INFO  CNS_DECIDE---BLP--             - --->> 8=FIX.4.2|9=58|35=0|34=289|49=CNS_DECIDE|52=20211007-03:31:09.414|56=BLP|10=254|
10:32:08.817 INFO  CNS_DECIDE---BLP--             - <<--- 8=FIX.4.2|9=0054|35=0|49=BLP|56=CNS_DECIDE|34=290|52=20211007-03:32:08|10=139|
10:32:09.414 INFO  CNS_DECIDE---BLP--             - --->> 8=FIX.4.2|9=58|35=0|34=290|49=CNS_DECIDE|52=20211007-03:32:09.414|56=BLP|10=247|
10:33:08.817 INFO  CNS_DECIDE---BLP--             - <<--- 8=FIX.4.2|9=0054|35=0|49=BLP|56=CNS_DECIDE|34=291|52=20211007-03:33:08|10=141|
10:33:09.414 INFO  CNS_DECIDE---BLP--             - --->> 8=FIX.4.2|9=58|35=0|34=291|49=CNS_DECIDE|52=20211007-03:33:09.414|56=BLP|10=249|
10:34:08.817 INFO  CNS_DECIDE---BLP--             - <<--- 8=FIX.4.2|9=0054|35=0|49=BLP|56=CNS_DECIDE|34=292|52=20211007-03:34:08|10=143|
10:34:09.415 INFO  CNS_DECIDE---BLP--             - --->> 8=FIX.4.2|9=58|35=0|34=292|49=CNS_DECIDE|52=20211007-03:34:09.415|56=BLP|10=252|
10:35:08.814 INFO  CNS_DECIDE---BLP--             - <<--- 8=FIX.4.2|9=0054|35=0|49=BLP|56=CNS_DECIDE|34=293|52=20211007-03:35:08|10=145|
10:35:09.416 INFO  CNS_DECIDE---BLP--             - --->> 8=FIX.4.2|9=58|35=0|34=293|49=CNS_DECIDE|52=20211007-03:35:09.416|56=BLP|10=255|
10:36:08.814 INFO  CNS_DECIDE---BLP--             - <<--- 8=FIX.4.2|9=0054|35=0|49=BLP|56=CNS_DECIDE|34=294|52=20211007-03:36:08|10=147|
10:36:09.417 INFO  CNS_DECIDE---BLP--             - --->> 8=FIX.4.2|9=58|35=0|34=294|49=CNS_DECIDE|52=20211007-03:36:09.417|56=BLP|10=002|
10:37:08.816 INFO  CNS_DECIDE---BLP--             - <<--- 8=FIX.4.2|9=0054|35=0|49=BLP|56=CNS_DECIDE|34=295|52=20211007-03:37:08|10=149|
10:37:09.418 INFO  CNS_DECIDE---BLP--             - --->> 8=FIX.4.2|9=58|35=0|34=295|49=CNS_DECIDE|52=20211007-03:37:09.418|56=BLP|10=005|
10:38:08.816 INFO  CNS_DECIDE---BLP--             - <<--- 8=FIX.4.2|9=0054|35=0|49=BLP|56=CNS_DECIDE|34=296|52=20211007-03:38:08|10=151|
10:38:09.419 INFO  CNS_DECIDE---BLP--             - --->> 8=FIX.4.2|9=58|35=0|34=296|49=CNS_DECIDE|52=20211007-03:38:09.419|56=BLP|10=008|
10:39:08.815 INFO  CNS_DECIDE---BLP--             - <<--- 8=FIX.4.2|9=0054|35=0|49=BLP|56=CNS_DECIDE|34=297|52=20211007-03:39:08|10=153|
10:39:09.421 INFO  CNS_DECIDE---BLP--             - --->> 8=FIX.4.2|9=58|35=0|34=297|49=CNS_DECIDE|52=20211007-03:39:09.421|56=BLP|10=003|
10:40:08.816 INFO  CNS_DECIDE---BLP--             - <<--- 8=FIX.4.2|9=0054|35=0|49=BLP|56=CNS_DECIDE|34=298|52=20211007-03:40:08|10=146|
10:40:09.421 INFO  CNS_DECIDE---BLP--             - --->> 8=FIX.4.2|9=58|35=0|34=298|49=CNS_DECIDE|52=20211007-03:40:09.421|56=BLP|10=252|
10:41:08.816 INFO  CNS_DECIDE---BLP--             - <<--- 8=FIX.4.2|9=0054|35=0|49=BLP|56=CNS_DECIDE|34=299|52=20211007-03:41:08|10=148|
10:41:09.421 INFO  CNS_DECIDE---BLP--             - --->> 8=FIX.4.2|9=58|35=0|34=299|49=CNS_DECIDE|52=20211007-03:41:09.421|56=BLP|10=254|
10:42:08.816 INFO  CNS_DECIDE---BLP--             - <<--- 8=FIX.4.2|9=0054|35=0|49=BLP|56=CNS_DECIDE|34=300|52=20211007-03:42:08|10=132|
10:42:09.424 INFO  CNS_DECIDE---BLP--             - --->> 8=FIX.4.2|9=58|35=0|34=300|49=CNS_DECIDE|52=20211007-03:42:09.424|56=BLP|10=241|
10:43:08.817 INFO  CNS_DECIDE---BLP--             - <<--- 8=FIX.4.2|9=0054|35=0|49=BLP|56=CNS_DECIDE|34=301|52=20211007-03:43:08|10=134|
10:43:09.424 INFO  CNS_DECIDE---BLP--             - --->> 8=FIX.4.2|9=58|35=0|34=301|49=CNS_DECIDE|52=20211007-03:43:09.424|56=BLP|10=243|
10:44:08.817 INFO  CNS_DECIDE---BLP--             - <<--- 8=FIX.4.2|9=0054|35=0|49=BLP|56=CNS_DECIDE|34=302|52=20211007-03:44:08|10=136|
10:44:09.424 INFO  CNS_DECIDE---BLP--             - --->> 8=FIX.4.2|9=58|35=0|34=302|49=CNS_DECIDE|52=20211007-03:44:09.424|56=BLP|10=245|
10:45:08.818 INFO  CNS_DECIDE---BLP--             - <<--- 8=FIX.4.2|9=0054|35=0|49=BLP|56=CNS_DECIDE|34=303|52=20211007-03:45:08|10=138|
10:45:09.426 INFO  CNS_DECIDE---BLP--             - --->> 8=FIX.4.2|9=58|35=0|34=303|49=CNS_DECIDE|52=20211007-03:45:09.426|56=BLP|10=249|
10:46:08.817 INFO  CNS_DECIDE---BLP--             - <<--- 8=FIX.4.2|9=0054|35=0|49=BLP|56=CNS_DECIDE|34=304|52=20211007-03:46:08|10=140|
10:46:09.426 INFO  CNS_DECIDE---BLP--             - --->> 8=FIX.4.2|9=58|35=0|34=304|49=CNS_DECIDE|52=20211007-03:46:09.426|56=BLP|10=251|
10:47:08.818 INFO  CNS_DECIDE---BLP--             - <<--- 8=FIX.4.2|9=0054|35=0|49=BLP|56=CNS_DECIDE|34=305|52=20211007-03:47:08|10=142|
10:47:09.427 INFO  CNS_DECIDE---BLP--             - --->> 8=FIX.4.2|9=58|35=0|34=305|49=CNS_DECIDE|52=20211007-03:47:09.427|56=BLP|10=254|
10:48:08.817 INFO  CNS_DECIDE---BLP--             - <<--- 8=FIX.4.2|9=0054|35=0|49=BLP|56=CNS_DECIDE|34=306|52=20211007-03:48:08|10=144|
10:48:09.428 INFO  CNS_DECIDE---BLP--             - --->> 8=FIX.4.2|9=58|35=0|34=306|49=CNS_DECIDE|52=20211007-03:48:09.428|56=BLP|10=001|
10:49:08.819 INFO  CNS_DECIDE---BLP--             - <<--- 8=FIX.4.2|9=0054|35=0|49=BLP|56=CNS_DECIDE|34=307|52=20211007-03:49:08|10=146|
10:49:09.430 INFO  CNS_DECIDE---BLP--             - --->> 8=FIX.4.2|9=58|35=0|34=307|49=CNS_DECIDE|52=20211007-03:49:09.430|56=BLP|10=252|
10:50:08.819 INFO  CNS_DECIDE---BLP--             - <<--- 8=FIX.4.2|9=0054|35=0|49=BLP|56=CNS_DECIDE|34=308|52=20211007-03:50:08|10=139|
10:50:09.430 INFO  CNS_DECIDE---BLP--             - --->> 8=FIX.4.2|9=58|35=0|34=308|49=CNS_DECIDE|52=20211007-03:50:09.430|56=BLP|10=245|
10:51:08.819 INFO  CNS_DECIDE---BLP--             - <<--- 8=FIX.4.2|9=0054|35=0|49=BLP|56=CNS_DECIDE|34=309|52=20211007-03:51:08|10=141|
10:51:09.430 INFO  CNS_DECIDE---BLP--             - --->> 8=FIX.4.2|9=58|35=0|34=309|49=CNS_DECIDE|52=20211007-03:51:09.430|56=BLP|10=247|
10:52:08.819 INFO  CNS_DECIDE---BLP--             - <<--- 8=FIX.4.2|9=0054|35=0|49=BLP|56=CNS_DECIDE|34=310|52=20211007-03:52:08|10=134|
10:52:09.432 INFO  CNS_DECIDE---BLP--             - --->> 8=FIX.4.2|9=58|35=0|34=310|49=CNS_DECIDE|52=20211007-03:52:09.432|56=BLP|10=242|
10:53:08.820 INFO  CNS_DECIDE---BLP--             - <<--- 8=FIX.4.2|9=0054|35=0|49=BLP|56=CNS_DECIDE|34=311|52=20211007-03:53:08|10=136|
10:53:09.434 INFO  CNS_DECIDE---BLP--             - --->> 8=FIX.4.2|9=58|35=0|34=311|49=CNS_DECIDE|52=20211007-03:53:09.434|56=BLP|10=246|
10:54:08.820 INFO  CNS_DECIDE---BLP--             - <<--- 8=FIX.4.2|9=0054|35=0|49=BLP|56=CNS_DECIDE|34=312|52=20211007-03:54:08|10=138|
10:54:09.435 INFO  CNS_DECIDE---BLP--             - --->> 8=FIX.4.2|9=58|35=0|34=312|49=CNS_DECIDE|52=20211007-03:54:09.435|56=BLP|10=249|
10:55:08.812 INFO  CNS_DECIDE---BLP--             - <<--- 8=FIX.4.2|9=0054|35=0|49=BLP|56=CNS_DECIDE|34=313|52=20211007-03:55:08|10=140|
10:55:09.436 INFO  CNS_DECIDE---BLP--             - --->> 8=FIX.4.2|9=58|35=0|34=313|49=CNS_DECIDE|52=20211007-03:55:09.436|56=BLP|10=252|
10:56:08.813 INFO  CNS_DECIDE---BLP--             - <<--- 8=FIX.4.2|9=0054|35=0|49=BLP|56=CNS_DECIDE|34=314|52=20211007-03:56:08|10=142|
10:56:09.435 INFO  CNS_DECIDE---BLP--             - --->> 8=FIX.4.2|9=58|35=0|34=314|49=CNS_DECIDE|52=20211007-03:56:09.435|56=BLP|10=253|
10:57:08.812 INFO  CNS_DECIDE---BLP--             - <<--- 8=FIX.4.2|9=0054|35=0|49=BLP|56=CNS_DECIDE|34=315|52=20211007-03:57:08|10=144|
10:57:09.436 INFO  CNS_DECIDE---BLP--             - --->> 8=FIX.4.2|9=58|35=0|34=315|49=CNS_DECIDE|52=20211007-03:57:09.436|56=BLP|10=000|
10:58:08.813 INFO  CNS_DECIDE---BLP--             - <<--- 8=FIX.4.2|9=0054|35=0|49=BLP|56=CNS_DECIDE|34=316|52=20211007-03:58:08|10=146|
10:58:09.438 INFO  CNS_DECIDE---BLP--             - --->> 8=FIX.4.2|9=58|35=0|34=316|49=CNS_DECIDE|52=20211007-03:58:09.438|56=BLP|10=004|
10:59:08.813 INFO  CNS_DECIDE---BLP--             - <<--- 8=FIX.4.2|9=0054|35=0|49=BLP|56=CNS_DECIDE|34=317|52=20211007-03:59:08|10=148|
10:59:09.437 INFO  CNS_DECIDE---BLP--             - --->> 8=FIX.4.2|9=58|35=0|34=317|49=CNS_DECIDE|52=20211007-03:59:09.437|56=BLP|10=005|
11:00:08.813 INFO  CNS_DECIDE---BLP--             - <<--- 8=FIX.4.2|9=0054|35=0|49=BLP|56=CNS_DECIDE|34=318|52=20211007-04:00:08|10=136|
11:00:09.439 INFO  CNS_DECIDE---BLP--             - --->> 8=FIX.4.2|9=58|35=0|34=318|49=CNS_DECIDE|52=20211007-04:00:09.439|56=BLP|10=251|
11:01:08.815 INFO  CNS_DECIDE---BLP--             - <<--- 8=FIX.4.2|9=0054|35=0|49=BLP|56=CNS_DECIDE|34=319|52=20211007-04:01:08|10=138|
11:01:09.440 INFO  CNS_DECIDE---BLP--             - --->> 8=FIX.4.2|9=58|35=0|34=319|49=CNS_DECIDE|52=20211007-04:01:09.440|56=BLP|10=245|
11:02:08.814 INFO  CNS_DECIDE---BLP--             - <<--- 8=FIX.4.2|9=0054|35=0|49=BLP|56=CNS_DECIDE|34=320|52=20211007-04:02:08|10=131|
11:02:09.441 INFO  CNS_DECIDE---BLP--             - --->> 8=FIX.4.2|9=58|35=0|34=320|49=CNS_DECIDE|52=20211007-04:02:09.441|56=BLP|10=239|
11:03:08.815 INFO  CNS_DECIDE---BLP--             - <<--- 8=FIX.4.2|9=0054|35=0|49=BLP|56=CNS_DECIDE|34=321|52=20211007-04:03:08|10=133|
11:03:09.441 INFO  CNS_DECIDE---BLP--             - --->> 8=FIX.4.2|9=58|35=0|34=321|49=CNS_DECIDE|52=20211007-04:03:09.441|56=BLP|10=241|
11:04:08.815 INFO  CNS_DECIDE---BLP--             - <<--- 8=FIX.4.2|9=0054|35=0|49=BLP|56=CNS_DECIDE|34=322|52=20211007-04:04:08|10=135|
11:04:09.442 INFO  CNS_DECIDE---BLP--             - --->> 8=FIX.4.2|9=58|35=0|34=322|49=CNS_DECIDE|52=20211007-04:04:09.442|56=BLP|10=244|
11:05:08.814 INFO  CNS_DECIDE---BLP--             - <<--- 8=FIX.4.2|9=0054|35=0|49=BLP|56=CNS_DECIDE|34=323|52=20211007-04:05:08|10=137|
11:05:09.443 INFO  CNS_DECIDE---BLP--             - --->> 8=FIX.4.2|9=58|35=0|34=323|49=CNS_DECIDE|52=20211007-04:05:09.443|56=BLP|10=247|
11:06:08.814 INFO  CNS_DECIDE---BLP--             - <<--- 8=FIX.4.2|9=0054|35=0|49=BLP|56=CNS_DECIDE|34=324|52=20211007-04:06:08|10=139|
11:06:09.445 INFO  CNS_DECIDE---BLP--             - --->> 8=FIX.4.2|9=58|35=0|34=324|49=CNS_DECIDE|52=20211007-04:06:09.445|56=BLP|10=251|
11:07:08.814 INFO  CNS_DECIDE---BLP--             - <<--- 8=FIX.4.2|9=0054|35=0|49=BLP|56=CNS_DECIDE|34=325|52=20211007-04:07:08|10=141|
11:07:09.445 INFO  CNS_DECIDE---BLP--             - --->> 8=FIX.4.2|9=58|35=0|34=325|49=CNS_DECIDE|52=20211007-04:07:09.445|56=BLP|10=253|
11:08:08.814 INFO  CNS_DECIDE---BLP--             - <<--- 8=FIX.4.2|9=0054|35=0|49=BLP|56=CNS_DECIDE|34=326|52=20211007-04:08:08|10=143|
11:08:09.446 INFO  CNS_DECIDE---BLP--             - --->> 8=FIX.4.2|9=58|35=0|34=326|49=CNS_DECIDE|52=20211007-04:08:09.446|56=BLP|10=000|
11:09:08.814 INFO  CNS_DECIDE---BLP--             - <<--- 8=FIX.4.2|9=0054|35=0|49=BLP|56=CNS_DECIDE|34=327|52=20211007-04:09:08|10=145|
11:09:09.447 INFO  CNS_DECIDE---BLP--             - --->> 8=FIX.4.2|9=58|35=0|34=327|49=CNS_DECIDE|52=20211007-04:09:09.447|56=BLP|10=003|
11:10:08.815 INFO  CNS_DECIDE---BLP--             - <<--- 8=FIX.4.2|9=0054|35=0|49=BLP|56=CNS_DECIDE|34=328|52=20211007-04:10:08|10=138|
11:10:09.447 INFO  CNS_DECIDE---BLP--             - --->> 8=FIX.4.2|9=58|35=0|34=328|49=CNS_DECIDE|52=20211007-04:10:09.447|56=BLP|10=252|
11:11:08.815 INFO  CNS_DECIDE---BLP--             - <<--- 8=FIX.4.2|9=0054|35=0|49=BLP|56=CNS_DECIDE|34=329|52=20211007-04:11:08|10=140|
11:11:09.448 INFO  CNS_DECIDE---BLP--             - --->> 8=FIX.4.2|9=58|35=0|34=329|49=CNS_DECIDE|52=20211007-04:11:09.448|56=BLP|10=255|
11:12:08.818 INFO  CNS_DECIDE---BLP--             - <<--- 8=FIX.4.2|9=0054|35=0|49=BLP|56=CNS_DECIDE|34=330|52=20211007-04:12:08|10=133|
11:12:09.452 INFO  CNS_DECIDE---BLP--             - --->> 8=FIX.4.2|9=58|35=0|34=330|49=CNS_DECIDE|52=20211007-04:12:09.452|56=BLP|10=243|
11:13:08.818 INFO  CNS_DECIDE---BLP--             - <<--- 8=FIX.4.2|9=0054|35=0|49=BLP|56=CNS_DECIDE|34=331|52=20211007-04:13:08|10=135|
11:13:09.453 INFO  CNS_DECIDE---BLP--             - --->> 8=FIX.4.2|9=58|35=0|34=331|49=CNS_DECIDE|52=20211007-04:13:09.453|56=BLP|10=246|
11:14:08.819 INFO  CNS_DECIDE---BLP--             - <<--- 8=FIX.4.2|9=0054|35=0|49=BLP|56=CNS_DECIDE|34=332|52=20211007-04:14:08|10=137|
11:14:09.455 INFO  CNS_DECIDE---BLP--             - --->> 8=FIX.4.2|9=58|35=0|34=332|49=CNS_DECIDE|52=20211007-04:14:09.455|56=BLP|10=250|
11:15:08.822 INFO  CNS_DECIDE---BLP--             - <<--- 8=FIX.4.2|9=0054|35=0|49=BLP|56=CNS_DECIDE|34=333|52=20211007-04:15:08|10=139|
11:15:09.454 INFO  CNS_DECIDE---BLP--             - --->> 8=FIX.4.2|9=58|35=0|34=333|49=CNS_DECIDE|52=20211007-04:15:09.454|56=BLP|10=251|
11:16:08.823 INFO  CNS_DECIDE---BLP--             - <<--- 8=FIX.4.2|9=0054|35=0|49=BLP|56=CNS_DECIDE|34=334|52=20211007-04:16:08|10=141|
11:16:09.456 INFO  CNS_DECIDE---BLP--             - --->> 8=FIX.4.2|9=58|35=0|34=334|49=CNS_DECIDE|52=20211007-04:16:09.456|56=BLP|10=255|
11:17:08.823 INFO  CNS_DECIDE---BLP--             - <<--- 8=FIX.4.2|9=0054|35=0|49=BLP|56=CNS_DECIDE|34=335|52=20211007-04:17:08|10=143|
11:17:09.455 INFO  CNS_DECIDE---BLP--             - --->> 8=FIX.4.2|9=58|35=0|34=335|49=CNS_DECIDE|52=20211007-04:17:09.455|56=BLP|10=000|
11:18:08.823 INFO  CNS_DECIDE---BLP--             - <<--- 8=FIX.4.2|9=0054|35=0|49=BLP|56=CNS_DECIDE|34=336|52=20211007-04:18:08|10=145|
11:18:09.457 INFO  CNS_DECIDE---BLP--             - --->> 8=FIX.4.2|9=58|35=0|34=336|49=CNS_DECIDE|52=20211007-04:18:09.457|56=BLP|10=004|
11:19:08.824 INFO  CNS_DECIDE---BLP--             - <<--- 8=FIX.4.2|9=0054|35=0|49=BLP|56=CNS_DECIDE|34=337|52=20211007-04:19:08|10=147|
11:19:09.458 INFO  CNS_DECIDE---BLP--             - --->> 8=FIX.4.2|9=58|35=0|34=337|49=CNS_DECIDE|52=20211007-04:19:09.458|56=BLP|10=007|
11:20:08.823 INFO  CNS_DECIDE---BLP--             - <<--- 8=FIX.4.2|9=0054|35=0|49=BLP|56=CNS_DECIDE|34=338|52=20211007-04:20:08|10=140|
11:20:09.460 INFO  CNS_DECIDE---BLP--             - --->> 8=FIX.4.2|9=58|35=0|34=338|49=CNS_DECIDE|52=20211007-04:20:09.460|56=BLP|10=249|
11:21:08.824 INFO  CNS_DECIDE---BLP--             - <<--- 8=FIX.4.2|9=0054|35=0|49=BLP|56=CNS_DECIDE|34=339|52=20211007-04:21:08|10=142|
11:21:09.459 INFO  CNS_DECIDE---BLP--             - --->> 8=FIX.4.2|9=58|35=0|34=339|49=CNS_DECIDE|52=20211007-04:21:09.459|56=BLP|10=003|
11:22:08.826 INFO  CNS_DECIDE---BLP--             - <<--- 8=FIX.4.2|9=0054|35=0|49=BLP|56=CNS_DECIDE|34=340|52=20211007-04:22:08|10=135|
11:22:09.461 INFO  CNS_DECIDE---BLP--             - --->> 8=FIX.4.2|9=58|35=0|34=340|49=CNS_DECIDE|52=20211007-04:22:09.461|56=BLP|10=245|
11:23:08.823 INFO  CNS_DECIDE---BLP--             - <<--- 8=FIX.4.2|9=0054|35=0|49=BLP|56=CNS_DECIDE|34=341|52=20211007-04:23:08|10=137|
11:23:09.459 INFO  CNS_DECIDE---BLP--             - --->> 8=FIX.4.2|9=58|35=0|34=341|49=CNS_DECIDE|52=20211007-04:23:09.459|56=BLP|10=254|
11:24:08.823 INFO  CNS_DECIDE---BLP--             - <<--- 8=FIX.4.2|9=0054|35=0|49=BLP|56=CNS_DECIDE|34=342|52=20211007-04:24:08|10=139|
11:24:09.461 INFO  CNS_DECIDE---BLP--             - --->> 8=FIX.4.2|9=58|35=0|34=342|49=CNS_DECIDE|52=20211007-04:24:09.461|56=BLP|10=249|
11:25:08.822 INFO  CNS_DECIDE---BLP--             - <<--- 8=FIX.4.2|9=0054|35=0|49=BLP|56=CNS_DECIDE|34=343|52=20211007-04:25:08|10=141|
11:25:09.462 INFO  CNS_DECIDE---BLP--             - --->> 8=FIX.4.2|9=58|35=0|34=343|49=CNS_DECIDE|52=20211007-04:25:09.462|56=BLP|10=252|
11:26:08.821 INFO  CNS_DECIDE---BLP--             - <<--- 8=FIX.4.2|9=0054|35=0|49=BLP|56=CNS_DECIDE|34=344|52=20211007-04:26:08|10=143|
11:26:09.462 INFO  CNS_DECIDE---BLP--             - --->> 8=FIX.4.2|9=58|35=0|34=344|49=CNS_DECIDE|52=20211007-04:26:09.462|56=BLP|10=254|
11:27:08.822 INFO  CNS_DECIDE---BLP--             - <<--- 8=FIX.4.2|9=0054|35=0|49=BLP|56=CNS_DECIDE|34=345|52=20211007-04:27:08|10=145|
11:27:09.463 INFO  CNS_DECIDE---BLP--             - --->> 8=FIX.4.2|9=58|35=0|34=345|49=CNS_DECIDE|52=20211007-04:27:09.463|56=BLP|10=001|
11:28:08.822 INFO  CNS_DECIDE---BLP--             - <<--- 8=FIX.4.2|9=0054|35=0|49=BLP|56=CNS_DECIDE|34=346|52=20211007-04:28:08|10=147|
11:28:09.463 INFO  CNS_DECIDE---BLP--             - --->> 8=FIX.4.2|9=58|35=0|34=346|49=CNS_DECIDE|52=20211007-04:28:09.463|56=BLP|10=003|
11:29:08.823 INFO  CNS_DECIDE---BLP--             - <<--- 8=FIX.4.2|9=0054|35=0|49=BLP|56=CNS_DECIDE|34=347|52=20211007-04:29:08|10=149|
11:29:09.466 INFO  CNS_DECIDE---BLP--             - --->> 8=FIX.4.2|9=58|35=0|34=347|49=CNS_DECIDE|52=20211007-04:29:09.466|56=BLP|10=008|
11:30:08.823 INFO  CNS_DECIDE---BLP--             - <<--- 8=FIX.4.2|9=0054|35=0|49=BLP|56=CNS_DECIDE|34=348|52=20211007-04:30:08|10=142|
11:30:09.466 INFO  CNS_DECIDE---BLP--             - --->> 8=FIX.4.2|9=58|35=0|34=348|49=CNS_DECIDE|52=20211007-04:30:09.466|56=BLP|10=001|
11:31:08.823 INFO  CNS_DECIDE---BLP--             - <<--- 8=FIX.4.2|9=0054|35=0|49=BLP|56=CNS_DECIDE|34=349|52=20211007-04:31:08|10=144|
11:31:09.467 INFO  CNS_DECIDE---BLP--             - --->> 8=FIX.4.2|9=58|35=0|34=349|49=CNS_DECIDE|52=20211007-04:31:09.467|56=BLP|10=004|
