05:45:03.672 INFO  ROOT                           - *****  UNIVERSAL ADAPTER START  *****
05:45:03.678 DEBUG startup                        - UA Start
05:45:03.694 DEBUG GRF                            - GRF CD - enableCrossDayGRF=false
05:45:03.694 DEBUG GRF                            - GRF AO - enableAdvanceOrderGRF=false
05:45:03.695 DEBUG startup                        - fixDefaultRoutePattern={TargetCompID}-{SenderCompID}
05:45:03.695 DEBUG startup                        - defExchCode=KL
05:45:03.695 DEBUG startup                        - allowDefUnsolicitedOrderRoute=false
05:45:03.940 INFO  c.n.u.d.DemultiplexerFactory   - Clear Data
05:45:03.991 INFO  EBCGF_NOMURA                   - CNS_DECIDE-BLP default route to BLP
05:45:04.002 DEBUG ebcgf.BLP                      - executeWhatever=false
05:45:04.003 DEBUG ebcgf.BLP                      - receiveTradingSessionStatus=true
05:45:04.005 DEBUG ebcgf.BLP                      - Replace @vbPossDupFlag=DEFAULT^@vbPossDupFlag='N'^ to @vbPossDupFlag='Y'
05:45:04.022 TRACE ebcgf.BLP                      - Reset archiveDir - BLP
05:45:04.026 INFO  conf\database.EBCGF.cfg        - Start EbcgfService - SUCCESS
05:45:04.027 INFO  ebcgf.BLP                      - EXECUTE
05:45:04.028 DEBUG ebcgf.BLP                      - ConsumeQueueTask START [Thread[UAThreadPool-T2,5,main]]
05:45:04.258 INFO  c.n.u.d.DemultiplexerFactory   - Clear data done take 318ms
05:45:04.261 INFO  c.n.u.d.DemultiplexerFactory   - Test No Data - OK
05:45:04.578 DEBUG CNS_DECIDE---BLP--             - [evt] Session FIX.4.2:CNS_DECIDE->BLP schedule is daily, 22:00:00-UTC - 16:00:00-UTC
05:45:04.578 DEBUG CNS_DECIDE---BLP--             - [evt] Session state is not current; resetting FIX.4.2:CNS_DECIDE->BLP
05:45:04.910 DEBUG CNS_DECIDE---BLP--             - [evt] Created session: FIX.4.2:CNS_DECIDE->BLP
05:45:04.913 DEBUG c.n.u.fix.UAQuickFixInitiator  - Flow control reset mode 'ONCE LOGIN'
05:45:04.914 DEBUG CNS_DECIDE-BLP                 - receiveTradingSessionStatus=false
05:45:06.278 INFO  d.q.m.i.IoSessionInitiator     - [FIX.4.2:CNS_DECIDE->BLP] [/160.43.172.4:8228]
05:45:06.482 DEBUG riskFilter                     - priceRangeStart=null,priceRangeEnd=1.00,bidSize=0.005,stkCode=null,sectorCode=null
05:45:06.513 ERROR c.n.f.j.PriceFeedManagerUA     - QCFeedService Init Error -- com.n2n.qcfeed.NoConfigurationFound: No configurators available
05:45:07.286 INFO  CNS_DECIDE---BLP--             - --->> 8=FIX.4.2|9=68|35=A|34=1|49=CNS_DECIDE|52=20211011-22:45:07.284|56=BLP|98=0|108=60|10=190|
05:45:07.296 DEBUG CNS_DECIDE---BLP--             - [evt] Initiated logon request
05:45:08.817 INFO  CNS_DECIDE---BLP--             - <<--- 8=FIX.4.2|9=0064|35=A|49=BLP|56=CNS_DECIDE|34=1|52=20211011-22:45:08|98=0|108=60|10=079|
05:45:08.818 INFO  CNS_DECIDE---BLP--             - <<--- 8=FIX.4.2|9=0080|35=1|49=BLP|56=CNS_DECIDE|34=2|52=20211011-22:45:08|112=L.0001.0003.0002.224508|10=115|
05:45:08.819 DEBUG CNS_DECIDE---BLP--             - [evt] Received logon
05:45:08.822 TRACE CNS_DECIDE-BLP                 - Reset archiveDir - CNS_DECIDE-BLP
05:45:08.825 DEBUG CNS_DECIDE-BLP                 - CNS_DECIDE-BLP flow control start
05:45:08.826 INFO  CNS_DECIDE---BLP--             - --->> 8=FIX.4.2|9=84|35=0|34=2|49=CNS_DECIDE|52=20211011-22:45:08.825|56=BLP|112=L.0001.0003.0002.224508|10=227|
05:45:08.828 DEBUG CNS_DECIDE-BLP                 - Not today message, skip
05:45:09.120 INFO  CNS_DECIDE---BLP--             - <<--- 8=FIX.4.2|9=0080|35=1|49=BLP|56=CNS_DECIDE|34=3|52=20211011-22:45:08|112=A.0004.0004.0003.224508|10=110|
05:45:09.120 INFO  CNS_DECIDE---BLP--             - --->> 8=FIX.4.2|9=84|35=0|34=3|49=CNS_DECIDE|52=20211011-22:45:09.120|56=BLP|112=A.0004.0004.0003.224508|10=211|
05:46:09.115 INFO  CNS_DECIDE---BLP--             - <<--- 8=FIX.4.2|9=0052|35=0|49=BLP|56=CNS_DECIDE|34=4|52=20211011-22:46:08|10=035|
05:46:09.116 INFO  CNS_DECIDE---BLP--             - --->> 8=FIX.4.2|9=56|35=0|34=4|49=CNS_DECIDE|52=20211011-22:46:09.116|56=BLP|10=142|
05:47:09.115 INFO  CNS_DECIDE---BLP--             - <<--- 8=FIX.4.2|9=0052|35=0|49=BLP|56=CNS_DECIDE|34=5|52=20211011-22:47:08|10=037|
05:47:09.116 INFO  CNS_DECIDE---BLP--             - --->> 8=FIX.4.2|9=56|35=0|34=5|49=CNS_DECIDE|52=20211011-22:47:09.116|56=BLP|10=144|
05:48:09.115 INFO  CNS_DECIDE---BLP--             - <<--- 8=FIX.4.2|9=0052|35=0|49=BLP|56=CNS_DECIDE|34=6|52=20211011-22:48:08|10=039|
05:48:09.116 INFO  CNS_DECIDE---BLP--             - --->> 8=FIX.4.2|9=56|35=0|34=6|49=CNS_DECIDE|52=20211011-22:48:09.115|56=BLP|10=145|
05:49:09.116 INFO  CNS_DECIDE---BLP--             - <<--- 8=FIX.4.2|9=0052|35=0|49=BLP|56=CNS_DECIDE|34=7|52=20211011-22:49:08|10=041|
05:49:09.117 INFO  CNS_DECIDE---BLP--             - --->> 8=FIX.4.2|9=56|35=0|34=7|49=CNS_DECIDE|52=20211011-22:49:09.117|56=BLP|10=149|
05:50:09.116 INFO  CNS_DECIDE---BLP--             - <<--- 8=FIX.4.2|9=0052|35=0|49=BLP|56=CNS_DECIDE|34=8|52=20211011-22:50:08|10=034|
05:50:09.117 INFO  CNS_DECIDE---BLP--             - --->> 8=FIX.4.2|9=56|35=0|34=8|49=CNS_DECIDE|52=20211011-22:50:09.117|56=BLP|10=142|
05:51:09.116 INFO  CNS_DECIDE---BLP--             - <<--- 8=FIX.4.2|9=0052|35=0|49=BLP|56=CNS_DECIDE|34=9|52=20211011-22:51:08|10=036|
05:51:09.117 INFO  CNS_DECIDE---BLP--             - --->> 8=FIX.4.2|9=56|35=0|34=9|49=CNS_DECIDE|52=20211011-22:51:09.117|56=BLP|10=144|
05:52:09.116 INFO  CNS_DECIDE---BLP--             - <<--- 8=FIX.4.2|9=0053|35=0|49=BLP|56=CNS_DECIDE|34=10|52=20211011-22:52:08|10=078|
05:52:09.117 INFO  CNS_DECIDE---BLP--             - --->> 8=FIX.4.2|9=57|35=0|34=10|49=CNS_DECIDE|52=20211011-22:52:09.117|56=BLP|10=186|
05:53:09.117 INFO  CNS_DECIDE---BLP--             - <<--- 8=FIX.4.2|9=0053|35=0|49=BLP|56=CNS_DECIDE|34=11|52=20211011-22:53:08|10=080|
05:53:09.118 INFO  CNS_DECIDE---BLP--             - --->> 8=FIX.4.2|9=57|35=0|34=11|49=CNS_DECIDE|52=20211011-22:53:09.118|56=BLP|10=189|
05:54:09.113 INFO  CNS_DECIDE---BLP--             - <<--- 8=FIX.4.2|9=0053|35=0|49=BLP|56=CNS_DECIDE|34=12|52=20211011-22:54:08|10=082|
05:54:09.114 INFO  CNS_DECIDE---BLP--             - --->> 8=FIX.4.2|9=57|35=0|34=12|49=CNS_DECIDE|52=20211011-22:54:09.114|56=BLP|10=187|
05:55:09.114 INFO  CNS_DECIDE---BLP--             - <<--- 8=FIX.4.2|9=0053|35=0|49=BLP|56=CNS_DECIDE|34=13|52=20211011-22:55:08|10=084|
05:55:09.115 INFO  CNS_DECIDE---BLP--             - --->> 8=FIX.4.2|9=57|35=0|34=13|49=CNS_DECIDE|52=20211011-22:55:09.115|56=BLP|10=190|
05:56:09.114 INFO  CNS_DECIDE---BLP--             - <<--- 8=FIX.4.2|9=0053|35=0|49=BLP|56=CNS_DECIDE|34=14|52=20211011-22:56:08|10=086|
05:56:09.115 INFO  CNS_DECIDE---BLP--             - --->> 8=FIX.4.2|9=57|35=0|34=14|49=CNS_DECIDE|52=20211011-22:56:09.115|56=BLP|10=192|
05:57:09.114 INFO  CNS_DECIDE---BLP--             - <<--- 8=FIX.4.2|9=0053|35=0|49=BLP|56=CNS_DECIDE|34=15|52=20211011-22:57:08|10=088|
05:57:09.115 INFO  CNS_DECIDE---BLP--             - --->> 8=FIX.4.2|9=57|35=0|34=15|49=CNS_DECIDE|52=20211011-22:57:09.115|56=BLP|10=194|
05:58:09.115 INFO  CNS_DECIDE---BLP--             - <<--- 8=FIX.4.2|9=0053|35=0|49=BLP|56=CNS_DECIDE|34=16|52=20211011-22:58:08|10=090|
05:58:09.116 INFO  CNS_DECIDE---BLP--             - --->> 8=FIX.4.2|9=57|35=0|34=16|49=CNS_DECIDE|52=20211011-22:58:09.116|56=BLP|10=197|
05:59:09.115 INFO  CNS_DECIDE---BLP--             - <<--- 8=FIX.4.2|9=0053|35=0|49=BLP|56=CNS_DECIDE|34=17|52=20211011-22:59:08|10=092|
05:59:09.116 INFO  CNS_DECIDE---BLP--             - --->> 8=FIX.4.2|9=57|35=0|34=17|49=CNS_DECIDE|52=20211011-22:59:09.116|56=BLP|10=199|
06:00:09.115 INFO  CNS_DECIDE---BLP--             - <<--- 8=FIX.4.2|9=0053|35=0|49=BLP|56=CNS_DECIDE|34=18|52=20211011-23:00:08|10=080|
06:00:09.116 INFO  CNS_DECIDE---BLP--             - --->> 8=FIX.4.2|9=57|35=0|34=18|49=CNS_DECIDE|52=20211011-23:00:09.116|56=BLP|10=187|
06:01:09.116 INFO  CNS_DECIDE---BLP--             - <<--- 8=FIX.4.2|9=0053|35=0|49=BLP|56=CNS_DECIDE|34=19|52=20211011-23:01:08|10=082|
06:01:09.117 INFO  CNS_DECIDE---BLP--             - --->> 8=FIX.4.2|9=57|35=0|34=19|49=CNS_DECIDE|52=20211011-23:01:09.117|56=BLP|10=190|
06:02:09.116 INFO  CNS_DECIDE---BLP--             - <<--- 8=FIX.4.2|9=0053|35=0|49=BLP|56=CNS_DECIDE|34=20|52=20211011-23:02:08|10=075|
06:02:09.117 INFO  CNS_DECIDE---BLP--             - --->> 8=FIX.4.2|9=57|35=0|34=20|49=CNS_DECIDE|52=20211011-23:02:09.117|56=BLP|10=183|
06:03:09.117 INFO  CNS_DECIDE---BLP--             - <<--- 8=FIX.4.2|9=0053|35=0|49=BLP|56=CNS_DECIDE|34=21|52=20211011-23:03:08|10=077|
06:03:09.118 INFO  CNS_DECIDE---BLP--             - --->> 8=FIX.4.2|9=57|35=0|34=21|49=CNS_DECIDE|52=20211011-23:03:09.118|56=BLP|10=186|
06:04:09.120 INFO  CNS_DECIDE---BLP--             - <<--- 8=FIX.4.2|9=0053|35=0|49=BLP|56=CNS_DECIDE|34=22|52=20211011-23:04:08|10=079|
06:04:09.121 INFO  CNS_DECIDE---BLP--             - --->> 8=FIX.4.2|9=57|35=0|34=22|49=CNS_DECIDE|52=20211011-23:04:09.121|56=BLP|10=182|
06:05:09.121 INFO  CNS_DECIDE---BLP--             - <<--- 8=FIX.4.2|9=0053|35=0|49=BLP|56=CNS_DECIDE|34=23|52=20211011-23:05:08|10=081|
06:05:09.122 INFO  CNS_DECIDE---BLP--             - --->> 8=FIX.4.2|9=57|35=0|34=23|49=CNS_DECIDE|52=20211011-23:05:09.122|56=BLP|10=185|
06:06:09.123 INFO  CNS_DECIDE---BLP--             - <<--- 8=FIX.4.2|9=0053|35=0|49=BLP|56=CNS_DECIDE|34=24|52=20211011-23:06:08|10=083|
06:06:09.124 INFO  CNS_DECIDE---BLP--             - --->> 8=FIX.4.2|9=57|35=0|34=24|49=CNS_DECIDE|52=20211011-23:06:09.124|56=BLP|10=189|
06:07:09.124 INFO  CNS_DECIDE---BLP--             - <<--- 8=FIX.4.2|9=0053|35=0|49=BLP|56=CNS_DECIDE|34=25|52=20211011-23:07:08|10=085|
06:07:09.125 INFO  CNS_DECIDE---BLP--             - --->> 8=FIX.4.2|9=57|35=0|34=25|49=CNS_DECIDE|52=20211011-23:07:09.125|56=BLP|10=192|
06:08:09.124 INFO  CNS_DECIDE---BLP--             - <<--- 8=FIX.4.2|9=0053|35=0|49=BLP|56=CNS_DECIDE|34=26|52=20211011-23:08:08|10=087|
06:08:09.125 INFO  CNS_DECIDE---BLP--             - --->> 8=FIX.4.2|9=57|35=0|34=26|49=CNS_DECIDE|52=20211011-23:08:09.125|56=BLP|10=194|
06:09:09.125 INFO  CNS_DECIDE---BLP--             - <<--- 8=FIX.4.2|9=0053|35=0|49=BLP|56=CNS_DECIDE|34=27|52=20211011-23:09:08|10=089|
06:09:09.126 INFO  CNS_DECIDE---BLP--             - --->> 8=FIX.4.2|9=57|35=0|34=27|49=CNS_DECIDE|52=20211011-23:09:09.126|56=BLP|10=197|
06:10:09.125 INFO  CNS_DECIDE---BLP--             - <<--- 8=FIX.4.2|9=0053|35=0|49=BLP|56=CNS_DECIDE|34=28|52=20211011-23:10:08|10=082|
06:10:09.126 INFO  CNS_DECIDE---BLP--             - --->> 8=FIX.4.2|9=57|35=0|34=28|49=CNS_DECIDE|52=20211011-23:10:09.126|56=BLP|10=190|
06:11:09.126 INFO  CNS_DECIDE---BLP--             - <<--- 8=FIX.4.2|9=0053|35=0|49=BLP|56=CNS_DECIDE|34=29|52=20211011-23:11:08|10=084|
06:11:09.127 INFO  CNS_DECIDE---BLP--             - --->> 8=FIX.4.2|9=57|35=0|34=29|49=CNS_DECIDE|52=20211011-23:11:09.127|56=BLP|10=193|
06:12:09.125 INFO  CNS_DECIDE---BLP--             - <<--- 8=FIX.4.2|9=0053|35=0|49=BLP|56=CNS_DECIDE|34=30|52=20211011-23:12:08|10=077|
06:12:09.126 INFO  CNS_DECIDE---BLP--             - --->> 8=FIX.4.2|9=57|35=0|34=30|49=CNS_DECIDE|52=20211011-23:12:09.126|56=BLP|10=185|
06:13:09.126 INFO  CNS_DECIDE---BLP--             - <<--- 8=FIX.4.2|9=0053|35=0|49=BLP|56=CNS_DECIDE|34=31|52=20211011-23:13:08|10=079|
06:13:09.127 INFO  CNS_DECIDE---BLP--             - --->> 8=FIX.4.2|9=57|35=0|34=31|49=CNS_DECIDE|52=20211011-23:13:09.127|56=BLP|10=188|
06:14:09.132 INFO  CNS_DECIDE---BLP--             - <<--- 8=FIX.4.2|9=0053|35=0|49=BLP|56=CNS_DECIDE|34=32|52=20211011-23:14:08|10=081|
06:14:09.134 INFO  CNS_DECIDE---BLP--             - --->> 8=FIX.4.2|9=57|35=0|34=32|49=CNS_DECIDE|52=20211011-23:14:09.133|56=BLP|10=187|
06:15:09.133 INFO  CNS_DECIDE---BLP--             - <<--- 8=FIX.4.2|9=0053|35=0|49=BLP|56=CNS_DECIDE|34=33|52=20211011-23:15:08|10=083|
06:15:09.134 INFO  CNS_DECIDE---BLP--             - --->> 8=FIX.4.2|9=57|35=0|34=33|49=CNS_DECIDE|52=20211011-23:15:09.134|56=BLP|10=190|
06:16:09.134 INFO  CNS_DECIDE---BLP--             - <<--- 8=FIX.4.2|9=0053|35=0|49=BLP|56=CNS_DECIDE|34=34|52=20211011-23:16:08|10=085|
06:16:09.135 INFO  CNS_DECIDE---BLP--             - --->> 8=FIX.4.2|9=57|35=0|34=34|49=CNS_DECIDE|52=20211011-23:16:09.134|56=BLP|10=192|
06:17:09.133 INFO  CNS_DECIDE---BLP--             - <<--- 8=FIX.4.2|9=0053|35=0|49=BLP|56=CNS_DECIDE|34=35|52=20211011-23:17:08|10=087|
06:17:09.134 INFO  CNS_DECIDE---BLP--             - --->> 8=FIX.4.2|9=57|35=0|34=35|49=CNS_DECIDE|52=20211011-23:17:09.134|56=BLP|10=194|
06:18:09.133 INFO  CNS_DECIDE---BLP--             - <<--- 8=FIX.4.2|9=0053|35=0|49=BLP|56=CNS_DECIDE|34=36|52=20211011-23:18:08|10=089|
06:18:09.134 INFO  CNS_DECIDE---BLP--             - --->> 8=FIX.4.2|9=57|35=0|34=36|49=CNS_DECIDE|52=20211011-23:18:09.134|56=BLP|10=196|
06:19:09.134 INFO  CNS_DECIDE---BLP--             - <<--- 8=FIX.4.2|9=0053|35=0|49=BLP|56=CNS_DECIDE|34=37|52=20211011-23:19:08|10=091|
06:19:09.134 INFO  CNS_DECIDE---BLP--             - --->> 8=FIX.4.2|9=57|35=0|34=37|49=CNS_DECIDE|52=20211011-23:19:09.134|56=BLP|10=198|
06:20:09.134 INFO  CNS_DECIDE---BLP--             - <<--- 8=FIX.4.2|9=0053|35=0|49=BLP|56=CNS_DECIDE|34=38|52=20211011-23:20:08|10=084|
06:20:09.134 INFO  CNS_DECIDE---BLP--             - --->> 8=FIX.4.2|9=57|35=0|34=38|49=CNS_DECIDE|52=20211011-23:20:09.134|56=BLP|10=191|
06:21:09.133 INFO  CNS_DECIDE---BLP--             - <<--- 8=FIX.4.2|9=0053|35=0|49=BLP|56=CNS_DECIDE|34=39|52=20211011-23:21:08|10=086|
06:21:09.134 INFO  CNS_DECIDE---BLP--             - --->> 8=FIX.4.2|9=57|35=0|34=39|49=CNS_DECIDE|52=20211011-23:21:09.133|56=BLP|10=192|
06:22:09.133 INFO  CNS_DECIDE---BLP--             - <<--- 8=FIX.4.2|9=0053|35=0|49=BLP|56=CNS_DECIDE|34=40|52=20211011-23:22:08|10=079|
06:22:09.134 INFO  CNS_DECIDE---BLP--             - --->> 8=FIX.4.2|9=57|35=0|34=40|49=CNS_DECIDE|52=20211011-23:22:09.134|56=BLP|10=186|
06:23:09.133 INFO  CNS_DECIDE---BLP--             - <<--- 8=FIX.4.2|9=0053|35=0|49=BLP|56=CNS_DECIDE|34=41|52=20211011-23:23:08|10=081|
06:23:09.134 INFO  CNS_DECIDE---BLP--             - --->> 8=FIX.4.2|9=57|35=0|34=41|49=CNS_DECIDE|52=20211011-23:23:09.134|56=BLP|10=188|
06:24:09.139 INFO  CNS_DECIDE---BLP--             - <<--- 8=FIX.4.2|9=0053|35=0|49=BLP|56=CNS_DECIDE|34=42|52=20211011-23:24:08|10=083|
06:24:09.140 INFO  CNS_DECIDE---BLP--             - --->> 8=FIX.4.2|9=57|35=0|34=42|49=CNS_DECIDE|52=20211011-23:24:09.140|56=BLP|10=187|
06:25:09.139 INFO  CNS_DECIDE---BLP--             - <<--- 8=FIX.4.2|9=0053|35=0|49=BLP|56=CNS_DECIDE|34=43|52=20211011-23:25:08|10=085|
06:25:09.140 INFO  CNS_DECIDE---BLP--             - --->> 8=FIX.4.2|9=57|35=0|34=43|49=CNS_DECIDE|52=20211011-23:25:09.140|56=BLP|10=189|
06:26:09.140 INFO  CNS_DECIDE---BLP--             - <<--- 8=FIX.4.2|9=0053|35=0|49=BLP|56=CNS_DECIDE|34=44|52=20211011-23:26:08|10=087|
06:26:09.141 INFO  CNS_DECIDE---BLP--             - --->> 8=FIX.4.2|9=57|35=0|34=44|49=CNS_DECIDE|52=20211011-23:26:09.141|56=BLP|10=192|
06:27:09.131 INFO  CNS_DECIDE---BLP--             - <<--- 8=FIX.4.2|9=0053|35=0|49=BLP|56=CNS_DECIDE|34=45|52=20211011-23:27:08|10=089|
06:27:09.132 INFO  CNS_DECIDE---BLP--             - --->> 8=FIX.4.2|9=57|35=0|34=45|49=CNS_DECIDE|52=20211011-23:27:09.132|56=BLP|10=194|
06:28:09.130 INFO  CNS_DECIDE---BLP--             - <<--- 8=FIX.4.2|9=0053|35=0|49=BLP|56=CNS_DECIDE|34=46|52=20211011-23:28:08|10=091|
06:28:09.131 INFO  CNS_DECIDE---BLP--             - --->> 8=FIX.4.2|9=57|35=0|34=46|49=CNS_DECIDE|52=20211011-23:28:09.131|56=BLP|10=195|
06:29:09.131 INFO  CNS_DECIDE---BLP--             - <<--- 8=FIX.4.2|9=0053|35=0|49=BLP|56=CNS_DECIDE|34=47|52=20211011-23:29:08|10=093|
06:29:09.131 INFO  CNS_DECIDE---BLP--             - --->> 8=FIX.4.2|9=57|35=0|34=47|49=CNS_DECIDE|52=20211011-23:29:09.131|56=BLP|10=197|
06:30:09.131 INFO  CNS_DECIDE---BLP--             - <<--- 8=FIX.4.2|9=0053|35=0|49=BLP|56=CNS_DECIDE|34=48|52=20211011-23:30:08|10=086|
06:30:09.132 INFO  CNS_DECIDE---BLP--             - --->> 8=FIX.4.2|9=57|35=0|34=48|49=CNS_DECIDE|52=20211011-23:30:09.132|56=BLP|10=191|
06:31:09.132 INFO  CNS_DECIDE---BLP--             - <<--- 8=FIX.4.2|9=0053|35=0|49=BLP|56=CNS_DECIDE|34=49|52=20211011-23:31:08|10=088|
06:31:09.133 INFO  CNS_DECIDE---BLP--             - --->> 8=FIX.4.2|9=57|35=0|34=49|49=CNS_DECIDE|52=20211011-23:31:09.133|56=BLP|10=194|
06:32:09.132 INFO  CNS_DECIDE---BLP--             - <<--- 8=FIX.4.2|9=0053|35=0|49=BLP|56=CNS_DECIDE|34=50|52=20211011-23:32:08|10=081|
06:32:09.133 INFO  CNS_DECIDE---BLP--             - --->> 8=FIX.4.2|9=57|35=0|34=50|49=CNS_DECIDE|52=20211011-23:32:09.133|56=BLP|10=187|
06:33:09.132 INFO  CNS_DECIDE---BLP--             - <<--- 8=FIX.4.2|9=0053|35=0|49=BLP|56=CNS_DECIDE|34=51|52=20211011-23:33:08|10=083|
06:33:09.133 INFO  CNS_DECIDE---BLP--             - --->> 8=FIX.4.2|9=57|35=0|34=51|49=CNS_DECIDE|52=20211011-23:33:09.133|56=BLP|10=189|
06:34:09.131 INFO  CNS_DECIDE---BLP--             - <<--- 8=FIX.4.2|9=0053|35=0|49=BLP|56=CNS_DECIDE|34=52|52=20211011-23:34:08|10=085|
06:34:09.132 INFO  CNS_DECIDE---BLP--             - --->> 8=FIX.4.2|9=57|35=0|34=52|49=CNS_DECIDE|52=20211011-23:34:09.132|56=BLP|10=190|
06:35:09.131 INFO  CNS_DECIDE---BLP--             - <<--- 8=FIX.4.2|9=0053|35=0|49=BLP|56=CNS_DECIDE|34=53|52=20211011-23:35:08|10=087|
06:35:09.132 INFO  CNS_DECIDE---BLP--             - --->> 8=FIX.4.2|9=57|35=0|34=53|49=CNS_DECIDE|52=20211011-23:35:09.132|56=BLP|10=192|
06:36:09.131 INFO  CNS_DECIDE---BLP--             - <<--- 8=FIX.4.2|9=0053|35=0|49=BLP|56=CNS_DECIDE|34=54|52=20211011-23:36:08|10=089|
06:36:09.132 INFO  CNS_DECIDE---BLP--             - --->> 8=FIX.4.2|9=57|35=0|34=54|49=CNS_DECIDE|52=20211011-23:36:09.132|56=BLP|10=194|
06:37:09.132 INFO  CNS_DECIDE---BLP--             - <<--- 8=FIX.4.2|9=0053|35=0|49=BLP|56=CNS_DECIDE|34=55|52=20211011-23:37:08|10=091|
06:37:09.132 INFO  CNS_DECIDE---BLP--             - --->> 8=FIX.4.2|9=57|35=0|34=55|49=CNS_DECIDE|52=20211011-23:37:09.132|56=BLP|10=196|
06:38:09.132 INFO  CNS_DECIDE---BLP--             - <<--- 8=FIX.4.2|9=0053|35=0|49=BLP|56=CNS_DECIDE|34=56|52=20211011-23:38:08|10=093|
06:38:09.133 INFO  CNS_DECIDE---BLP--             - --->> 8=FIX.4.2|9=57|35=0|34=56|49=CNS_DECIDE|52=20211011-23:38:09.133|56=BLP|10=199|
06:39:09.133 INFO  CNS_DECIDE---BLP--             - <<--- 8=FIX.4.2|9=0053|35=0|49=BLP|56=CNS_DECIDE|34=57|52=20211011-23:39:08|10=095|
06:39:09.134 INFO  CNS_DECIDE---BLP--             - --->> 8=FIX.4.2|9=57|35=0|34=57|49=CNS_DECIDE|52=20211011-23:39:09.134|56=BLP|10=202|
06:40:09.132 INFO  CNS_DECIDE---BLP--             - <<--- 8=FIX.4.2|9=0053|35=0|49=BLP|56=CNS_DECIDE|34=58|52=20211011-23:40:08|10=088|
06:40:09.133 INFO  CNS_DECIDE---BLP--             - --->> 8=FIX.4.2|9=57|35=0|34=58|49=CNS_DECIDE|52=20211011-23:40:09.133|56=BLP|10=194|
06:41:09.133 INFO  CNS_DECIDE---BLP--             - <<--- 8=FIX.4.2|9=0053|35=0|49=BLP|56=CNS_DECIDE|34=59|52=20211011-23:41:08|10=090|
06:41:09.134 INFO  CNS_DECIDE---BLP--             - --->> 8=FIX.4.2|9=57|35=0|34=59|49=CNS_DECIDE|52=20211011-23:41:09.134|56=BLP|10=197|
06:42:09.133 INFO  CNS_DECIDE---BLP--             - <<--- 8=FIX.4.2|9=0053|35=0|49=BLP|56=CNS_DECIDE|34=60|52=20211011-23:42:08|10=083|
06:42:09.134 INFO  CNS_DECIDE---BLP--             - --->> 8=FIX.4.2|9=57|35=0|34=60|49=CNS_DECIDE|52=20211011-23:42:09.134|56=BLP|10=190|
06:43:09.134 INFO  CNS_DECIDE---BLP--             - <<--- 8=FIX.4.2|9=0053|35=0|49=BLP|56=CNS_DECIDE|34=61|52=20211011-23:43:08|10=085|
06:43:09.135 INFO  CNS_DECIDE---BLP--             - --->> 8=FIX.4.2|9=57|35=0|34=61|49=CNS_DECIDE|52=20211011-23:43:09.135|56=BLP|10=193|
06:44:09.133 INFO  CNS_DECIDE---BLP--             - <<--- 8=FIX.4.2|9=0053|35=0|49=BLP|56=CNS_DECIDE|34=62|52=20211011-23:44:08|10=087|
06:44:09.133 INFO  CNS_DECIDE---BLP--             - --->> 8=FIX.4.2|9=57|35=0|34=62|49=CNS_DECIDE|52=20211011-23:44:09.133|56=BLP|10=193|
06:45:09.133 INFO  CNS_DECIDE---BLP--             - <<--- 8=FIX.4.2|9=0053|35=0|49=BLP|56=CNS_DECIDE|34=63|52=20211011-23:45:08|10=089|
06:45:09.134 INFO  CNS_DECIDE---BLP--             - --->> 8=FIX.4.2|9=57|35=0|34=63|49=CNS_DECIDE|52=20211011-23:45:09.134|56=BLP|10=196|
06:46:09.133 INFO  CNS_DECIDE---BLP--             - <<--- 8=FIX.4.2|9=0053|35=0|49=BLP|56=CNS_DECIDE|34=64|52=20211011-23:46:08|10=091|
06:46:09.134 INFO  CNS_DECIDE---BLP--             - --->> 8=FIX.4.2|9=57|35=0|34=64|49=CNS_DECIDE|52=20211011-23:46:09.134|56=BLP|10=198|
06:47:09.133 INFO  CNS_DECIDE---BLP--             - <<--- 8=FIX.4.2|9=0053|35=0|49=BLP|56=CNS_DECIDE|34=65|52=20211011-23:47:08|10=093|
06:47:09.134 INFO  CNS_DECIDE---BLP--             - --->> 8=FIX.4.2|9=57|35=0|34=65|49=CNS_DECIDE|52=20211011-23:47:09.134|56=BLP|10=200|
06:48:09.134 INFO  CNS_DECIDE---BLP--             - <<--- 8=FIX.4.2|9=0053|35=0|49=BLP|56=CNS_DECIDE|34=66|52=20211011-23:48:08|10=095|
06:48:09.134 INFO  CNS_DECIDE---BLP--             - --->> 8=FIX.4.2|9=57|35=0|34=66|49=CNS_DECIDE|52=20211011-23:48:09.134|56=BLP|10=202|
06:49:09.137 INFO  CNS_DECIDE---BLP--             - <<--- 8=FIX.4.2|9=0053|35=0|49=BLP|56=CNS_DECIDE|34=67|52=20211011-23:49:08|10=097|
06:49:09.138 INFO  CNS_DECIDE---BLP--             - --->> 8=FIX.4.2|9=57|35=0|34=67|49=CNS_DECIDE|52=20211011-23:49:09.138|56=BLP|10=208|
06:50:09.137 INFO  CNS_DECIDE---BLP--             - <<--- 8=FIX.4.2|9=0053|35=0|49=BLP|56=CNS_DECIDE|34=68|52=20211011-23:50:08|10=090|
06:50:09.138 INFO  CNS_DECIDE---BLP--             - --->> 8=FIX.4.2|9=57|35=0|34=68|49=CNS_DECIDE|52=20211011-23:50:09.138|56=BLP|10=201|
06:51:09.137 INFO  CNS_DECIDE---BLP--             - <<--- 8=FIX.4.2|9=0053|35=0|49=BLP|56=CNS_DECIDE|34=69|52=20211011-23:51:08|10=092|
06:51:09.138 INFO  CNS_DECIDE---BLP--             - --->> 8=FIX.4.2|9=57|35=0|34=69|49=CNS_DECIDE|52=20211011-23:51:09.138|56=BLP|10=203|
06:52:09.138 INFO  CNS_DECIDE---BLP--             - <<--- 8=FIX.4.2|9=0053|35=0|49=BLP|56=CNS_DECIDE|34=70|52=20211011-23:52:08|10=085|
06:52:09.139 INFO  CNS_DECIDE---BLP--             - --->> 8=FIX.4.2|9=57|35=0|34=70|49=CNS_DECIDE|52=20211011-23:52:09.139|56=BLP|10=197|
06:53:09.139 INFO  CNS_DECIDE---BLP--             - <<--- 8=FIX.4.2|9=0053|35=0|49=BLP|56=CNS_DECIDE|34=71|52=20211011-23:53:08|10=087|
06:53:09.139 INFO  CNS_DECIDE---BLP--             - --->> 8=FIX.4.2|9=57|35=0|34=71|49=CNS_DECIDE|52=20211011-23:53:09.139|56=BLP|10=199|
06:54:09.140 INFO  CNS_DECIDE---BLP--             - <<--- 8=FIX.4.2|9=0053|35=0|49=BLP|56=CNS_DECIDE|34=72|52=20211011-23:54:08|10=089|
06:54:09.141 INFO  CNS_DECIDE---BLP--             - --->> 8=FIX.4.2|9=57|35=0|34=72|49=CNS_DECIDE|52=20211011-23:54:09.141|56=BLP|10=194|
06:55:09.141 INFO  CNS_DECIDE---BLP--             - <<--- 8=FIX.4.2|9=0053|35=0|49=BLP|56=CNS_DECIDE|34=73|52=20211011-23:55:08|10=091|
06:55:09.142 INFO  CNS_DECIDE---BLP--             - --->> 8=FIX.4.2|9=57|35=0|34=73|49=CNS_DECIDE|52=20211011-23:55:09.142|56=BLP|10=197|
06:56:09.141 INFO  CNS_DECIDE---BLP--             - <<--- 8=FIX.4.2|9=0053|35=0|49=BLP|56=CNS_DECIDE|34=74|52=20211011-23:56:08|10=093|
06:56:09.142 INFO  CNS_DECIDE---BLP--             - --->> 8=FIX.4.2|9=57|35=0|34=74|49=CNS_DECIDE|52=20211011-23:56:09.142|56=BLP|10=199|
06:57:09.142 INFO  CNS_DECIDE---BLP--             - <<--- 8=FIX.4.2|9=0053|35=0|49=BLP|56=CNS_DECIDE|34=75|52=20211011-23:57:08|10=095|
06:57:09.142 INFO  CNS_DECIDE---BLP--             - --->> 8=FIX.4.2|9=57|35=0|34=75|49=CNS_DECIDE|52=20211011-23:57:09.142|56=BLP|10=201|
06:58:09.132 INFO  CNS_DECIDE---BLP--             - <<--- 8=FIX.4.2|9=0053|35=0|49=BLP|56=CNS_DECIDE|34=76|52=20211011-23:58:08|10=097|
06:58:09.349 INFO  CNS_DECIDE---BLP--             - --->> 8=FIX.4.2|9=57|35=0|34=76|49=CNS_DECIDE|52=20211011-23:58:09.349|56=BLP|10=212|
06:59:09.132 INFO  CNS_DECIDE---BLP--             - <<--- 8=FIX.4.2|9=0053|35=0|49=BLP|56=CNS_DECIDE|34=77|52=20211011-23:59:08|10=099|
06:59:09.348 INFO  CNS_DECIDE---BLP--             - --->> 8=FIX.4.2|9=57|35=0|34=77|49=CNS_DECIDE|52=20211011-23:59:09.348|56=BLP|10=213|
07:00:09.132 INFO  CNS_DECIDE---BLP--             - <<--- 8=FIX.4.2|9=0053|35=0|49=BLP|56=CNS_DECIDE|34=78|52=20211012-00:00:08|10=082|
07:00:09.350 INFO  CNS_DECIDE---BLP--             - --->> 8=FIX.4.2|9=57|35=0|34=78|49=CNS_DECIDE|52=20211012-00:00:09.350|56=BLP|10=189|
07:01:09.133 INFO  CNS_DECIDE---BLP--             - <<--- 8=FIX.4.2|9=0053|35=0|49=BLP|56=CNS_DECIDE|34=79|52=20211012-00:01:08|10=084|
07:01:09.350 INFO  CNS_DECIDE---BLP--             - --->> 8=FIX.4.2|9=57|35=0|34=79|49=CNS_DECIDE|52=20211012-00:01:09.350|56=BLP|10=191|
07:02:09.133 INFO  CNS_DECIDE---BLP--             - <<--- 8=FIX.4.2|9=0053|35=0|49=BLP|56=CNS_DECIDE|34=80|52=20211012-00:02:08|10=077|
07:02:09.351 INFO  CNS_DECIDE---BLP--             - --->> 8=FIX.4.2|9=57|35=0|34=80|49=CNS_DECIDE|52=20211012-00:02:09.351|56=BLP|10=185|
07:03:09.134 INFO  CNS_DECIDE---BLP--             - <<--- 8=FIX.4.2|9=0053|35=0|49=BLP|56=CNS_DECIDE|34=81|52=20211012-00:03:08|10=079|
07:03:09.353 INFO  CNS_DECIDE---BLP--             - --->> 8=FIX.4.2|9=57|35=0|34=81|49=CNS_DECIDE|52=20211012-00:03:09.353|56=BLP|10=189|
07:04:09.139 INFO  CNS_DECIDE---BLP--             - <<--- 8=FIX.4.2|9=0053|35=0|49=BLP|56=CNS_DECIDE|34=82|52=20211012-00:04:08|10=081|
07:04:09.353 INFO  CNS_DECIDE---BLP--             - --->> 8=FIX.4.2|9=57|35=0|34=82|49=CNS_DECIDE|52=20211012-00:04:09.353|56=BLP|10=191|
07:05:09.139 INFO  CNS_DECIDE---BLP--             - <<--- 8=FIX.4.2|9=0053|35=0|49=BLP|56=CNS_DECIDE|34=83|52=20211012-00:05:08|10=083|
07:05:09.354 INFO  CNS_DECIDE---BLP--             - --->> 8=FIX.4.2|9=57|35=0|34=83|49=CNS_DECIDE|52=20211012-00:05:09.354|56=BLP|10=194|
07:06:09.139 INFO  CNS_DECIDE---BLP--             - <<--- 8=FIX.4.2|9=0053|35=0|49=BLP|56=CNS_DECIDE|34=84|52=20211012-00:06:08|10=085|
07:06:09.354 INFO  CNS_DECIDE---BLP--             - --->> 8=FIX.4.2|9=57|35=0|34=84|49=CNS_DECIDE|52=20211012-00:06:09.354|56=BLP|10=196|
07:07:09.140 INFO  CNS_DECIDE---BLP--             - <<--- 8=FIX.4.2|9=0053|35=0|49=BLP|56=CNS_DECIDE|34=85|52=20211012-00:07:08|10=087|
07:07:09.356 INFO  CNS_DECIDE---BLP--             - --->> 8=FIX.4.2|9=57|35=0|34=85|49=CNS_DECIDE|52=20211012-00:07:09.356|56=BLP|10=200|
07:08:09.140 INFO  CNS_DECIDE---BLP--             - <<--- 8=FIX.4.2|9=0053|35=0|49=BLP|56=CNS_DECIDE|34=86|52=20211012-00:08:08|10=089|
07:08:09.356 INFO  CNS_DECIDE---BLP--             - --->> 8=FIX.4.2|9=57|35=0|34=86|49=CNS_DECIDE|52=20211012-00:08:09.356|56=BLP|10=202|
07:09:09.140 INFO  CNS_DECIDE---BLP--             - <<--- 8=FIX.4.2|9=0053|35=0|49=BLP|56=CNS_DECIDE|34=87|52=20211012-00:09:08|10=091|
07:09:09.357 INFO  CNS_DECIDE---BLP--             - --->> 8=FIX.4.2|9=57|35=0|34=87|49=CNS_DECIDE|52=20211012-00:09:09.357|56=BLP|10=205|
07:10:09.140 INFO  CNS_DECIDE---BLP--             - <<--- 8=FIX.4.2|9=0053|35=0|49=BLP|56=CNS_DECIDE|34=88|52=20211012-00:10:08|10=084|
07:10:09.358 INFO  CNS_DECIDE---BLP--             - --->> 8=FIX.4.2|9=57|35=0|34=88|49=CNS_DECIDE|52=20211012-00:10:09.358|56=BLP|10=199|
07:11:09.141 INFO  CNS_DECIDE---BLP--             - <<--- 8=FIX.4.2|9=0053|35=0|49=BLP|56=CNS_DECIDE|34=89|52=20211012-00:11:08|10=086|
07:11:09.359 INFO  CNS_DECIDE---BLP--             - --->> 8=FIX.4.2|9=57|35=0|34=89|49=CNS_DECIDE|52=20211012-00:11:09.359|56=BLP|10=202|
07:12:09.141 INFO  CNS_DECIDE---BLP--             - <<--- 8=FIX.4.2|9=0053|35=0|49=BLP|56=CNS_DECIDE|34=90|52=20211012-00:12:08|10=079|
07:12:09.360 INFO  CNS_DECIDE---BLP--             - --->> 8=FIX.4.2|9=57|35=0|34=90|49=CNS_DECIDE|52=20211012-00:12:09.360|56=BLP|10=187|
07:13:09.132 INFO  CNS_DECIDE---BLP--             - <<--- 8=FIX.4.2|9=0053|35=0|49=BLP|56=CNS_DECIDE|34=91|52=20211012-00:13:08|10=081|
07:13:09.360 INFO  CNS_DECIDE---BLP--             - --->> 8=FIX.4.2|9=57|35=0|34=91|49=CNS_DECIDE|52=20211012-00:13:09.360|56=BLP|10=189|
07:14:09.134 INFO  CNS_DECIDE---BLP--             - <<--- 8=FIX.4.2|9=0053|35=0|49=BLP|56=CNS_DECIDE|34=92|52=20211012-00:14:08|10=083|
07:14:09.363 INFO  CNS_DECIDE---BLP--             - --->> 8=FIX.4.2|9=57|35=0|34=92|49=CNS_DECIDE|52=20211012-00:14:09.363|56=BLP|10=194|
07:15:09.134 INFO  CNS_DECIDE---BLP--             - <<--- 8=FIX.4.2|9=0053|35=0|49=BLP|56=CNS_DECIDE|34=93|52=20211012-00:15:08|10=085|
07:15:09.363 INFO  CNS_DECIDE---BLP--             - --->> 8=FIX.4.2|9=57|35=0|34=93|49=CNS_DECIDE|52=20211012-00:15:09.363|56=BLP|10=196|
07:16:09.135 INFO  CNS_DECIDE---BLP--             - <<--- 8=FIX.4.2|9=0053|35=0|49=BLP|56=CNS_DECIDE|34=94|52=20211012-00:16:08|10=087|
07:16:09.364 INFO  CNS_DECIDE---BLP--             - --->> 8=FIX.4.2|9=57|35=0|34=94|49=CNS_DECIDE|52=20211012-00:16:09.364|56=BLP|10=199|
07:17:09.136 INFO  CNS_DECIDE---BLP--             - <<--- 8=FIX.4.2|9=0053|35=0|49=BLP|56=CNS_DECIDE|34=95|52=20211012-00:17:08|10=089|
07:17:09.364 INFO  CNS_DECIDE---BLP--             - --->> 8=FIX.4.2|9=57|35=0|34=95|49=CNS_DECIDE|52=20211012-00:17:09.364|56=BLP|10=201|
07:18:09.136 INFO  CNS_DECIDE---BLP--             - <<--- 8=FIX.4.2|9=0053|35=0|49=BLP|56=CNS_DECIDE|34=96|52=20211012-00:18:08|10=091|
07:18:09.365 INFO  CNS_DECIDE---BLP--             - --->> 8=FIX.4.2|9=57|35=0|34=96|49=CNS_DECIDE|52=20211012-00:18:09.365|56=BLP|10=204|
07:19:09.136 INFO  CNS_DECIDE---BLP--             - <<--- 8=FIX.4.2|9=0053|35=0|49=BLP|56=CNS_DECIDE|34=97|52=20211012-00:19:08|10=093|
07:19:09.366 INFO  CNS_DECIDE---BLP--             - --->> 8=FIX.4.2|9=57|35=0|34=97|49=CNS_DECIDE|52=20211012-00:19:09.366|56=BLP|10=207|
07:20:09.136 INFO  CNS_DECIDE---BLP--             - <<--- 8=FIX.4.2|9=0053|35=0|49=BLP|56=CNS_DECIDE|34=98|52=20211012-00:20:08|10=086|
07:20:09.368 INFO  CNS_DECIDE---BLP--             - --->> 8=FIX.4.2|9=57|35=0|34=98|49=CNS_DECIDE|52=20211012-00:20:09.368|56=BLP|10=202|
07:21:09.136 INFO  CNS_DECIDE---BLP--             - <<--- 8=FIX.4.2|9=0053|35=0|49=BLP|56=CNS_DECIDE|34=99|52=20211012-00:21:08|10=088|
07:21:09.368 INFO  CNS_DECIDE---BLP--             - --->> 8=FIX.4.2|9=57|35=0|34=99|49=CNS_DECIDE|52=20211012-00:21:09.368|56=BLP|10=204|
07:22:09.136 INFO  CNS_DECIDE---BLP--             - <<--- 8=FIX.4.2|9=0054|35=0|49=BLP|56=CNS_DECIDE|34=100|52=20211012-00:22:08|10=121|
07:22:09.369 INFO  CNS_DECIDE---BLP--             - --->> 8=FIX.4.2|9=58|35=0|34=100|49=CNS_DECIDE|52=20211012-00:22:09.369|56=BLP|10=238|
07:23:09.137 INFO  CNS_DECIDE---BLP--             - <<--- 8=FIX.4.2|9=0054|35=0|49=BLP|56=CNS_DECIDE|34=101|52=20211012-00:23:08|10=123|
07:23:09.369 INFO  CNS_DECIDE---BLP--             - --->> 8=FIX.4.2|9=58|35=0|34=101|49=CNS_DECIDE|52=20211012-00:23:09.369|56=BLP|10=240|
07:24:09.132 INFO  CNS_DECIDE---BLP--             - <<--- 8=FIX.4.2|9=0054|35=0|49=BLP|56=CNS_DECIDE|34=102|52=20211012-00:24:08|10=125|
07:24:09.370 INFO  CNS_DECIDE---BLP--             - --->> 8=FIX.4.2|9=58|35=0|34=102|49=CNS_DECIDE|52=20211012-00:24:09.370|56=BLP|10=234|
07:25:09.132 INFO  CNS_DECIDE---BLP--             - <<--- 8=FIX.4.2|9=0054|35=0|49=BLP|56=CNS_DECIDE|34=103|52=20211012-00:25:08|10=127|
07:25:09.369 INFO  CNS_DECIDE---BLP--             - --->> 8=FIX.4.2|9=58|35=0|34=103|49=CNS_DECIDE|52=20211012-00:25:09.369|56=BLP|10=244|
07:26:09.133 INFO  CNS_DECIDE---BLP--             - <<--- 8=FIX.4.2|9=0054|35=0|49=BLP|56=CNS_DECIDE|34=104|52=20211012-00:26:08|10=129|
07:26:09.370 INFO  CNS_DECIDE---BLP--             - --->> 8=FIX.4.2|9=58|35=0|34=104|49=CNS_DECIDE|52=20211012-00:26:09.370|56=BLP|10=238|
07:27:09.133 INFO  CNS_DECIDE---BLP--             - <<--- 8=FIX.4.2|9=0054|35=0|49=BLP|56=CNS_DECIDE|34=105|52=20211012-00:27:08|10=131|
07:27:09.370 INFO  CNS_DECIDE---BLP--             - --->> 8=FIX.4.2|9=58|35=0|34=105|49=CNS_DECIDE|52=20211012-00:27:09.370|56=BLP|10=240|
07:28:09.133 INFO  CNS_DECIDE---BLP--             - <<--- 8=FIX.4.2|9=0054|35=0|49=BLP|56=CNS_DECIDE|34=106|52=20211012-00:28:08|10=133|
07:28:09.373 INFO  CNS_DECIDE---BLP--             - --->> 8=FIX.4.2|9=58|35=0|34=106|49=CNS_DECIDE|52=20211012-00:28:09.373|56=BLP|10=245|
07:29:09.133 INFO  CNS_DECIDE---BLP--             - <<--- 8=FIX.4.2|9=0054|35=0|49=BLP|56=CNS_DECIDE|34=107|52=20211012-00:29:08|10=135|
07:29:09.373 INFO  CNS_DECIDE---BLP--             - --->> 8=FIX.4.2|9=58|35=0|34=107|49=CNS_DECIDE|52=20211012-00:29:09.373|56=BLP|10=247|
07:30:09.134 INFO  CNS_DECIDE---BLP--             - <<--- 8=FIX.4.2|9=0054|35=0|49=BLP|56=CNS_DECIDE|34=108|52=20211012-00:30:08|10=128|
07:30:09.374 INFO  CNS_DECIDE---BLP--             - --->> 8=FIX.4.2|9=58|35=0|34=108|49=CNS_DECIDE|52=20211012-00:30:09.374|56=BLP|10=241|
07:31:09.134 INFO  CNS_DECIDE---BLP--             - <<--- 8=FIX.4.2|9=0054|35=0|49=BLP|56=CNS_DECIDE|34=109|52=20211012-00:31:08|10=130|
07:31:09.374 INFO  CNS_DECIDE---BLP--             - --->> 8=FIX.4.2|9=58|35=0|34=109|49=CNS_DECIDE|52=20211012-00:31:09.374|56=BLP|10=243|
07:32:09.135 INFO  CNS_DECIDE---BLP--             - <<--- 8=FIX.4.2|9=0054|35=0|49=BLP|56=CNS_DECIDE|34=110|52=20211012-00:32:08|10=123|
07:32:09.376 INFO  CNS_DECIDE---BLP--             - --->> 8=FIX.4.2|9=58|35=0|34=110|49=CNS_DECIDE|52=20211012-00:32:09.376|56=BLP|10=238|
07:33:09.135 INFO  CNS_DECIDE---BLP--             - <<--- 8=FIX.4.2|9=0054|35=0|49=BLP|56=CNS_DECIDE|34=111|52=20211012-00:33:08|10=125|
07:33:09.376 INFO  CNS_DECIDE---BLP--             - --->> 8=FIX.4.2|9=58|35=0|34=111|49=CNS_DECIDE|52=20211012-00:33:09.376|56=BLP|10=240|
07:34:09.132 INFO  CNS_DECIDE---BLP--             - <<--- 8=FIX.4.2|9=0054|35=0|49=BLP|56=CNS_DECIDE|34=112|52=20211012-00:34:08|10=127|
07:34:09.379 INFO  CNS_DECIDE---BLP--             - --->> 8=FIX.4.2|9=58|35=0|34=112|49=CNS_DECIDE|52=20211012-00:34:09.379|56=BLP|10=245|
07:35:09.133 INFO  CNS_DECIDE---BLP--             - <<--- 8=FIX.4.2|9=0054|35=0|49=BLP|56=CNS_DECIDE|34=113|52=20211012-00:35:08|10=129|
07:35:09.380 INFO  CNS_DECIDE---BLP--             - --->> 8=FIX.4.2|9=58|35=0|34=113|49=CNS_DECIDE|52=20211012-00:35:09.380|56=BLP|10=239|
07:36:09.133 INFO  CNS_DECIDE---BLP--             - <<--- 8=FIX.4.2|9=0054|35=0|49=BLP|56=CNS_DECIDE|34=114|52=20211012-00:36:08|10=131|
07:36:09.381 INFO  CNS_DECIDE---BLP--             - --->> 8=FIX.4.2|9=58|35=0|34=114|49=CNS_DECIDE|52=20211012-00:36:09.381|56=BLP|10=242|
07:37:09.133 INFO  CNS_DECIDE---BLP--             - <<--- 8=FIX.4.2|9=0054|35=0|49=BLP|56=CNS_DECIDE|34=115|52=20211012-00:37:08|10=133|
07:37:09.382 INFO  CNS_DECIDE---BLP--             - --->> 8=FIX.4.2|9=58|35=0|34=115|49=CNS_DECIDE|52=20211012-00:37:09.382|56=BLP|10=245|
07:38:09.133 INFO  CNS_DECIDE---BLP--             - <<--- 8=FIX.4.2|9=0054|35=0|49=BLP|56=CNS_DECIDE|34=116|52=20211012-00:38:08|10=135|
07:38:09.383 INFO  CNS_DECIDE---BLP--             - --->> 8=FIX.4.2|9=58|35=0|34=116|49=CNS_DECIDE|52=20211012-00:38:09.383|56=BLP|10=248|
07:39:09.133 INFO  CNS_DECIDE---BLP--             - <<--- 8=FIX.4.2|9=0054|35=0|49=BLP|56=CNS_DECIDE|34=117|52=20211012-00:39:08|10=137|
07:39:09.384 INFO  CNS_DECIDE---BLP--             - --->> 8=FIX.4.2|9=58|35=0|34=117|49=CNS_DECIDE|52=20211012-00:39:09.384|56=BLP|10=251|
07:40:09.134 INFO  CNS_DECIDE---BLP--             - <<--- 8=FIX.4.2|9=0054|35=0|49=BLP|56=CNS_DECIDE|34=118|52=20211012-00:40:08|10=130|
07:40:09.385 INFO  CNS_DECIDE---BLP--             - --->> 8=FIX.4.2|9=58|35=0|34=118|49=CNS_DECIDE|52=20211012-00:40:09.385|56=BLP|10=245|
07:41:09.135 INFO  CNS_DECIDE---BLP--             - <<--- 8=FIX.4.2|9=0054|35=0|49=BLP|56=CNS_DECIDE|34=119|52=20211012-00:41:08|10=132|
07:41:09.386 INFO  CNS_DECIDE---BLP--             - --->> 8=FIX.4.2|9=58|35=0|34=119|49=CNS_DECIDE|52=20211012-00:41:09.386|56=BLP|10=248|
07:42:09.134 INFO  CNS_DECIDE---BLP--             - <<--- 8=FIX.4.2|9=0054|35=0|49=BLP|56=CNS_DECIDE|34=120|52=20211012-00:42:08|10=125|
07:42:09.387 INFO  CNS_DECIDE---BLP--             - --->> 8=FIX.4.2|9=58|35=0|34=120|49=CNS_DECIDE|52=20211012-00:42:09.387|56=BLP|10=242|
07:43:09.135 INFO  CNS_DECIDE---BLP--             - <<--- 8=FIX.4.2|9=0054|35=0|49=BLP|56=CNS_DECIDE|34=121|52=20211012-00:43:08|10=127|
07:43:09.387 INFO  CNS_DECIDE---BLP--             - --->> 8=FIX.4.2|9=58|35=0|34=121|49=CNS_DECIDE|52=20211012-00:43:09.387|56=BLP|10=244|
07:44:09.137 INFO  CNS_DECIDE---BLP--             - <<--- 8=FIX.4.2|9=0054|35=0|49=BLP|56=CNS_DECIDE|34=122|52=20211012-00:44:08|10=129|
07:44:09.389 INFO  CNS_DECIDE---BLP--             - --->> 8=FIX.4.2|9=58|35=0|34=122|49=CNS_DECIDE|52=20211012-00:44:09.389|56=BLP|10=248|
07:45:09.138 INFO  CNS_DECIDE---BLP--             - <<--- 8=FIX.4.2|9=0054|35=0|49=BLP|56=CNS_DECIDE|34=123|52=20211012-00:45:08|10=131|
07:45:09.389 INFO  CNS_DECIDE---BLP--             - --->> 8=FIX.4.2|9=58|35=0|34=123|49=CNS_DECIDE|52=20211012-00:45:09.389|56=BLP|10=250|
07:46:09.138 INFO  CNS_DECIDE---BLP--             - <<--- 8=FIX.4.2|9=0054|35=0|49=BLP|56=CNS_DECIDE|34=124|52=20211012-00:46:08|10=133|
07:46:09.390 INFO  CNS_DECIDE---BLP--             - --->> 8=FIX.4.2|9=58|35=0|34=124|49=CNS_DECIDE|52=20211012-00:46:09.390|56=BLP|10=244|
07:47:09.139 INFO  CNS_DECIDE---BLP--             - <<--- 8=FIX.4.2|9=0054|35=0|49=BLP|56=CNS_DECIDE|34=125|52=20211012-00:47:08|10=135|
07:47:09.391 INFO  CNS_DECIDE---BLP--             - --->> 8=FIX.4.2|9=58|35=0|34=125|49=CNS_DECIDE|52=20211012-00:47:09.391|56=BLP|10=247|
07:48:09.139 INFO  CNS_DECIDE---BLP--             - <<--- 8=FIX.4.2|9=0054|35=0|49=BLP|56=CNS_DECIDE|34=126|52=20211012-00:48:08|10=137|
07:48:09.392 INFO  CNS_DECIDE---BLP--             - --->> 8=FIX.4.2|9=58|35=0|34=126|49=CNS_DECIDE|52=20211012-00:48:09.392|56=BLP|10=250|
07:49:09.140 INFO  CNS_DECIDE---BLP--             - <<--- 8=FIX.4.2|9=0054|35=0|49=BLP|56=CNS_DECIDE|34=127|52=20211012-00:49:08|10=139|
07:49:09.393 INFO  CNS_DECIDE---BLP--             - --->> 8=FIX.4.2|9=58|35=0|34=127|49=CNS_DECIDE|52=20211012-00:49:09.393|56=BLP|10=253|
07:50:09.139 INFO  CNS_DECIDE---BLP--             - <<--- 8=FIX.4.2|9=0054|35=0|49=BLP|56=CNS_DECIDE|34=128|52=20211012-00:50:08|10=132|
07:50:09.395 INFO  CNS_DECIDE---BLP--             - --->> 8=FIX.4.2|9=58|35=0|34=128|49=CNS_DECIDE|52=20211012-00:50:09.395|56=BLP|10=248|
07:51:09.140 INFO  CNS_DECIDE---BLP--             - <<--- 8=FIX.4.2|9=0054|35=0|49=BLP|56=CNS_DECIDE|34=129|52=20211012-00:51:08|10=134|
07:51:09.396 INFO  CNS_DECIDE---BLP--             - --->> 8=FIX.4.2|9=58|35=0|34=129|49=CNS_DECIDE|52=20211012-00:51:09.396|56=BLP|10=251|
07:52:09.140 INFO  CNS_DECIDE---BLP--             - <<--- 8=FIX.4.2|9=0054|35=0|49=BLP|56=CNS_DECIDE|34=130|52=20211012-00:52:08|10=127|
07:52:09.395 INFO  CNS_DECIDE---BLP--             - --->> 8=FIX.4.2|9=58|35=0|34=130|49=CNS_DECIDE|52=20211012-00:52:09.395|56=BLP|10=243|
07:53:09.141 INFO  CNS_DECIDE---BLP--             - <<--- 8=FIX.4.2|9=0054|35=0|49=BLP|56=CNS_DECIDE|34=131|52=20211012-00:53:08|10=129|
07:53:09.397 INFO  CNS_DECIDE---BLP--             - --->> 8=FIX.4.2|9=58|35=0|34=131|49=CNS_DECIDE|52=20211012-00:53:09.397|56=BLP|10=247|
07:54:09.134 INFO  CNS_DECIDE---BLP--             - <<--- 8=FIX.4.2|9=0054|35=0|49=BLP|56=CNS_DECIDE|34=132|52=20211012-00:54:08|10=131|
07:54:09.397 INFO  CNS_DECIDE---BLP--             - --->> 8=FIX.4.2|9=58|35=0|34=132|49=CNS_DECIDE|52=20211012-00:54:09.397|56=BLP|10=249|
07:55:09.135 INFO  CNS_DECIDE---BLP--             - <<--- 8=FIX.4.2|9=0054|35=0|49=BLP|56=CNS_DECIDE|34=133|52=20211012-00:55:08|10=133|
07:55:09.399 INFO  CNS_DECIDE---BLP--             - --->> 8=FIX.4.2|9=58|35=0|34=133|49=CNS_DECIDE|52=20211012-00:55:09.399|56=BLP|10=253|
07:56:09.135 INFO  CNS_DECIDE---BLP--             - <<--- 8=FIX.4.2|9=0054|35=0|49=BLP|56=CNS_DECIDE|34=134|52=20211012-00:56:08|10=135|
07:56:09.399 INFO  CNS_DECIDE---BLP--             - --->> 8=FIX.4.2|9=58|35=0|34=134|49=CNS_DECIDE|52=20211012-00:56:09.399|56=BLP|10=255|
07:57:09.136 INFO  CNS_DECIDE---BLP--             - <<--- 8=FIX.4.2|9=0054|35=0|49=BLP|56=CNS_DECIDE|34=135|52=20211012-00:57:08|10=137|
07:57:09.401 INFO  CNS_DECIDE---BLP--             - --->> 8=FIX.4.2|9=58|35=0|34=135|49=CNS_DECIDE|52=20211012-00:57:09.401|56=BLP|10=241|
07:58:09.136 INFO  CNS_DECIDE---BLP--             - <<--- 8=FIX.4.2|9=0054|35=0|49=BLP|56=CNS_DECIDE|34=136|52=20211012-00:58:08|10=139|
07:58:09.402 INFO  CNS_DECIDE---BLP--             - --->> 8=FIX.4.2|9=58|35=0|34=136|49=CNS_DECIDE|52=20211012-00:58:09.402|56=BLP|10=244|
07:59:09.136 INFO  CNS_DECIDE---BLP--             - <<--- 8=FIX.4.2|9=0054|35=0|49=BLP|56=CNS_DECIDE|34=137|52=20211012-00:59:08|10=141|
07:59:09.401 INFO  CNS_DECIDE---BLP--             - --->> 8=FIX.4.2|9=58|35=0|34=137|49=CNS_DECIDE|52=20211012-00:59:09.401|56=BLP|10=245|
08:00:09.136 INFO  CNS_DECIDE---BLP--             - <<--- 8=FIX.4.2|9=0054|35=0|49=BLP|56=CNS_DECIDE|34=138|52=20211012-01:00:08|10=129|
08:00:09.402 INFO  CNS_DECIDE---BLP--             - --->> 8=FIX.4.2|9=58|35=0|34=138|49=CNS_DECIDE|52=20211012-01:00:09.402|56=BLP|10=234|
08:01:09.137 INFO  CNS_DECIDE---BLP--             - <<--- 8=FIX.4.2|9=0054|35=0|49=BLP|56=CNS_DECIDE|34=139|52=20211012-01:01:08|10=131|
08:01:09.403 INFO  CNS_DECIDE---BLP--             - --->> 8=FIX.4.2|9=58|35=0|34=139|49=CNS_DECIDE|52=20211012-01:01:09.403|56=BLP|10=237|
08:02:09.136 INFO  CNS_DECIDE---BLP--             - <<--- 8=FIX.4.2|9=0054|35=0|49=BLP|56=CNS_DECIDE|34=140|52=20211012-01:02:08|10=124|
08:02:09.404 INFO  CNS_DECIDE---BLP--             - --->> 8=FIX.4.2|9=58|35=0|34=140|49=CNS_DECIDE|52=20211012-01:02:09.404|56=BLP|10=231|
08:03:09.137 INFO  CNS_DECIDE---BLP--             - <<--- 8=FIX.4.2|9=0054|35=0|49=BLP|56=CNS_DECIDE|34=141|52=20211012-01:03:08|10=126|
08:03:09.406 INFO  CNS_DECIDE---BLP--             - --->> 8=FIX.4.2|9=58|35=0|34=141|49=CNS_DECIDE|52=20211012-01:03:09.406|56=BLP|10=235|
08:04:09.140 INFO  CNS_DECIDE---BLP--             - <<--- 8=FIX.4.2|9=0054|35=0|49=BLP|56=CNS_DECIDE|34=142|52=20211012-01:04:08|10=128|
08:04:09.406 INFO  CNS_DECIDE---BLP--             - --->> 8=FIX.4.2|9=58|35=0|34=142|49=CNS_DECIDE|52=20211012-01:04:09.406|56=BLP|10=237|
08:05:09.140 INFO  CNS_DECIDE---BLP--             - <<--- 8=FIX.4.2|9=0054|35=0|49=BLP|56=CNS_DECIDE|34=143|52=20211012-01:05:08|10=130|
08:05:09.408 INFO  CNS_DECIDE---BLP--             - --->> 8=FIX.4.2|9=58|35=0|34=143|49=CNS_DECIDE|52=20211012-01:05:09.408|56=BLP|10=241|
08:06:09.140 INFO  CNS_DECIDE---BLP--             - <<--- 8=FIX.4.2|9=0054|35=0|49=BLP|56=CNS_DECIDE|34=144|52=20211012-01:06:08|10=132|
08:06:09.407 INFO  CNS_DECIDE---BLP--             - --->> 8=FIX.4.2|9=58|35=0|34=144|49=CNS_DECIDE|52=20211012-01:06:09.407|56=BLP|10=242|
08:07:09.140 INFO  CNS_DECIDE---BLP--             - <<--- 8=FIX.4.2|9=0054|35=0|49=BLP|56=CNS_DECIDE|34=145|52=20211012-01:07:08|10=134|
08:07:09.408 INFO  CNS_DECIDE---BLP--             - --->> 8=FIX.4.2|9=58|35=0|34=145|49=CNS_DECIDE|52=20211012-01:07:09.408|56=BLP|10=245|
08:08:09.141 INFO  CNS_DECIDE---BLP--             - <<--- 8=FIX.4.2|9=0054|35=0|49=BLP|56=CNS_DECIDE|34=146|52=20211012-01:08:08|10=136|
08:08:09.409 INFO  CNS_DECIDE---BLP--             - --->> 8=FIX.4.2|9=58|35=0|34=146|49=CNS_DECIDE|52=20211012-01:08:09.409|56=BLP|10=248|
08:09:09.142 INFO  CNS_DECIDE---BLP--             - <<--- 8=FIX.4.2|9=0054|35=0|49=BLP|56=CNS_DECIDE|34=147|52=20211012-01:09:08|10=138|
08:09:09.411 INFO  CNS_DECIDE---BLP--             - --->> 8=FIX.4.2|9=58|35=0|34=147|49=CNS_DECIDE|52=20211012-01:09:09.411|56=BLP|10=243|
08:10:09.142 INFO  CNS_DECIDE---BLP--             - <<--- 8=FIX.4.2|9=0054|35=0|49=BLP|56=CNS_DECIDE|34=148|52=20211012-01:10:08|10=131|
08:10:09.411 INFO  CNS_DECIDE---BLP--             - --->> 8=FIX.4.2|9=58|35=0|34=148|49=CNS_DECIDE|52=20211012-01:10:09.411|56=BLP|10=236|
08:11:09.141 INFO  CNS_DECIDE---BLP--             - <<--- 8=FIX.4.2|9=0054|35=0|49=BLP|56=CNS_DECIDE|34=149|52=20211012-01:11:08|10=133|
08:11:09.412 INFO  CNS_DECIDE---BLP--             - --->> 8=FIX.4.2|9=58|35=0|34=149|49=CNS_DECIDE|52=20211012-01:11:09.412|56=BLP|10=239|
08:12:09.142 INFO  CNS_DECIDE---BLP--             - <<--- 8=FIX.4.2|9=0054|35=0|49=BLP|56=CNS_DECIDE|34=150|52=20211012-01:12:08|10=126|
08:12:09.414 INFO  CNS_DECIDE---BLP--             - --->> 8=FIX.4.2|9=58|35=0|34=150|49=CNS_DECIDE|52=20211012-01:12:09.414|56=BLP|10=234|
08:13:09.142 INFO  CNS_DECIDE---BLP--             - <<--- 8=FIX.4.2|9=0054|35=0|49=BLP|56=CNS_DECIDE|34=151|52=20211012-01:13:08|10=128|
08:13:09.414 INFO  CNS_DECIDE---BLP--             - --->> 8=FIX.4.2|9=58|35=0|34=151|49=CNS_DECIDE|52=20211012-01:13:09.414|56=BLP|10=236|
08:14:09.148 INFO  CNS_DECIDE---BLP--             - <<--- 8=FIX.4.2|9=0054|35=0|49=BLP|56=CNS_DECIDE|34=152|52=20211012-01:14:08|10=130|
08:14:09.415 INFO  CNS_DECIDE---BLP--             - --->> 8=FIX.4.2|9=58|35=0|34=152|49=CNS_DECIDE|52=20211012-01:14:09.415|56=BLP|10=239|
08:15:09.149 INFO  CNS_DECIDE---BLP--             - <<--- 8=FIX.4.2|9=0054|35=0|49=BLP|56=CNS_DECIDE|34=153|52=20211012-01:15:08|10=132|
08:15:09.415 INFO  CNS_DECIDE---BLP--             - --->> 8=FIX.4.2|9=58|35=0|34=153|49=CNS_DECIDE|52=20211012-01:15:09.415|56=BLP|10=241|
08:16:09.149 INFO  CNS_DECIDE---BLP--             - <<--- 8=FIX.4.2|9=0054|35=0|49=BLP|56=CNS_DECIDE|34=154|52=20211012-01:16:08|10=134|
08:16:09.418 INFO  CNS_DECIDE---BLP--             - --->> 8=FIX.4.2|9=58|35=0|34=154|49=CNS_DECIDE|52=20211012-01:16:09.418|56=BLP|10=246|
08:17:09.149 INFO  CNS_DECIDE---BLP--             - <<--- 8=FIX.4.2|9=0054|35=0|49=BLP|56=CNS_DECIDE|34=155|52=20211012-01:17:08|10=136|
08:17:09.419 INFO  CNS_DECIDE---BLP--             - --->> 8=FIX.4.2|9=58|35=0|34=155|49=CNS_DECIDE|52=20211012-01:17:09.419|56=BLP|10=249|
08:18:09.152 INFO  CNS_DECIDE---BLP--             - <<--- 8=FIX.4.2|9=0054|35=0|49=BLP|56=CNS_DECIDE|34=156|52=20211012-01:18:08|10=138|
08:18:09.419 INFO  CNS_DECIDE---BLP--             - --->> 8=FIX.4.2|9=58|35=0|34=156|49=CNS_DECIDE|52=20211012-01:18:09.419|56=BLP|10=251|
08:19:09.153 INFO  CNS_DECIDE---BLP--             - <<--- 8=FIX.4.2|9=0054|35=0|49=BLP|56=CNS_DECIDE|34=157|52=20211012-01:19:08|10=140|
08:19:09.422 INFO  CNS_DECIDE---BLP--             - --->> 8=FIX.4.2|9=58|35=0|34=157|49=CNS_DECIDE|52=20211012-01:19:09.422|56=BLP|10=247|
08:20:09.142 INFO  CNS_DECIDE---BLP--             - <<--- 8=FIX.4.2|9=0054|35=0|49=BLP|56=CNS_DECIDE|34=158|52=20211012-01:20:08|10=133|
08:20:09.423 INFO  CNS_DECIDE---BLP--             - --->> 8=FIX.4.2|9=58|35=0|34=158|49=CNS_DECIDE|52=20211012-01:20:09.423|56=BLP|10=241|
08:21:09.143 INFO  CNS_DECIDE---BLP--             - <<--- 8=FIX.4.2|9=0054|35=0|49=BLP|56=CNS_DECIDE|34=159|52=20211012-01:21:08|10=135|
08:21:09.424 INFO  CNS_DECIDE---BLP--             - --->> 8=FIX.4.2|9=58|35=0|34=159|49=CNS_DECIDE|52=20211012-01:21:09.424|56=BLP|10=244|
08:22:09.143 INFO  CNS_DECIDE---BLP--             - <<--- 8=FIX.4.2|9=0054|35=0|49=BLP|56=CNS_DECIDE|34=160|52=20211012-01:22:08|10=128|
08:22:09.426 INFO  CNS_DECIDE---BLP--             - --->> 8=FIX.4.2|9=58|35=0|34=160|49=CNS_DECIDE|52=20211012-01:22:09.426|56=BLP|10=239|
08:23:09.144 INFO  CNS_DECIDE---BLP--             - <<--- 8=FIX.4.2|9=0054|35=0|49=BLP|56=CNS_DECIDE|34=161|52=20211012-01:23:08|10=130|
08:23:09.425 INFO  CNS_DECIDE---BLP--             - --->> 8=FIX.4.2|9=58|35=0|34=161|49=CNS_DECIDE|52=20211012-01:23:09.425|56=BLP|10=240|
08:24:09.145 INFO  CNS_DECIDE---BLP--             - <<--- 8=FIX.4.2|9=0054|35=0|49=BLP|56=CNS_DECIDE|34=162|52=20211012-01:24:08|10=132|
08:24:09.427 INFO  CNS_DECIDE---BLP--             - --->> 8=FIX.4.2|9=58|35=0|34=162|49=CNS_DECIDE|52=20211012-01:24:09.427|56=BLP|10=244|
08:25:09.146 INFO  CNS_DECIDE---BLP--             - <<--- 8=FIX.4.2|9=0054|35=0|49=BLP|56=CNS_DECIDE|34=163|52=20211012-01:25:08|10=134|
08:25:09.428 INFO  CNS_DECIDE---BLP--             - --->> 8=FIX.4.2|9=58|35=0|34=163|49=CNS_DECIDE|52=20211012-01:25:09.428|56=BLP|10=247|
08:26:09.146 INFO  CNS_DECIDE---BLP--             - <<--- 8=FIX.4.2|9=0054|35=0|49=BLP|56=CNS_DECIDE|34=164|52=20211012-01:26:08|10=136|
08:26:09.428 INFO  CNS_DECIDE---BLP--             - --->> 8=FIX.4.2|9=58|35=0|34=164|49=CNS_DECIDE|52=20211012-01:26:09.428|56=BLP|10=249|
08:27:09.147 INFO  CNS_DECIDE---BLP--             - <<--- 8=FIX.4.2|9=0054|35=0|49=BLP|56=CNS_DECIDE|34=165|52=20211012-01:27:08|10=138|
08:27:09.430 INFO  CNS_DECIDE---BLP--             - --->> 8=FIX.4.2|9=58|35=0|34=165|49=CNS_DECIDE|52=20211012-01:27:09.430|56=BLP|10=244|
08:28:09.145 INFO  CNS_DECIDE---BLP--             - <<--- 8=FIX.4.2|9=0054|35=0|49=BLP|56=CNS_DECIDE|34=166|52=20211012-01:28:08|10=140|
08:28:09.428 INFO  CNS_DECIDE---BLP--             - --->> 8=FIX.4.2|9=58|35=0|34=166|49=CNS_DECIDE|52=20211012-01:28:09.428|56=BLP|10=253|
08:29:09.145 INFO  CNS_DECIDE---BLP--             - <<--- 8=FIX.4.2|9=0054|35=0|49=BLP|56=CNS_DECIDE|34=167|52=20211012-01:29:08|10=142|
08:29:09.428 INFO  CNS_DECIDE---BLP--             - --->> 8=FIX.4.2|9=58|35=0|34=167|49=CNS_DECIDE|52=20211012-01:29:09.428|56=BLP|10=255|
08:30:09.145 INFO  CNS_DECIDE---BLP--             - <<--- 8=FIX.4.2|9=0054|35=0|49=BLP|56=CNS_DECIDE|34=168|52=20211012-01:30:08|10=135|
08:30:09.430 INFO  CNS_DECIDE---BLP--             - --->> 8=FIX.4.2|9=58|35=0|34=168|49=CNS_DECIDE|52=20211012-01:30:09.430|56=BLP|10=241|
08:31:09.146 INFO  CNS_DECIDE---BLP--             - <<--- 8=FIX.4.2|9=0054|35=0|49=BLP|56=CNS_DECIDE|34=169|52=20211012-01:31:08|10=137|
08:31:09.431 INFO  CNS_DECIDE---BLP--             - --->> 8=FIX.4.2|9=58|35=0|34=169|49=CNS_DECIDE|52=20211012-01:31:09.431|56=BLP|10=244|
08:32:09.146 INFO  CNS_DECIDE---BLP--             - <<--- 8=FIX.4.2|9=0054|35=0|49=BLP|56=CNS_DECIDE|34=170|52=20211012-01:32:08|10=130|
08:32:09.432 INFO  CNS_DECIDE---BLP--             - --->> 8=FIX.4.2|9=58|35=0|34=170|49=CNS_DECIDE|52=20211012-01:32:09.432|56=BLP|10=238|
08:33:09.146 INFO  CNS_DECIDE---BLP--             - <<--- 8=FIX.4.2|9=0054|35=0|49=BLP|56=CNS_DECIDE|34=171|52=20211012-01:33:08|10=132|
08:33:09.432 INFO  CNS_DECIDE---BLP--             - --->> 8=FIX.4.2|9=58|35=0|34=171|49=CNS_DECIDE|52=20211012-01:33:09.432|56=BLP|10=240|
08:34:09.146 INFO  CNS_DECIDE---BLP--             - <<--- 8=FIX.4.2|9=0054|35=0|49=BLP|56=CNS_DECIDE|34=172|52=20211012-01:34:08|10=134|
08:34:09.434 INFO  CNS_DECIDE---BLP--             - --->> 8=FIX.4.2|9=58|35=0|34=172|49=CNS_DECIDE|52=20211012-01:34:09.434|56=BLP|10=244|
08:35:09.147 INFO  CNS_DECIDE---BLP--             - <<--- 8=FIX.4.2|9=0054|35=0|49=BLP|56=CNS_DECIDE|34=173|52=20211012-01:35:08|10=136|
08:35:09.434 INFO  CNS_DECIDE---BLP--             - --->> 8=FIX.4.2|9=58|35=0|34=173|49=CNS_DECIDE|52=20211012-01:35:09.434|56=BLP|10=246|
08:36:09.147 INFO  CNS_DECIDE---BLP--             - <<--- 8=FIX.4.2|9=0054|35=0|49=BLP|56=CNS_DECIDE|34=174|52=20211012-01:36:08|10=138|
08:36:09.435 INFO  CNS_DECIDE---BLP--             - --->> 8=FIX.4.2|9=58|35=0|34=174|49=CNS_DECIDE|52=20211012-01:36:09.435|56=BLP|10=249|
08:37:09.147 INFO  CNS_DECIDE---BLP--             - <<--- 8=FIX.4.2|9=0054|35=0|49=BLP|56=CNS_DECIDE|34=175|52=20211012-01:37:08|10=140|
08:37:09.436 INFO  CNS_DECIDE---BLP--             - --->> 8=FIX.4.2|9=58|35=0|34=175|49=CNS_DECIDE|52=20211012-01:37:09.436|56=BLP|10=252|
08:38:09.147 INFO  CNS_DECIDE---BLP--             - <<--- 8=FIX.4.2|9=0054|35=0|49=BLP|56=CNS_DECIDE|34=176|52=20211012-01:38:08|10=142|
08:38:09.437 INFO  CNS_DECIDE---BLP--             - --->> 8=FIX.4.2|9=58|35=0|34=176|49=CNS_DECIDE|52=20211012-01:38:09.437|56=BLP|10=255|
08:39:09.148 INFO  CNS_DECIDE---BLP--             - <<--- 8=FIX.4.2|9=0054|35=0|49=BLP|56=CNS_DECIDE|34=177|52=20211012-01:39:08|10=144|
08:39:09.437 INFO  CNS_DECIDE---BLP--             - --->> 8=FIX.4.2|9=58|35=0|34=177|49=CNS_DECIDE|52=20211012-01:39:09.437|56=BLP|10=001|
08:40:09.147 INFO  CNS_DECIDE---BLP--             - <<--- 8=FIX.4.2|9=0054|35=0|49=BLP|56=CNS_DECIDE|34=178|52=20211012-01:40:08|10=137|
08:40:09.438 INFO  CNS_DECIDE---BLP--             - --->> 8=FIX.4.2|9=58|35=0|34=178|49=CNS_DECIDE|52=20211012-01:40:09.438|56=BLP|10=251|
08:41:09.149 INFO  CNS_DECIDE---BLP--             - <<--- 8=FIX.4.2|9=0054|35=0|49=BLP|56=CNS_DECIDE|34=179|52=20211012-01:41:08|10=139|
08:41:09.439 INFO  CNS_DECIDE---BLP--             - --->> 8=FIX.4.2|9=58|35=0|34=179|49=CNS_DECIDE|52=20211012-01:41:09.439|56=BLP|10=254|
08:42:09.149 INFO  CNS_DECIDE---BLP--             - <<--- 8=FIX.4.2|9=0054|35=0|49=BLP|56=CNS_DECIDE|34=180|52=20211012-01:42:08|10=132|
08:42:09.440 INFO  CNS_DECIDE---BLP--             - --->> 8=FIX.4.2|9=58|35=0|34=180|49=CNS_DECIDE|52=20211012-01:42:09.440|56=BLP|10=239|
08:43:09.149 INFO  CNS_DECIDE---BLP--             - <<--- 8=FIX.4.2|9=0054|35=0|49=BLP|56=CNS_DECIDE|34=181|52=20211012-01:43:08|10=134|
08:43:09.441 INFO  CNS_DECIDE---BLP--             - --->> 8=FIX.4.2|9=58|35=0|34=181|49=CNS_DECIDE|52=20211012-01:43:09.441|56=BLP|10=242|
08:44:09.143 INFO  CNS_DECIDE---BLP--             - <<--- 8=FIX.4.2|9=0054|35=0|49=BLP|56=CNS_DECIDE|34=182|52=20211012-01:44:08|10=136|
08:44:09.441 INFO  CNS_DECIDE---BLP--             - --->> 8=FIX.4.2|9=58|35=0|34=182|49=CNS_DECIDE|52=20211012-01:44:09.441|56=BLP|10=244|
08:45:09.144 INFO  CNS_DECIDE---BLP--             - <<--- 8=FIX.4.2|9=0054|35=0|49=BLP|56=CNS_DECIDE|34=183|52=20211012-01:45:08|10=138|
08:45:09.443 INFO  CNS_DECIDE---BLP--             - --->> 8=FIX.4.2|9=58|35=0|34=183|49=CNS_DECIDE|52=20211012-01:45:09.443|56=BLP|10=248|
08:46:09.144 INFO  CNS_DECIDE---BLP--             - <<--- 8=FIX.4.2|9=0054|35=0|49=BLP|56=CNS_DECIDE|34=184|52=20211012-01:46:08|10=140|
08:46:09.445 INFO  CNS_DECIDE---BLP--             - --->> 8=FIX.4.2|9=58|35=0|34=184|49=CNS_DECIDE|52=20211012-01:46:09.445|56=BLP|10=252|
08:47:09.145 INFO  CNS_DECIDE---BLP--             - <<--- 8=FIX.4.2|9=0054|35=0|49=BLP|56=CNS_DECIDE|34=185|52=20211012-01:47:08|10=142|
08:47:09.444 INFO  CNS_DECIDE---BLP--             - --->> 8=FIX.4.2|9=58|35=0|34=185|49=CNS_DECIDE|52=20211012-01:47:09.444|56=BLP|10=253|
08:48:09.144 INFO  CNS_DECIDE---BLP--             - <<--- 8=FIX.4.2|9=0054|35=0|49=BLP|56=CNS_DECIDE|34=186|52=20211012-01:48:08|10=144|
08:48:09.446 INFO  CNS_DECIDE---BLP--             - --->> 8=FIX.4.2|9=58|35=0|34=186|49=CNS_DECIDE|52=20211012-01:48:09.446|56=BLP|10=001|
08:49:09.146 INFO  CNS_DECIDE---BLP--             - <<--- 8=FIX.4.2|9=0054|35=0|49=BLP|56=CNS_DECIDE|34=187|52=20211012-01:49:08|10=146|
08:49:09.447 INFO  CNS_DECIDE---BLP--             - --->> 8=FIX.4.2|9=58|35=0|34=187|49=CNS_DECIDE|52=20211012-01:49:09.447|56=BLP|10=004|
08:50:09.145 INFO  CNS_DECIDE---BLP--             - <<--- 8=FIX.4.2|9=0054|35=0|49=BLP|56=CNS_DECIDE|34=188|52=20211012-01:50:08|10=139|
08:50:09.448 INFO  CNS_DECIDE---BLP--             - --->> 8=FIX.4.2|9=58|35=0|34=188|49=CNS_DECIDE|52=20211012-01:50:09.448|56=BLP|10=254|
08:51:09.146 INFO  CNS_DECIDE---BLP--             - <<--- 8=FIX.4.2|9=0054|35=0|49=BLP|56=CNS_DECIDE|34=189|52=20211012-01:51:08|10=141|
08:51:09.448 INFO  CNS_DECIDE---BLP--             - --->> 8=FIX.4.2|9=58|35=0|34=189|49=CNS_DECIDE|52=20211012-01:51:09.448|56=BLP|10=000|
08:52:09.145 INFO  CNS_DECIDE---BLP--             - <<--- 8=FIX.4.2|9=0054|35=0|49=BLP|56=CNS_DECIDE|34=190|52=20211012-01:52:08|10=134|
08:52:09.449 INFO  CNS_DECIDE---BLP--             - --->> 8=FIX.4.2|9=58|35=0|34=190|49=CNS_DECIDE|52=20211012-01:52:09.449|56=BLP|10=250|
08:53:09.146 INFO  CNS_DECIDE---BLP--             - <<--- 8=FIX.4.2|9=0054|35=0|49=BLP|56=CNS_DECIDE|34=191|52=20211012-01:53:08|10=136|
08:53:09.450 INFO  CNS_DECIDE---BLP--             - --->> 8=FIX.4.2|9=58|35=0|34=191|49=CNS_DECIDE|52=20211012-01:53:09.450|56=BLP|10=244|
08:54:09.145 INFO  CNS_DECIDE---BLP--             - <<--- 8=FIX.4.2|9=0054|35=0|49=BLP|56=CNS_DECIDE|34=192|52=20211012-01:54:08|10=138|
08:54:09.451 INFO  CNS_DECIDE---BLP--             - --->> 8=FIX.4.2|9=58|35=0|34=192|49=CNS_DECIDE|52=20211012-01:54:09.451|56=BLP|10=247|
08:55:09.146 INFO  CNS_DECIDE---BLP--             - <<--- 8=FIX.4.2|9=0054|35=0|49=BLP|56=CNS_DECIDE|34=193|52=20211012-01:55:08|10=140|
08:55:09.451 INFO  CNS_DECIDE---BLP--             - --->> 8=FIX.4.2|9=58|35=0|34=193|49=CNS_DECIDE|52=20211012-01:55:09.451|56=BLP|10=249|
08:56:09.146 INFO  CNS_DECIDE---BLP--             - <<--- 8=FIX.4.2|9=0054|35=0|49=BLP|56=CNS_DECIDE|34=194|52=20211012-01:56:08|10=142|
08:56:09.454 INFO  CNS_DECIDE---BLP--             - --->> 8=FIX.4.2|9=58|35=0|34=194|49=CNS_DECIDE|52=20211012-01:56:09.454|56=BLP|10=254|
08:57:09.146 INFO  CNS_DECIDE---BLP--             - <<--- 8=FIX.4.2|9=0054|35=0|49=BLP|56=CNS_DECIDE|34=195|52=20211012-01:57:08|10=144|
08:57:09.453 INFO  CNS_DECIDE---BLP--             - --->> 8=FIX.4.2|9=58|35=0|34=195|49=CNS_DECIDE|52=20211012-01:57:09.453|56=BLP|10=255|
08:58:09.146 INFO  CNS_DECIDE---BLP--             - <<--- 8=FIX.4.2|9=0054|35=0|49=BLP|56=CNS_DECIDE|34=196|52=20211012-01:58:08|10=146|
08:58:09.455 INFO  CNS_DECIDE---BLP--             - --->> 8=FIX.4.2|9=58|35=0|34=196|49=CNS_DECIDE|52=20211012-01:58:09.455|56=BLP|10=003|
08:59:09.147 INFO  CNS_DECIDE---BLP--             - <<--- 8=FIX.4.2|9=0054|35=0|49=BLP|56=CNS_DECIDE|34=197|52=20211012-01:59:08|10=148|
08:59:09.455 INFO  CNS_DECIDE---BLP--             - --->> 8=FIX.4.2|9=58|35=0|34=197|49=CNS_DECIDE|52=20211012-01:59:09.455|56=BLP|10=005|
09:00:09.147 INFO  CNS_DECIDE---BLP--             - <<--- 8=FIX.4.2|9=0054|35=0|49=BLP|56=CNS_DECIDE|34=198|52=20211012-02:00:08|10=136|
09:00:09.457 INFO  CNS_DECIDE---BLP--             - --->> 8=FIX.4.2|9=58|35=0|34=198|49=CNS_DECIDE|52=20211012-02:00:09.457|56=BLP|10=251|
09:01:09.147 INFO  CNS_DECIDE---BLP--             - <<--- 8=FIX.4.2|9=0054|35=0|49=BLP|56=CNS_DECIDE|34=199|52=20211012-02:01:08|10=138|
09:01:09.457 INFO  CNS_DECIDE---BLP--             - --->> 8=FIX.4.2|9=58|35=0|34=199|49=CNS_DECIDE|52=20211012-02:01:09.457|56=BLP|10=253|
09:02:09.151 INFO  CNS_DECIDE---BLP--             - <<--- 8=FIX.4.2|9=0054|35=0|49=BLP|56=CNS_DECIDE|34=200|52=20211012-02:02:08|10=122|
09:02:09.462 INFO  CNS_DECIDE---BLP--             - --->> 8=FIX.4.2|9=58|35=0|34=200|49=CNS_DECIDE|52=20211012-02:02:09.462|56=BLP|10=233|
09:03:09.151 INFO  CNS_DECIDE---BLP--             - <<--- 8=FIX.4.2|9=0054|35=0|49=BLP|56=CNS_DECIDE|34=201|52=20211012-02:03:08|10=124|
09:03:09.462 INFO  CNS_DECIDE---BLP--             - --->> 8=FIX.4.2|9=58|35=0|34=201|49=CNS_DECIDE|52=20211012-02:03:09.462|56=BLP|10=235|
09:04:09.144 INFO  CNS_DECIDE---BLP--             - <<--- 8=FIX.4.2|9=0054|35=0|49=BLP|56=CNS_DECIDE|34=202|52=20211012-02:04:08|10=126|
09:04:09.462 INFO  CNS_DECIDE---BLP--             - --->> 8=FIX.4.2|9=58|35=0|34=202|49=CNS_DECIDE|52=20211012-02:04:09.462|56=BLP|10=237|
09:05:09.145 INFO  CNS_DECIDE---BLP--             - <<--- 8=FIX.4.2|9=0054|35=0|49=BLP|56=CNS_DECIDE|34=203|52=20211012-02:05:08|10=128|
09:05:09.462 INFO  CNS_DECIDE---BLP--             - --->> 8=FIX.4.2|9=58|35=0|34=203|49=CNS_DECIDE|52=20211012-02:05:09.462|56=BLP|10=239|
09:06:09.145 INFO  CNS_DECIDE---BLP--             - <<--- 8=FIX.4.2|9=0054|35=0|49=BLP|56=CNS_DECIDE|34=204|52=20211012-02:06:08|10=130|
09:06:09.465 INFO  CNS_DECIDE---BLP--             - --->> 8=FIX.4.2|9=58|35=0|34=204|49=CNS_DECIDE|52=20211012-02:06:09.465|56=BLP|10=244|
09:07:09.145 INFO  CNS_DECIDE---BLP--             - <<--- 8=FIX.4.2|9=0054|35=0|49=BLP|56=CNS_DECIDE|34=205|52=20211012-02:07:08|10=132|
09:07:09.466 INFO  CNS_DECIDE---BLP--             - --->> 8=FIX.4.2|9=58|35=0|34=205|49=CNS_DECIDE|52=20211012-02:07:09.466|56=BLP|10=247|
09:08:09.146 INFO  CNS_DECIDE---BLP--             - <<--- 8=FIX.4.2|9=0054|35=0|49=BLP|56=CNS_DECIDE|34=206|52=20211012-02:08:08|10=134|
09:08:09.466 INFO  CNS_DECIDE---BLP--             - --->> 8=FIX.4.2|9=58|35=0|34=206|49=CNS_DECIDE|52=20211012-02:08:09.466|56=BLP|10=249|
09:09:09.147 INFO  CNS_DECIDE---BLP--             - <<--- 8=FIX.4.2|9=0054|35=0|49=BLP|56=CNS_DECIDE|34=207|52=20211012-02:09:08|10=136|
09:09:09.466 INFO  CNS_DECIDE---BLP--             - --->> 8=FIX.4.2|9=58|35=0|34=207|49=CNS_DECIDE|52=20211012-02:09:09.466|56=BLP|10=251|
09:10:09.147 INFO  CNS_DECIDE---BLP--             - <<--- 8=FIX.4.2|9=0054|35=0|49=BLP|56=CNS_DECIDE|34=208|52=20211012-02:10:08|10=129|
09:10:09.468 INFO  CNS_DECIDE---BLP--             - --->> 8=FIX.4.2|9=58|35=0|34=208|49=CNS_DECIDE|52=20211012-02:10:09.468|56=BLP|10=246|
09:11:09.147 INFO  CNS_DECIDE---BLP--             - <<--- 8=FIX.4.2|9=0054|35=0|49=BLP|56=CNS_DECIDE|34=209|52=20211012-02:11:08|10=131|
09:11:09.470 INFO  CNS_DECIDE---BLP--             - --->> 8=FIX.4.2|9=58|35=0|34=209|49=CNS_DECIDE|52=20211012-02:11:09.470|56=BLP|10=241|
09:12:09.147 INFO  CNS_DECIDE---BLP--             - <<--- 8=FIX.4.2|9=0054|35=0|49=BLP|56=CNS_DECIDE|34=210|52=20211012-02:12:08|10=124|
09:12:09.469 INFO  CNS_DECIDE---BLP--             - --->> 8=FIX.4.2|9=58|35=0|34=210|49=CNS_DECIDE|52=20211012-02:12:09.469|56=BLP|10=242|
09:13:09.148 INFO  CNS_DECIDE---BLP--             - <<--- 8=FIX.4.2|9=0054|35=0|49=BLP|56=CNS_DECIDE|34=211|52=20211012-02:13:08|10=126|
09:13:09.470 INFO  CNS_DECIDE---BLP--             - --->> 8=FIX.4.2|9=58|35=0|34=211|49=CNS_DECIDE|52=20211012-02:13:09.470|56=BLP|10=236|
09:14:09.152 INFO  CNS_DECIDE---BLP--             - <<--- 8=FIX.4.2|9=0054|35=0|49=BLP|56=CNS_DECIDE|34=212|52=20211012-02:14:08|10=128|
09:14:09.471 INFO  CNS_DECIDE---BLP--             - --->> 8=FIX.4.2|9=58|35=0|34=212|49=CNS_DECIDE|52=20211012-02:14:09.471|56=BLP|10=239|
09:15:09.152 INFO  CNS_DECIDE---BLP--             - <<--- 8=FIX.4.2|9=0054|35=0|49=BLP|56=CNS_DECIDE|34=213|52=20211012-02:15:08|10=130|
09:15:09.472 INFO  CNS_DECIDE---BLP--             - --->> 8=FIX.4.2|9=58|35=0|34=213|49=CNS_DECIDE|52=20211012-02:15:09.472|56=BLP|10=242|
09:16:09.152 INFO  CNS_DECIDE---BLP--             - <<--- 8=FIX.4.2|9=0054|35=0|49=BLP|56=CNS_DECIDE|34=214|52=20211012-02:16:08|10=132|
09:16:09.473 INFO  CNS_DECIDE---BLP--             - --->> 8=FIX.4.2|9=58|35=0|34=214|49=CNS_DECIDE|52=20211012-02:16:09.473|56=BLP|10=245|
09:17:09.152 INFO  CNS_DECIDE---BLP--             - <<--- 8=FIX.4.2|9=0054|35=0|49=BLP|56=CNS_DECIDE|34=215|52=20211012-02:17:08|10=134|
09:17:09.474 INFO  CNS_DECIDE---BLP--             - --->> 8=FIX.4.2|9=58|35=0|34=215|49=CNS_DECIDE|52=20211012-02:17:09.474|56=BLP|10=248|
09:18:09.152 INFO  CNS_DECIDE---BLP--             - <<--- 8=FIX.4.2|9=0054|35=0|49=BLP|56=CNS_DECIDE|34=216|52=20211012-02:18:09|10=137|
09:18:09.475 INFO  CNS_DECIDE---BLP--             - --->> 8=FIX.4.2|9=58|35=0|34=216|49=CNS_DECIDE|52=20211012-02:18:09.475|56=BLP|10=251|
09:19:09.153 INFO  CNS_DECIDE---BLP--             - <<--- 8=FIX.4.2|9=0054|35=0|49=BLP|56=CNS_DECIDE|34=217|52=20211012-02:19:09|10=139|
09:19:09.475 INFO  CNS_DECIDE---BLP--             - --->> 8=FIX.4.2|9=58|35=0|34=217|49=CNS_DECIDE|52=20211012-02:19:09.475|56=BLP|10=253|
09:20:09.153 INFO  CNS_DECIDE---BLP--             - <<--- 8=FIX.4.2|9=0054|35=0|49=BLP|56=CNS_DECIDE|34=218|52=20211012-02:20:09|10=132|
09:20:09.476 INFO  CNS_DECIDE---BLP--             - --->> 8=FIX.4.2|9=58|35=0|34=218|49=CNS_DECIDE|52=20211012-02:20:09.476|56=BLP|10=247|
09:21:09.154 INFO  CNS_DECIDE---BLP--             - <<--- 8=FIX.4.2|9=0054|35=0|49=BLP|56=CNS_DECIDE|34=219|52=20211012-02:21:09|10=134|
09:21:09.477 INFO  CNS_DECIDE---BLP--             - --->> 8=FIX.4.2|9=58|35=0|34=219|49=CNS_DECIDE|52=20211012-02:21:09.477|56=BLP|10=250|
09:22:09.154 INFO  CNS_DECIDE---BLP--             - <<--- 8=FIX.4.2|9=0054|35=0|49=BLP|56=CNS_DECIDE|34=220|52=20211012-02:22:09|10=127|
09:22:09.478 INFO  CNS_DECIDE---BLP--             - --->> 8=FIX.4.2|9=58|35=0|34=220|49=CNS_DECIDE|52=20211012-02:22:09.478|56=BLP|10=244|
09:23:09.155 INFO  CNS_DECIDE---BLP--             - <<--- 8=FIX.4.2|9=0054|35=0|49=BLP|56=CNS_DECIDE|34=221|52=20211012-02:23:09|10=129|
09:23:09.478 INFO  CNS_DECIDE---BLP--             - --->> 8=FIX.4.2|9=58|35=0|34=221|49=CNS_DECIDE|52=20211012-02:23:09.478|56=BLP|10=246|
09:24:09.153 INFO  CNS_DECIDE---BLP--             - <<--- 8=FIX.4.2|9=0054|35=0|49=BLP|56=CNS_DECIDE|34=222|52=20211012-02:24:09|10=131|
09:24:09.479 INFO  CNS_DECIDE---BLP--             - --->> 8=FIX.4.2|9=58|35=0|34=222|49=CNS_DECIDE|52=20211012-02:24:09.479|56=BLP|10=249|
09:25:09.154 INFO  CNS_DECIDE---BLP--             - <<--- 8=FIX.4.2|9=0054|35=0|49=BLP|56=CNS_DECIDE|34=223|52=20211012-02:25:09|10=133|
09:25:09.481 INFO  CNS_DECIDE---BLP--             - --->> 8=FIX.4.2|9=58|35=0|34=223|49=CNS_DECIDE|52=20211012-02:25:09.481|56=BLP|10=244|
09:26:09.154 INFO  CNS_DECIDE---BLP--             - <<--- 8=FIX.4.2|9=0054|35=0|49=BLP|56=CNS_DECIDE|34=224|52=20211012-02:26:09|10=135|
09:26:09.481 INFO  CNS_DECIDE---BLP--             - --->> 8=FIX.4.2|9=58|35=0|34=224|49=CNS_DECIDE|52=20211012-02:26:09.481|56=BLP|10=246|
09:27:09.154 INFO  CNS_DECIDE---BLP--             - <<--- 8=FIX.4.2|9=0054|35=0|49=BLP|56=CNS_DECIDE|34=225|52=20211012-02:27:09|10=137|
09:27:09.482 INFO  CNS_DECIDE---BLP--             - --->> 8=FIX.4.2|9=58|35=0|34=225|49=CNS_DECIDE|52=20211012-02:27:09.482|56=BLP|10=249|
09:28:09.154 INFO  CNS_DECIDE---BLP--             - <<--- 8=FIX.4.2|9=0054|35=0|49=BLP|56=CNS_DECIDE|34=226|52=20211012-02:28:09|10=139|
09:28:09.483 INFO  CNS_DECIDE---BLP--             - --->> 8=FIX.4.2|9=58|35=0|34=226|49=CNS_DECIDE|52=20211012-02:28:09.483|56=BLP|10=252|
09:29:09.155 INFO  CNS_DECIDE---BLP--             - <<--- 8=FIX.4.2|9=0054|35=0|49=BLP|56=CNS_DECIDE|34=227|52=20211012-02:29:09|10=141|
09:29:09.484 INFO  CNS_DECIDE---BLP--             - --->> 8=FIX.4.2|9=58|35=0|34=227|49=CNS_DECIDE|52=20211012-02:29:09.484|56=BLP|10=255|
09:30:09.155 INFO  CNS_DECIDE---BLP--             - <<--- 8=FIX.4.2|9=0054|35=0|49=BLP|56=CNS_DECIDE|34=228|52=20211012-02:30:09|10=134|
09:30:09.485 INFO  CNS_DECIDE---BLP--             - --->> 8=FIX.4.2|9=58|35=0|34=228|49=CNS_DECIDE|52=20211012-02:30:09.485|56=BLP|10=249|
09:31:09.155 INFO  CNS_DECIDE---BLP--             - <<--- 8=FIX.4.2|9=0054|35=0|49=BLP|56=CNS_DECIDE|34=229|52=20211012-02:31:09|10=136|
09:31:09.486 INFO  CNS_DECIDE---BLP--             - --->> 8=FIX.4.2|9=58|35=0|34=229|49=CNS_DECIDE|52=20211012-02:31:09.486|56=BLP|10=252|
09:32:09.154 INFO  CNS_DECIDE---BLP--             - <<--- 8=FIX.4.2|9=0054|35=0|49=BLP|56=CNS_DECIDE|34=230|52=20211012-02:32:09|10=129|
09:32:09.486 INFO  CNS_DECIDE---BLP--             - --->> 8=FIX.4.2|9=58|35=0|34=230|49=CNS_DECIDE|52=20211012-02:32:09.486|56=BLP|10=245|
09:33:09.154 INFO  CNS_DECIDE---BLP--             - <<--- 8=FIX.4.2|9=0054|35=0|49=BLP|56=CNS_DECIDE|34=231|52=20211012-02:33:09|10=131|
09:33:09.487 INFO  CNS_DECIDE---BLP--             - --->> 8=FIX.4.2|9=58|35=0|34=231|49=CNS_DECIDE|52=20211012-02:33:09.487|56=BLP|10=248|
09:34:09.149 INFO  CNS_DECIDE---BLP--             - <<--- 8=FIX.4.2|9=0054|35=0|49=BLP|56=CNS_DECIDE|34=232|52=20211012-02:34:08|10=132|
09:34:09.486 INFO  CNS_DECIDE---BLP--             - --->> 8=FIX.4.2|9=58|35=0|34=232|49=CNS_DECIDE|52=20211012-02:34:09.486|56=BLP|10=249|
09:35:09.150 INFO  CNS_DECIDE---BLP--             - <<--- 8=FIX.4.2|9=0054|35=0|49=BLP|56=CNS_DECIDE|34=233|52=20211012-02:35:08|10=134|
09:35:09.487 INFO  CNS_DECIDE---BLP--             - --->> 8=FIX.4.2|9=58|35=0|34=233|49=CNS_DECIDE|52=20211012-02:35:09.487|56=BLP|10=252|
09:36:09.150 INFO  CNS_DECIDE---BLP--             - <<--- 8=FIX.4.2|9=0054|35=0|49=BLP|56=CNS_DECIDE|34=234|52=20211012-02:36:08|10=136|
09:36:09.489 INFO  CNS_DECIDE---BLP--             - --->> 8=FIX.4.2|9=58|35=0|34=234|49=CNS_DECIDE|52=20211012-02:36:09.489|56=BLP|10=000|
09:37:09.150 INFO  CNS_DECIDE---BLP--             - <<--- 8=FIX.4.2|9=0054|35=0|49=BLP|56=CNS_DECIDE|34=235|52=20211012-02:37:09|10=139|
09:37:09.489 INFO  CNS_DECIDE---BLP--             - --->> 8=FIX.4.2|9=58|35=0|34=235|49=CNS_DECIDE|52=20211012-02:37:09.489|56=BLP|10=002|
09:38:09.150 INFO  CNS_DECIDE---BLP--             - <<--- 8=FIX.4.2|9=0054|35=0|49=BLP|56=CNS_DECIDE|34=236|52=20211012-02:38:09|10=141|
09:38:09.490 INFO  CNS_DECIDE---BLP--             - --->> 8=FIX.4.2|9=58|35=0|34=236|49=CNS_DECIDE|52=20211012-02:38:09.490|56=BLP|10=252|
09:39:09.151 INFO  CNS_DECIDE---BLP--             - <<--- 8=FIX.4.2|9=0054|35=0|49=BLP|56=CNS_DECIDE|34=237|52=20211012-02:39:09|10=143|
09:39:09.492 INFO  CNS_DECIDE---BLP--             - --->> 8=FIX.4.2|9=58|35=0|34=237|49=CNS_DECIDE|52=20211012-02:39:09.492|56=BLP|10=000|
09:40:09.151 INFO  CNS_DECIDE---BLP--             - <<--- 8=FIX.4.2|9=0054|35=0|49=BLP|56=CNS_DECIDE|34=238|52=20211012-02:40:09|10=136|
09:40:09.493 INFO  CNS_DECIDE---BLP--             - --->> 8=FIX.4.2|9=58|35=0|34=238|49=CNS_DECIDE|52=20211012-02:40:09.493|56=BLP|10=250|
09:41:09.152 INFO  CNS_DECIDE---BLP--             - <<--- 8=FIX.4.2|9=0054|35=0|49=BLP|56=CNS_DECIDE|34=239|52=20211012-02:41:09|10=138|
09:41:09.494 INFO  CNS_DECIDE---BLP--             - --->> 8=FIX.4.2|9=58|35=0|34=239|49=CNS_DECIDE|52=20211012-02:41:09.494|56=BLP|10=253|
09:42:09.152 INFO  CNS_DECIDE---BLP--             - <<--- 8=FIX.4.2|9=0054|35=0|49=BLP|56=CNS_DECIDE|34=240|52=20211012-02:42:09|10=131|
09:42:09.495 INFO  CNS_DECIDE---BLP--             - --->> 8=FIX.4.2|9=58|35=0|34=240|49=CNS_DECIDE|52=20211012-02:42:09.495|56=BLP|10=247|
09:43:09.153 INFO  CNS_DECIDE---BLP--             - <<--- 8=FIX.4.2|9=0054|35=0|49=BLP|56=CNS_DECIDE|34=241|52=20211012-02:43:09|10=133|
09:43:09.494 INFO  CNS_DECIDE---BLP--             - --->> 8=FIX.4.2|9=58|35=0|34=241|49=CNS_DECIDE|52=20211012-02:43:09.494|56=BLP|10=248|
09:44:09.154 INFO  CNS_DECIDE---BLP--             - <<--- 8=FIX.4.2|9=0054|35=0|49=BLP|56=CNS_DECIDE|34=242|52=20211012-02:44:09|10=135|
09:44:09.495 INFO  CNS_DECIDE---BLP--             - --->> 8=FIX.4.2|9=58|35=0|34=242|49=CNS_DECIDE|52=20211012-02:44:09.495|56=BLP|10=251|
09:45:09.157 INFO  CNS_DECIDE---BLP--             - <<--- 8=FIX.4.2|9=0054|35=0|49=BLP|56=CNS_DECIDE|34=243|52=20211012-02:45:09|10=137|
09:45:09.496 INFO  CNS_DECIDE---BLP--             - --->> 8=FIX.4.2|9=58|35=0|34=243|49=CNS_DECIDE|52=20211012-02:45:09.496|56=BLP|10=254|
09:46:09.158 INFO  CNS_DECIDE---BLP--             - <<--- 8=FIX.4.2|9=0054|35=0|49=BLP|56=CNS_DECIDE|34=244|52=20211012-02:46:09|10=139|
09:46:09.500 INFO  CNS_DECIDE---BLP--             - --->> 8=FIX.4.2|9=58|35=0|34=244|49=CNS_DECIDE|52=20211012-02:46:09.500|56=BLP|10=242|
09:47:09.158 INFO  CNS_DECIDE---BLP--             - <<--- 8=FIX.4.2|9=0054|35=0|49=BLP|56=CNS_DECIDE|34=245|52=20211012-02:47:09|10=141|
09:47:09.500 INFO  CNS_DECIDE---BLP--             - --->> 8=FIX.4.2|9=58|35=0|34=245|49=CNS_DECIDE|52=20211012-02:47:09.500|56=BLP|10=244|
09:48:09.158 INFO  CNS_DECIDE---BLP--             - <<--- 8=FIX.4.2|9=0054|35=0|49=BLP|56=CNS_DECIDE|34=246|52=20211012-02:48:09|10=143|
09:48:09.501 INFO  CNS_DECIDE---BLP--             - --->> 8=FIX.4.2|9=58|35=0|34=246|49=CNS_DECIDE|52=20211012-02:48:09.501|56=BLP|10=247|
09:49:09.159 INFO  CNS_DECIDE---BLP--             - <<--- 8=FIX.4.2|9=0054|35=0|49=BLP|56=CNS_DECIDE|34=247|52=20211012-02:49:09|10=145|
09:49:09.503 INFO  CNS_DECIDE---BLP--             - --->> 8=FIX.4.2|9=58|35=0|34=247|49=CNS_DECIDE|52=20211012-02:49:09.503|56=BLP|10=251|
09:50:09.159 INFO  CNS_DECIDE---BLP--             - <<--- 8=FIX.4.2|9=0054|35=0|49=BLP|56=CNS_DECIDE|34=248|52=20211012-02:50:09|10=138|
09:50:09.504 INFO  CNS_DECIDE---BLP--             - --->> 8=FIX.4.2|9=58|35=0|34=248|49=CNS_DECIDE|52=20211012-02:50:09.504|56=BLP|10=245|
09:51:09.160 INFO  CNS_DECIDE---BLP--             - <<--- 8=FIX.4.2|9=0054|35=0|49=BLP|56=CNS_DECIDE|34=249|52=20211012-02:51:09|10=140|
09:51:09.504 INFO  CNS_DECIDE---BLP--             - --->> 8=FIX.4.2|9=58|35=0|34=249|49=CNS_DECIDE|52=20211012-02:51:09.504|56=BLP|10=247|
09:52:09.160 INFO  CNS_DECIDE---BLP--             - <<--- 8=FIX.4.2|9=0054|35=0|49=BLP|56=CNS_DECIDE|34=250|52=20211012-02:52:09|10=133|
09:52:09.505 INFO  CNS_DECIDE---BLP--             - --->> 8=FIX.4.2|9=58|35=0|34=250|49=CNS_DECIDE|52=20211012-02:52:09.505|56=BLP|10=241|
09:53:09.160 INFO  CNS_DECIDE---BLP--             - <<--- 8=FIX.4.2|9=0054|35=0|49=BLP|56=CNS_DECIDE|34=251|52=20211012-02:53:09|10=135|
09:53:09.506 INFO  CNS_DECIDE---BLP--             - --->> 8=FIX.4.2|9=58|35=0|34=251|49=CNS_DECIDE|52=20211012-02:53:09.506|56=BLP|10=244|
09:54:09.159 INFO  CNS_DECIDE---BLP--             - <<--- 8=FIX.4.2|9=0054|35=0|49=BLP|56=CNS_DECIDE|34=252|52=20211012-02:54:09|10=137|
09:54:09.508 INFO  CNS_DECIDE---BLP--             - --->> 8=FIX.4.2|9=58|35=0|34=252|49=CNS_DECIDE|52=20211012-02:54:09.508|56=BLP|10=248|
09:55:09.159 INFO  CNS_DECIDE---BLP--             - <<--- 8=FIX.4.2|9=0054|35=0|49=BLP|56=CNS_DECIDE|34=253|52=20211012-02:55:09|10=139|
09:55:09.508 INFO  CNS_DECIDE---BLP--             - --->> 8=FIX.4.2|9=58|35=0|34=253|49=CNS_DECIDE|52=20211012-02:55:09.508|56=BLP|10=250|
09:56:09.159 INFO  CNS_DECIDE---BLP--             - <<--- 8=FIX.4.2|9=0054|35=0|49=BLP|56=CNS_DECIDE|34=254|52=20211012-02:56:09|10=141|
09:56:09.509 INFO  CNS_DECIDE---BLP--             - --->> 8=FIX.4.2|9=58|35=0|34=254|49=CNS_DECIDE|52=20211012-02:56:09.509|56=BLP|10=253|
09:57:09.160 INFO  CNS_DECIDE---BLP--             - <<--- 8=FIX.4.2|9=0054|35=0|49=BLP|56=CNS_DECIDE|34=255|52=20211012-02:57:09|10=143|
09:57:09.510 INFO  CNS_DECIDE---BLP--             - --->> 8=FIX.4.2|9=58|35=0|34=255|49=CNS_DECIDE|52=20211012-02:57:09.510|56=BLP|10=247|
09:58:09.159 INFO  CNS_DECIDE---BLP--             - <<--- 8=FIX.4.2|9=0054|35=0|49=BLP|56=CNS_DECIDE|34=256|52=20211012-02:58:09|10=145|
09:58:09.511 INFO  CNS_DECIDE---BLP--             - --->> 8=FIX.4.2|9=58|35=0|34=256|49=CNS_DECIDE|52=20211012-02:58:09.511|56=BLP|10=250|
09:59:09.160 INFO  CNS_DECIDE---BLP--             - <<--- 8=FIX.4.2|9=0054|35=0|49=BLP|56=CNS_DECIDE|34=257|52=20211012-02:59:09|10=147|
09:59:09.512 INFO  CNS_DECIDE---BLP--             - --->> 8=FIX.4.2|9=58|35=0|34=257|49=CNS_DECIDE|52=20211012-02:59:09.512|56=BLP|10=253|
10:00:09.160 INFO  CNS_DECIDE---BLP--             - <<--- 8=FIX.4.2|9=0054|35=0|49=BLP|56=CNS_DECIDE|34=258|52=20211012-03:00:09|10=135|
10:00:09.513 INFO  CNS_DECIDE---BLP--             - --->> 8=FIX.4.2|9=58|35=0|34=258|49=CNS_DECIDE|52=20211012-03:00:09.513|56=BLP|10=242|
10:01:09.161 INFO  CNS_DECIDE---BLP--             - <<--- 8=FIX.4.2|9=0054|35=0|49=BLP|56=CNS_DECIDE|34=259|52=20211012-03:01:09|10=137|
10:01:09.514 INFO  CNS_DECIDE---BLP--             - --->> 8=FIX.4.2|9=58|35=0|34=259|49=CNS_DECIDE|52=20211012-03:01:09.514|56=BLP|10=245|
10:02:09.161 INFO  CNS_DECIDE---BLP--             - <<--- 8=FIX.4.2|9=0054|35=0|49=BLP|56=CNS_DECIDE|34=260|52=20211012-03:02:09|10=130|
10:02:09.514 INFO  CNS_DECIDE---BLP--             - --->> 8=FIX.4.2|9=58|35=0|34=260|49=CNS_DECIDE|52=20211012-03:02:09.514|56=BLP|10=238|
10:03:09.161 INFO  CNS_DECIDE---BLP--             - <<--- 8=FIX.4.2|9=0054|35=0|49=BLP|56=CNS_DECIDE|34=261|52=20211012-03:03:09|10=132|
10:03:09.514 INFO  CNS_DECIDE---BLP--             - --->> 8=FIX.4.2|9=58|35=0|34=261|49=CNS_DECIDE|52=20211012-03:03:09.514|56=BLP|10=240|
10:04:09.168 INFO  CNS_DECIDE---BLP--             - <<--- 8=FIX.4.2|9=0054|35=0|49=BLP|56=CNS_DECIDE|34=262|52=20211012-03:04:09|10=134|
10:04:09.515 INFO  CNS_DECIDE---BLP--             - --->> 8=FIX.4.2|9=58|35=0|34=262|49=CNS_DECIDE|52=20211012-03:04:09.515|56=BLP|10=243|
10:05:09.168 INFO  CNS_DECIDE---BLP--             - <<--- 8=FIX.4.2|9=0054|35=0|49=BLP|56=CNS_DECIDE|34=263|52=20211012-03:05:09|10=136|
10:05:09.517 INFO  CNS_DECIDE---BLP--             - --->> 8=FIX.4.2|9=58|35=0|34=263|49=CNS_DECIDE|52=20211012-03:05:09.517|56=BLP|10=247|
10:06:09.168 INFO  CNS_DECIDE---BLP--             - <<--- 8=FIX.4.2|9=0054|35=0|49=BLP|56=CNS_DECIDE|34=264|52=20211012-03:06:09|10=138|
10:06:09.517 INFO  CNS_DECIDE---BLP--             - --->> 8=FIX.4.2|9=58|35=0|34=264|49=CNS_DECIDE|52=20211012-03:06:09.517|56=BLP|10=249|
10:07:09.169 INFO  CNS_DECIDE---BLP--             - <<--- 8=FIX.4.2|9=0054|35=0|49=BLP|56=CNS_DECIDE|34=265|52=20211012-03:07:09|10=140|
10:07:09.518 INFO  CNS_DECIDE---BLP--             - --->> 8=FIX.4.2|9=58|35=0|34=265|49=CNS_DECIDE|52=20211012-03:07:09.518|56=BLP|10=252|
10:08:09.169 INFO  CNS_DECIDE---BLP--             - <<--- 8=FIX.4.2|9=0054|35=0|49=BLP|56=CNS_DECIDE|34=266|52=20211012-03:08:09|10=142|
10:08:09.519 INFO  CNS_DECIDE---BLP--             - --->> 8=FIX.4.2|9=58|35=0|34=266|49=CNS_DECIDE|52=20211012-03:08:09.519|56=BLP|10=255|
10:09:09.170 INFO  CNS_DECIDE---BLP--             - <<--- 8=FIX.4.2|9=0054|35=0|49=BLP|56=CNS_DECIDE|34=267|52=20211012-03:09:09|10=144|
10:09:09.520 INFO  CNS_DECIDE---BLP--             - --->> 8=FIX.4.2|9=58|35=0|34=267|49=CNS_DECIDE|52=20211012-03:09:09.520|56=BLP|10=249|
10:10:09.169 INFO  CNS_DECIDE---BLP--             - <<--- 8=FIX.4.2|9=0054|35=0|49=BLP|56=CNS_DECIDE|34=268|52=20211012-03:10:09|10=137|
10:10:09.521 INFO  CNS_DECIDE---BLP--             - --->> 8=FIX.4.2|9=58|35=0|34=268|49=CNS_DECIDE|52=20211012-03:10:09.521|56=BLP|10=243|
10:11:09.171 INFO  CNS_DECIDE---BLP--             - <<--- 8=FIX.4.2|9=0054|35=0|49=BLP|56=CNS_DECIDE|34=269|52=20211012-03:11:09|10=139|
10:11:09.522 INFO  CNS_DECIDE---BLP--             - --->> 8=FIX.4.2|9=58|35=0|34=269|49=CNS_DECIDE|52=20211012-03:11:09.522|56=BLP|10=246|
10:12:09.170 INFO  CNS_DECIDE---BLP--             - <<--- 8=FIX.4.2|9=0054|35=0|49=BLP|56=CNS_DECIDE|34=270|52=20211012-03:12:09|10=132|
10:12:09.523 INFO  CNS_DECIDE---BLP--             - --->> 8=FIX.4.2|9=58|35=0|34=270|49=CNS_DECIDE|52=20211012-03:12:09.523|56=BLP|10=240|
10:13:09.171 INFO  CNS_DECIDE---BLP--             - <<--- 8=FIX.4.2|9=0054|35=0|49=BLP|56=CNS_DECIDE|34=271|52=20211012-03:13:09|10=134|
10:13:09.523 INFO  CNS_DECIDE---BLP--             - --->> 8=FIX.4.2|9=58|35=0|34=271|49=CNS_DECIDE|52=20211012-03:13:09.523|56=BLP|10=242|
10:14:09.178 INFO  CNS_DECIDE---BLP--             - <<--- 8=FIX.4.2|9=0054|35=0|49=BLP|56=CNS_DECIDE|34=272|52=20211012-03:14:09|10=136|
10:14:09.524 INFO  CNS_DECIDE---BLP--             - --->> 8=FIX.4.2|9=58|35=0|34=272|49=CNS_DECIDE|52=20211012-03:14:09.524|56=BLP|10=245|
10:15:09.178 INFO  CNS_DECIDE---BLP--             - <<--- 8=FIX.4.2|9=0054|35=0|49=BLP|56=CNS_DECIDE|34=273|52=20211012-03:15:09|10=138|
10:15:09.525 INFO  CNS_DECIDE---BLP--             - --->> 8=FIX.4.2|9=58|35=0|34=273|49=CNS_DECIDE|52=20211012-03:15:09.525|56=BLP|10=248|
10:16:09.178 INFO  CNS_DECIDE---BLP--             - <<--- 8=FIX.4.2|9=0054|35=0|49=BLP|56=CNS_DECIDE|34=274|52=20211012-03:16:09|10=140|
10:16:09.527 INFO  CNS_DECIDE---BLP--             - --->> 8=FIX.4.2|9=58|35=0|34=274|49=CNS_DECIDE|52=20211012-03:16:09.527|56=BLP|10=252|
10:17:09.179 INFO  CNS_DECIDE---BLP--             - <<--- 8=FIX.4.2|9=0054|35=0|49=BLP|56=CNS_DECIDE|34=275|52=20211012-03:17:09|10=142|
10:17:09.527 INFO  CNS_DECIDE---BLP--             - --->> 8=FIX.4.2|9=58|35=0|34=275|49=CNS_DECIDE|52=20211012-03:17:09.527|56=BLP|10=254|
10:18:09.179 INFO  CNS_DECIDE---BLP--             - <<--- 8=FIX.4.2|9=0054|35=0|49=BLP|56=CNS_DECIDE|34=276|52=20211012-03:18:09|10=144|
10:18:09.529 INFO  CNS_DECIDE---BLP--             - --->> 8=FIX.4.2|9=58|35=0|34=276|49=CNS_DECIDE|52=20211012-03:18:09.529|56=BLP|10=002|
10:19:09.179 INFO  CNS_DECIDE---BLP--             - <<--- 8=FIX.4.2|9=0054|35=0|49=BLP|56=CNS_DECIDE|34=277|52=20211012-03:19:09|10=146|
10:19:09.530 INFO  CNS_DECIDE---BLP--             - --->> 8=FIX.4.2|9=58|35=0|34=277|49=CNS_DECIDE|52=20211012-03:19:09.530|56=BLP|10=252|
10:20:09.179 INFO  CNS_DECIDE---BLP--             - <<--- 8=FIX.4.2|9=0054|35=0|49=BLP|56=CNS_DECIDE|34=278|52=20211012-03:20:09|10=139|
10:20:09.529 INFO  CNS_DECIDE---BLP--             - --->> 8=FIX.4.2|9=58|35=0|34=278|49=CNS_DECIDE|52=20211012-03:20:09.529|56=BLP|10=253|
10:21:09.180 INFO  CNS_DECIDE---BLP--             - <<--- 8=FIX.4.2|9=0054|35=0|49=BLP|56=CNS_DECIDE|34=279|52=20211012-03:21:09|10=141|
10:21:09.532 INFO  CNS_DECIDE---BLP--             - --->> 8=FIX.4.2|9=58|35=0|34=279|49=CNS_DECIDE|52=20211012-03:21:09.532|56=BLP|10=249|
10:22:09.180 INFO  CNS_DECIDE---BLP--             - <<--- 8=FIX.4.2|9=0054|35=0|49=BLP|56=CNS_DECIDE|34=280|52=20211012-03:22:09|10=134|
10:22:09.531 INFO  CNS_DECIDE---BLP--             - --->> 8=FIX.4.2|9=58|35=0|34=280|49=CNS_DECIDE|52=20211012-03:22:09.531|56=BLP|10=241|
10:23:09.181 INFO  CNS_DECIDE---BLP--             - <<--- 8=FIX.4.2|9=0054|35=0|49=BLP|56=CNS_DECIDE|34=281|52=20211012-03:23:09|10=136|
10:23:09.533 INFO  CNS_DECIDE---BLP--             - --->> 8=FIX.4.2|9=58|35=0|34=281|49=CNS_DECIDE|52=20211012-03:23:09.533|56=BLP|10=245|
10:24:09.179 INFO  CNS_DECIDE---BLP--             - <<--- 8=FIX.4.2|9=0054|35=0|49=BLP|56=CNS_DECIDE|34=282|52=20211012-03:24:09|10=138|
10:24:09.533 INFO  CNS_DECIDE---BLP--             - --->> 8=FIX.4.2|9=58|35=0|34=282|49=CNS_DECIDE|52=20211012-03:24:09.533|56=BLP|10=247|
10:25:09.180 INFO  CNS_DECIDE---BLP--             - <<--- 8=FIX.4.2|9=0054|35=0|49=BLP|56=CNS_DECIDE|34=283|52=20211012-03:25:09|10=140|
10:25:09.535 INFO  CNS_DECIDE---BLP--             - --->> 8=FIX.4.2|9=58|35=0|34=283|49=CNS_DECIDE|52=20211012-03:25:09.535|56=BLP|10=251|
10:26:09.180 INFO  CNS_DECIDE---BLP--             - <<--- 8=FIX.4.2|9=0054|35=0|49=BLP|56=CNS_DECIDE|34=284|52=20211012-03:26:09|10=142|
10:26:09.535 INFO  CNS_DECIDE---BLP--             - --->> 8=FIX.4.2|9=58|35=0|34=284|49=CNS_DECIDE|52=20211012-03:26:09.535|56=BLP|10=253|
10:27:09.181 INFO  CNS_DECIDE---BLP--             - <<--- 8=FIX.4.2|9=0054|35=0|49=BLP|56=CNS_DECIDE|34=285|52=20211012-03:27:09|10=144|
10:27:09.536 INFO  CNS_DECIDE---BLP--             - --->> 8=FIX.4.2|9=58|35=0|34=285|49=CNS_DECIDE|52=20211012-03:27:09.536|56=BLP|10=000|
10:28:09.180 INFO  CNS_DECIDE---BLP--             - <<--- 8=FIX.4.2|9=0054|35=0|49=BLP|56=CNS_DECIDE|34=286|52=20211012-03:28:09|10=146|
10:28:09.537 INFO  CNS_DECIDE---BLP--             - --->> 8=FIX.4.2|9=58|35=0|34=286|49=CNS_DECIDE|52=20211012-03:28:09.537|56=BLP|10=003|
10:29:09.182 INFO  CNS_DECIDE---BLP--             - <<--- 8=FIX.4.2|9=0054|35=0|49=BLP|56=CNS_DECIDE|34=287|52=20211012-03:29:09|10=148|
10:29:09.538 INFO  CNS_DECIDE---BLP--             - --->> 8=FIX.4.2|9=58|35=0|34=287|49=CNS_DECIDE|52=20211012-03:29:09.538|56=BLP|10=006|
10:30:09.184 INFO  CNS_DECIDE---BLP--             - <<--- 8=FIX.4.2|9=0054|35=0|49=BLP|56=CNS_DECIDE|34=288|52=20211012-03:30:09|10=141|
10:30:09.541 INFO  CNS_DECIDE---BLP--             - --->> 8=FIX.4.2|9=58|35=0|34=288|49=CNS_DECIDE|52=20211012-03:30:09.541|56=BLP|10=249|
10:31:09.185 INFO  CNS_DECIDE---BLP--             - <<--- 8=FIX.4.2|9=0054|35=0|49=BLP|56=CNS_DECIDE|34=289|52=20211012-03:31:09|10=143|
10:31:09.542 INFO  CNS_DECIDE---BLP--             - --->> 8=FIX.4.2|9=58|35=0|34=289|49=CNS_DECIDE|52=20211012-03:31:09.542|56=BLP|10=252|
10:32:09.185 INFO  CNS_DECIDE---BLP--             - <<--- 8=FIX.4.2|9=0054|35=0|49=BLP|56=CNS_DECIDE|34=290|52=20211012-03:32:09|10=136|
10:32:09.543 INFO  CNS_DECIDE---BLP--             - --->> 8=FIX.4.2|9=58|35=0|34=290|49=CNS_DECIDE|52=20211012-03:32:09.543|56=BLP|10=246|
10:33:09.185 INFO  CNS_DECIDE---BLP--             - <<--- 8=FIX.4.2|9=0054|35=0|49=BLP|56=CNS_DECIDE|34=291|52=20211012-03:33:09|10=138|
10:33:09.544 INFO  CNS_DECIDE---BLP--             - --->> 8=FIX.4.2|9=58|35=0|34=291|49=CNS_DECIDE|52=20211012-03:33:09.544|56=BLP|10=249|
10:34:09.184 INFO  CNS_DECIDE---BLP--             - <<--- 8=FIX.4.2|9=0054|35=0|49=BLP|56=CNS_DECIDE|34=292|52=20211012-03:34:09|10=140|
10:34:09.545 INFO  CNS_DECIDE---BLP--             - --->> 8=FIX.4.2|9=58|35=0|34=292|49=CNS_DECIDE|52=20211012-03:34:09.545|56=BLP|10=252|
10:35:09.184 INFO  CNS_DECIDE---BLP--             - <<--- 8=FIX.4.2|9=0054|35=0|49=BLP|56=CNS_DECIDE|34=293|52=20211012-03:35:09|10=142|
10:35:09.545 INFO  CNS_DECIDE---BLP--             - --->> 8=FIX.4.2|9=58|35=0|34=293|49=CNS_DECIDE|52=20211012-03:35:09.545|56=BLP|10=254|
10:36:09.184 INFO  CNS_DECIDE---BLP--             - <<--- 8=FIX.4.2|9=0054|35=0|49=BLP|56=CNS_DECIDE|34=294|52=20211012-03:36:09|10=144|
10:36:09.545 INFO  CNS_DECIDE---BLP--             - --->> 8=FIX.4.2|9=58|35=0|34=294|49=CNS_DECIDE|52=20211012-03:36:09.545|56=BLP|10=000|
10:37:09.183 INFO  CNS_DECIDE---BLP--             - <<--- 8=FIX.4.2|9=0054|35=0|49=BLP|56=CNS_DECIDE|34=295|52=20211012-03:37:09|10=146|
10:37:09.545 INFO  CNS_DECIDE---BLP--             - --->> 8=FIX.4.2|9=58|35=0|34=295|49=CNS_DECIDE|52=20211012-03:37:09.545|56=BLP|10=002|
10:38:09.183 INFO  CNS_DECIDE---BLP--             - <<--- 8=FIX.4.2|9=0054|35=0|49=BLP|56=CNS_DECIDE|34=296|52=20211012-03:38:09|10=148|
10:38:09.546 INFO  CNS_DECIDE---BLP--             - --->> 8=FIX.4.2|9=58|35=0|34=296|49=CNS_DECIDE|52=20211012-03:38:09.546|56=BLP|10=005|
10:39:09.183 INFO  CNS_DECIDE---BLP--             - <<--- 8=FIX.4.2|9=0054|35=0|49=BLP|56=CNS_DECIDE|34=297|52=20211012-03:39:09|10=150|
10:39:09.548 INFO  CNS_DECIDE---BLP--             - --->> 8=FIX.4.2|9=58|35=0|34=297|49=CNS_DECIDE|52=20211012-03:39:09.548|56=BLP|10=009|
10:40:09.183 INFO  CNS_DECIDE---BLP--             - <<--- 8=FIX.4.2|9=0054|35=0|49=BLP|56=CNS_DECIDE|34=298|52=20211012-03:40:09|10=143|
10:40:09.549 INFO  CNS_DECIDE---BLP--             - --->> 8=FIX.4.2|9=58|35=0|34=298|49=CNS_DECIDE|52=20211012-03:40:09.549|56=BLP|10=003|
10:41:09.184 INFO  CNS_DECIDE---BLP--             - <<--- 8=FIX.4.2|9=0054|35=0|49=BLP|56=CNS_DECIDE|34=299|52=20211012-03:41:09|10=145|
10:41:09.548 INFO  CNS_DECIDE---BLP--             - --->> 8=FIX.4.2|9=58|35=0|34=299|49=CNS_DECIDE|52=20211012-03:41:09.548|56=BLP|10=004|
10:42:09.184 INFO  CNS_DECIDE---BLP--             - <<--- 8=FIX.4.2|9=0054|35=0|49=BLP|56=CNS_DECIDE|34=300|52=20211012-03:42:09|10=129|
10:42:09.549 INFO  CNS_DECIDE---BLP--             - --->> 8=FIX.4.2|9=58|35=0|34=300|49=CNS_DECIDE|52=20211012-03:42:09.549|56=BLP|10=245|
10:43:09.184 INFO  CNS_DECIDE---BLP--             - <<--- 8=FIX.4.2|9=0054|35=0|49=BLP|56=CNS_DECIDE|34=301|52=20211012-03:43:09|10=131|
10:43:09.550 INFO  CNS_DECIDE---BLP--             - --->> 8=FIX.4.2|9=58|35=0|34=301|49=CNS_DECIDE|52=20211012-03:43:09.550|56=BLP|10=239|
10:44:09.181 INFO  CNS_DECIDE---BLP--             - <<--- 8=FIX.4.2|9=0054|35=0|49=BLP|56=CNS_DECIDE|34=302|52=20211012-03:44:09|10=133|
10:44:09.552 INFO  CNS_DECIDE---BLP--             - --->> 8=FIX.4.2|9=58|35=0|34=302|49=CNS_DECIDE|52=20211012-03:44:09.552|56=BLP|10=243|
10:45:09.182 INFO  CNS_DECIDE---BLP--             - <<--- 8=FIX.4.2|9=0054|35=0|49=BLP|56=CNS_DECIDE|34=303|52=20211012-03:45:09|10=135|
10:45:09.552 INFO  CNS_DECIDE---BLP--             - --->> 8=FIX.4.2|9=58|35=0|34=303|49=CNS_DECIDE|52=20211012-03:45:09.552|56=BLP|10=245|
10:46:09.182 INFO  CNS_DECIDE---BLP--             - <<--- 8=FIX.4.2|9=0054|35=0|49=BLP|56=CNS_DECIDE|34=304|52=20211012-03:46:09|10=137|
10:46:09.554 INFO  CNS_DECIDE---BLP--             - --->> 8=FIX.4.2|9=58|35=0|34=304|49=CNS_DECIDE|52=20211012-03:46:09.554|56=BLP|10=249|
10:47:09.183 INFO  CNS_DECIDE---BLP--             - <<--- 8=FIX.4.2|9=0054|35=0|49=BLP|56=CNS_DECIDE|34=305|52=20211012-03:47:09|10=139|
10:47:09.554 INFO  CNS_DECIDE---BLP--             - --->> 8=FIX.4.2|9=58|35=0|34=305|49=CNS_DECIDE|52=20211012-03:47:09.554|56=BLP|10=251|
10:48:09.183 INFO  CNS_DECIDE---BLP--             - <<--- 8=FIX.4.2|9=0054|35=0|49=BLP|56=CNS_DECIDE|34=306|52=20211012-03:48:09|10=141|
10:48:09.556 INFO  CNS_DECIDE---BLP--             - --->> 8=FIX.4.2|9=58|35=0|34=306|49=CNS_DECIDE|52=20211012-03:48:09.556|56=BLP|10=255|
10:49:09.184 INFO  CNS_DECIDE---BLP--             - <<--- 8=FIX.4.2|9=0054|35=0|49=BLP|56=CNS_DECIDE|34=307|52=20211012-03:49:09|10=143|
10:49:09.557 INFO  CNS_DECIDE---BLP--             - --->> 8=FIX.4.2|9=58|35=0|34=307|49=CNS_DECIDE|52=20211012-03:49:09.557|56=BLP|10=002|
10:50:09.183 INFO  CNS_DECIDE---BLP--             - <<--- 8=FIX.4.2|9=0054|35=0|49=BLP|56=CNS_DECIDE|34=308|52=20211012-03:50:09|10=136|
10:50:09.558 INFO  CNS_DECIDE---BLP--             - --->> 8=FIX.4.2|9=58|35=0|34=308|49=CNS_DECIDE|52=20211012-03:50:09.558|56=BLP|10=252|
10:51:09.184 INFO  CNS_DECIDE---BLP--             - <<--- 8=FIX.4.2|9=0054|35=0|49=BLP|56=CNS_DECIDE|34=309|52=20211012-03:51:09|10=138|
10:51:09.558 INFO  CNS_DECIDE---BLP--             - --->> 8=FIX.4.2|9=58|35=0|34=309|49=CNS_DECIDE|52=20211012-03:51:09.558|56=BLP|10=254|
10:52:09.184 INFO  CNS_DECIDE---BLP--             - <<--- 8=FIX.4.2|9=0054|35=0|49=BLP|56=CNS_DECIDE|34=310|52=20211012-03:52:09|10=131|
10:52:09.558 INFO  CNS_DECIDE---BLP--             - --->> 8=FIX.4.2|9=58|35=0|34=310|49=CNS_DECIDE|52=20211012-03:52:09.558|56=BLP|10=247|
10:53:09.184 INFO  CNS_DECIDE---BLP--             - <<--- 8=FIX.4.2|9=0054|35=0|49=BLP|56=CNS_DECIDE|34=311|52=20211012-03:53:09|10=133|
10:53:09.559 INFO  CNS_DECIDE---BLP--             - --->> 8=FIX.4.2|9=58|35=0|34=311|49=CNS_DECIDE|52=20211012-03:53:09.559|56=BLP|10=250|
10:54:09.188 INFO  CNS_DECIDE---BLP--             - <<--- 8=FIX.4.2|9=0054|35=0|49=BLP|56=CNS_DECIDE|34=312|52=20211012-03:54:09|10=135|
10:54:09.560 INFO  CNS_DECIDE---BLP--             - --->> 8=FIX.4.2|9=58|35=0|34=312|49=CNS_DECIDE|52=20211012-03:54:09.560|56=BLP|10=244|
10:55:09.188 INFO  CNS_DECIDE---BLP--             - <<--- 8=FIX.4.2|9=0054|35=0|49=BLP|56=CNS_DECIDE|34=313|52=20211012-03:55:09|10=137|
10:55:09.562 INFO  CNS_DECIDE---BLP--             - --->> 8=FIX.4.2|9=58|35=0|34=313|49=CNS_DECIDE|52=20211012-03:55:09.562|56=BLP|10=248|
10:56:09.189 INFO  CNS_DECIDE---BLP--             - <<--- 8=FIX.4.2|9=0054|35=0|49=BLP|56=CNS_DECIDE|34=314|52=20211012-03:56:09|10=139|
10:56:09.562 INFO  CNS_DECIDE---BLP--             - --->> 8=FIX.4.2|9=58|35=0|34=314|49=CNS_DECIDE|52=20211012-03:56:09.562|56=BLP|10=250|
10:57:09.189 INFO  CNS_DECIDE---BLP--             - <<--- 8=FIX.4.2|9=0054|35=0|49=BLP|56=CNS_DECIDE|34=315|52=20211012-03:57:09|10=141|
10:57:09.564 INFO  CNS_DECIDE---BLP--             - --->> 8=FIX.4.2|9=58|35=0|34=315|49=CNS_DECIDE|52=20211012-03:57:09.564|56=BLP|10=254|
10:58:09.188 INFO  CNS_DECIDE---BLP--             - <<--- 8=FIX.4.2|9=0054|35=0|49=BLP|56=CNS_DECIDE|34=316|52=20211012-03:58:09|10=143|
10:58:09.564 INFO  CNS_DECIDE---BLP--             - --->> 8=FIX.4.2|9=58|35=0|34=316|49=CNS_DECIDE|52=20211012-03:58:09.564|56=BLP|10=000|
10:59:09.190 INFO  CNS_DECIDE---BLP--             - <<--- 8=FIX.4.2|9=0054|35=0|49=BLP|56=CNS_DECIDE|34=317|52=20211012-03:59:09|10=145|
10:59:09.565 INFO  CNS_DECIDE---BLP--             - --->> 8=FIX.4.2|9=58|35=0|34=317|49=CNS_DECIDE|52=20211012-03:59:09.565|56=BLP|10=003|
11:00:09.189 INFO  CNS_DECIDE---BLP--             - <<--- 8=FIX.4.2|9=0054|35=0|49=BLP|56=CNS_DECIDE|34=318|52=20211012-04:00:09|10=133|
11:00:09.567 INFO  CNS_DECIDE---BLP--             - --->> 8=FIX.4.2|9=58|35=0|34=318|49=CNS_DECIDE|52=20211012-04:00:09.567|56=BLP|10=249|
11:01:09.190 INFO  CNS_DECIDE---BLP--             - <<--- 8=FIX.4.2|9=0054|35=0|49=BLP|56=CNS_DECIDE|34=319|52=20211012-04:01:09|10=135|
11:01:09.567 INFO  CNS_DECIDE---BLP--             - --->> 8=FIX.4.2|9=58|35=0|34=319|49=CNS_DECIDE|52=20211012-04:01:09.567|56=BLP|10=251|
11:02:09.190 INFO  CNS_DECIDE---BLP--             - <<--- 8=FIX.4.2|9=0054|35=0|49=BLP|56=CNS_DECIDE|34=320|52=20211012-04:02:09|10=128|
11:02:09.568 INFO  CNS_DECIDE---BLP--             - --->> 8=FIX.4.2|9=58|35=0|34=320|49=CNS_DECIDE|52=20211012-04:02:09.568|56=BLP|10=245|
11:03:09.191 INFO  CNS_DECIDE---BLP--             - <<--- 8=FIX.4.2|9=0054|35=0|49=BLP|56=CNS_DECIDE|34=321|52=20211012-04:03:09|10=130|
11:03:09.569 INFO  CNS_DECIDE---BLP--             - --->> 8=FIX.4.2|9=58|35=0|34=321|49=CNS_DECIDE|52=20211012-04:03:09.569|56=BLP|10=248|
11:04:09.194 INFO  CNS_DECIDE---BLP--             - <<--- 8=FIX.4.2|9=0054|35=0|49=BLP|56=CNS_DECIDE|34=322|52=20211012-04:04:09|10=132|
11:04:09.570 INFO  CNS_DECIDE---BLP--             - --->> 8=FIX.4.2|9=58|35=0|34=322|49=CNS_DECIDE|52=20211012-04:04:09.570|56=BLP|10=242|
11:05:09.194 INFO  CNS_DECIDE---BLP--             - <<--- 8=FIX.4.2|9=0054|35=0|49=BLP|56=CNS_DECIDE|34=323|52=20211012-04:05:09|10=134|
11:05:09.570 INFO  CNS_DECIDE---BLP--             - --->> 8=FIX.4.2|9=58|35=0|34=323|49=CNS_DECIDE|52=20211012-04:05:09.570|56=BLP|10=244|
11:06:09.195 INFO  CNS_DECIDE---BLP--             - <<--- 8=FIX.4.2|9=0054|35=0|49=BLP|56=CNS_DECIDE|34=324|52=20211012-04:06:09|10=136|
11:06:09.572 INFO  CNS_DECIDE---BLP--             - --->> 8=FIX.4.2|9=58|35=0|34=324|49=CNS_DECIDE|52=20211012-04:06:09.572|56=BLP|10=248|
11:07:09.196 INFO  CNS_DECIDE---BLP--             - <<--- 8=FIX.4.2|9=0054|35=0|49=BLP|56=CNS_DECIDE|34=325|52=20211012-04:07:09|10=138|
11:07:09.573 INFO  CNS_DECIDE---BLP--             - --->> 8=FIX.4.2|9=58|35=0|34=325|49=CNS_DECIDE|52=20211012-04:07:09.573|56=BLP|10=251|
11:08:09.196 INFO  CNS_DECIDE---BLP--             - <<--- 8=FIX.4.2|9=0054|35=0|49=BLP|56=CNS_DECIDE|34=326|52=20211012-04:08:09|10=140|
11:08:09.573 INFO  CNS_DECIDE---BLP--             - --->> 8=FIX.4.2|9=58|35=0|34=326|49=CNS_DECIDE|52=20211012-04:08:09.573|56=BLP|10=253|
11:09:09.196 INFO  CNS_DECIDE---BLP--             - <<--- 8=FIX.4.2|9=0054|35=0|49=BLP|56=CNS_DECIDE|34=327|52=20211012-04:09:09|10=142|
11:09:09.574 INFO  CNS_DECIDE---BLP--             - --->> 8=FIX.4.2|9=58|35=0|34=327|49=CNS_DECIDE|52=20211012-04:09:09.574|56=BLP|10=000|
11:10:09.197 INFO  CNS_DECIDE---BLP--             - <<--- 8=FIX.4.2|9=0054|35=0|49=BLP|56=CNS_DECIDE|34=328|52=20211012-04:10:09|10=135|
11:10:09.574 INFO  CNS_DECIDE---BLP--             - --->> 8=FIX.4.2|9=58|35=0|34=328|49=CNS_DECIDE|52=20211012-04:10:09.574|56=BLP|10=249|
11:11:09.197 INFO  CNS_DECIDE---BLP--             - <<--- 8=FIX.4.2|9=0054|35=0|49=BLP|56=CNS_DECIDE|34=329|52=20211012-04:11:09|10=137|
11:11:09.575 INFO  CNS_DECIDE---BLP--             - --->> 8=FIX.4.2|9=58|35=0|34=329|49=CNS_DECIDE|52=20211012-04:11:09.575|56=BLP|10=252|
11:12:09.196 INFO  CNS_DECIDE---BLP--             - <<--- 8=FIX.4.2|9=0054|35=0|49=BLP|56=CNS_DECIDE|34=330|52=20211012-04:12:09|10=130|
11:12:09.576 INFO  CNS_DECIDE---BLP--             - --->> 8=FIX.4.2|9=58|35=0|34=330|49=CNS_DECIDE|52=20211012-04:12:09.576|56=BLP|10=246|
11:13:09.201 INFO  CNS_DECIDE---BLP--             - <<--- 8=FIX.4.2|9=0054|35=0|49=BLP|56=CNS_DECIDE|34=331|52=20211012-04:13:09|10=132|
11:13:09.580 INFO  CNS_DECIDE---BLP--             - --->> 8=FIX.4.2|9=58|35=0|34=331|49=CNS_DECIDE|52=20211012-04:13:09.580|56=BLP|10=243|
11:14:09.200 INFO  CNS_DECIDE---BLP--             - <<--- 8=FIX.4.2|9=0054|35=0|49=BLP|56=CNS_DECIDE|34=332|52=20211012-04:14:09|10=134|
11:14:09.580 INFO  CNS_DECIDE---BLP--             - --->> 8=FIX.4.2|9=58|35=0|34=332|49=CNS_DECIDE|52=20211012-04:14:09.580|56=BLP|10=245|
11:15:09.201 INFO  CNS_DECIDE---BLP--             - <<--- 8=FIX.4.2|9=0054|35=0|49=BLP|56=CNS_DECIDE|34=333|52=20211012-04:15:09|10=136|
11:15:09.582 INFO  CNS_DECIDE---BLP--             - --->> 8=FIX.4.2|9=58|35=0|34=333|49=CNS_DECIDE|52=20211012-04:15:09.582|56=BLP|10=249|
11:16:09.200 INFO  CNS_DECIDE---BLP--             - <<--- 8=FIX.4.2|9=0054|35=0|49=BLP|56=CNS_DECIDE|34=334|52=20211012-04:16:09|10=138|
11:16:09.584 INFO  CNS_DECIDE---BLP--             - --->> 8=FIX.4.2|9=58|35=0|34=334|49=CNS_DECIDE|52=20211012-04:16:09.584|56=BLP|10=253|
11:17:09.201 INFO  CNS_DECIDE---BLP--             - <<--- 8=FIX.4.2|9=0054|35=0|49=BLP|56=CNS_DECIDE|34=335|52=20211012-04:17:09|10=140|
11:17:09.584 INFO  CNS_DECIDE---BLP--             - --->> 8=FIX.4.2|9=58|35=0|34=335|49=CNS_DECIDE|52=20211012-04:17:09.584|56=BLP|10=255|
11:18:09.201 INFO  CNS_DECIDE---BLP--             - <<--- 8=FIX.4.2|9=0054|35=0|49=BLP|56=CNS_DECIDE|34=336|52=20211012-04:18:09|10=142|
11:18:09.584 INFO  CNS_DECIDE---BLP--             - --->> 8=FIX.4.2|9=58|35=0|34=336|49=CNS_DECIDE|52=20211012-04:18:09.584|56=BLP|10=001|
11:19:09.202 INFO  CNS_DECIDE---BLP--             - <<--- 8=FIX.4.2|9=0054|35=0|49=BLP|56=CNS_DECIDE|34=337|52=20211012-04:19:09|10=144|
11:19:09.585 INFO  CNS_DECIDE---BLP--             - --->> 8=FIX.4.2|9=58|35=0|34=337|49=CNS_DECIDE|52=20211012-04:19:09.585|56=BLP|10=004|
11:20:09.192 INFO  CNS_DECIDE---BLP--             - <<--- 8=FIX.4.2|9=0054|35=0|49=BLP|56=CNS_DECIDE|34=338|52=20211012-04:20:09|10=137|
11:20:09.586 INFO  CNS_DECIDE---BLP--             - --->> 8=FIX.4.2|9=58|35=0|34=338|49=CNS_DECIDE|52=20211012-04:20:09.586|56=BLP|10=254|
11:21:09.193 INFO  CNS_DECIDE---BLP--             - <<--- 8=FIX.4.2|9=0054|35=0|49=BLP|56=CNS_DECIDE|34=339|52=20211012-04:21:09|10=139|
11:21:09.588 INFO  CNS_DECIDE---BLP--             - --->> 8=FIX.4.2|9=58|35=0|34=339|49=CNS_DECIDE|52=20211012-04:21:09.588|56=BLP|10=002|
11:22:09.193 INFO  CNS_DECIDE---BLP--             - <<--- 8=FIX.4.2|9=0054|35=0|49=BLP|56=CNS_DECIDE|34=340|52=20211012-04:22:09|10=132|
11:22:09.588 INFO  CNS_DECIDE---BLP--             - --->> 8=FIX.4.2|9=58|35=0|34=340|49=CNS_DECIDE|52=20211012-04:22:09.588|56=BLP|10=251|
11:23:09.193 INFO  CNS_DECIDE---BLP--             - <<--- 8=FIX.4.2|9=0054|35=0|49=BLP|56=CNS_DECIDE|34=341|52=20211012-04:23:09|10=134|
11:23:09.588 INFO  CNS_DECIDE---BLP--             - --->> 8=FIX.4.2|9=58|35=0|34=341|49=CNS_DECIDE|52=20211012-04:23:09.588|56=BLP|10=253|
11:24:09.192 INFO  CNS_DECIDE---BLP--             - <<--- 8=FIX.4.2|9=0054|35=0|49=BLP|56=CNS_DECIDE|34=342|52=20211012-04:24:09|10=136|
11:24:09.591 INFO  CNS_DECIDE---BLP--             - --->> 8=FIX.4.2|9=58|35=0|34=342|49=CNS_DECIDE|52=20211012-04:24:09.591|56=BLP|10=249|
11:25:09.193 INFO  CNS_DECIDE---BLP--             - <<--- 8=FIX.4.2|9=0054|35=0|49=BLP|56=CNS_DECIDE|34=343|52=20211012-04:25:09|10=138|
11:25:09.590 INFO  CNS_DECIDE---BLP--             - --->> 8=FIX.4.2|9=58|35=0|34=343|49=CNS_DECIDE|52=20211012-04:25:09.590|56=BLP|10=250|
11:26:09.193 INFO  CNS_DECIDE---BLP--             - <<--- 8=FIX.4.2|9=0054|35=0|49=BLP|56=CNS_DECIDE|34=344|52=20211012-04:26:09|10=140|
11:26:09.591 INFO  CNS_DECIDE---BLP--             - --->> 8=FIX.4.2|9=58|35=0|34=344|49=CNS_DECIDE|52=20211012-04:26:09.591|56=BLP|10=253|
11:27:09.195 INFO  CNS_DECIDE---BLP--             - <<--- 8=FIX.4.2|9=0054|35=0|49=BLP|56=CNS_DECIDE|34=345|52=20211012-04:27:09|10=142|
11:27:09.593 INFO  CNS_DECIDE---BLP--             - --->> 8=FIX.4.2|9=58|35=0|34=345|49=CNS_DECIDE|52=20211012-04:27:09.593|56=BLP|10=001|
11:28:09.194 INFO  CNS_DECIDE---BLP--             - <<--- 8=FIX.4.2|9=0054|35=0|49=BLP|56=CNS_DECIDE|34=346|52=20211012-04:28:09|10=144|
11:28:09.593 INFO  CNS_DECIDE---BLP--             - --->> 8=FIX.4.2|9=58|35=0|34=346|49=CNS_DECIDE|52=20211012-04:28:09.593|56=BLP|10=003|
11:29:09.195 INFO  CNS_DECIDE---BLP--             - <<--- 8=FIX.4.2|9=0054|35=0|49=BLP|56=CNS_DECIDE|34=347|52=20211012-04:29:09|10=146|
11:29:09.594 INFO  CNS_DECIDE---BLP--             - --->> 8=FIX.4.2|9=58|35=0|34=347|49=CNS_DECIDE|52=20211012-04:29:09.594|56=BLP|10=006|
11:30:09.195 INFO  CNS_DECIDE---BLP--             - <<--- 8=FIX.4.2|9=0054|35=0|49=BLP|56=CNS_DECIDE|34=348|52=20211012-04:30:09|10=139|
11:30:09.596 INFO  CNS_DECIDE---BLP--             - --->> 8=FIX.4.2|9=58|35=0|34=348|49=CNS_DECIDE|52=20211012-04:30:09.596|56=BLP|10=001|
11:31:09.195 INFO  CNS_DECIDE---BLP--             - <<--- 8=FIX.4.2|9=0054|35=0|49=BLP|56=CNS_DECIDE|34=349|52=20211012-04:31:09|10=141|
11:31:09.596 INFO  CNS_DECIDE---BLP--             - --->> 8=FIX.4.2|9=58|35=0|34=349|49=CNS_DECIDE|52=20211012-04:31:09.596|56=BLP|10=003|
11:32:09.195 INFO  CNS_DECIDE---BLP--             - <<--- 8=FIX.4.2|9=0054|35=0|49=BLP|56=CNS_DECIDE|34=350|52=20211012-04:32:09|10=134|
